{
  "transactions": [
    {
      "hash": "0xd11b1da7a71803fb078cd463db44c07abace9f5eb767ffe0d8618708baa0b1c0",
      "transactionType": "CREATE",
      "contractName": "phoneToken",
      "contractAddress": "0x9a25891af92e119eca271295ca55a7a0871fe74c",
      "function": null,
      "arguments": [
        "0xbf50Be5CE4d697AC06DE50eFb7D545E892575635"
      ],
      "transaction": {
        "from": "0xae1710c414e95b83c247e01e8f30ee117771599b",
        "gas": "0x1c342f",
        "value": "0x0",
        "input": "0x60a0346200041057601f62001a4038819003828101601f199081168501949290916001600160401b039190828711858810176200031d57808592604098895283396020948591810103126200041057516001600160a01b038116949085810362000410576200006d62000414565b92600584526470686f6e6560d81b868501526200008962000414565b9260028452610e0d60f31b878501528451908282116200031d5760039182546001978882811c9216801562000405575b8b831014620003f15781848493116200039e575b508a908483116001146200033d575f9262000331575b50505f1982851b1c191690871b1782555b84519283116200031d5760049687548781811c9116801562000312575b8a821014620002ff57828111620002b7575b50889184116001146200024d575090829162000188955f9362000241575b505082861b925f19911b1c19161784555b336080819052600680546001600160a01b03191688179055620001759062000434565b506200018181620004a4565b5062000545565b50835f5260098352845f209060ff1982541617905582156200022b576002546bcb98f09df41f24cbc0c00000918282018092116200021857506002555f8381528083528481208054830190558451918252917fddf252ad1be2c89b69c2b068fc378daa952ba7f163c4a11628f55a4df523b3ef91a3426007555161141f9081620005e18239608051816106520152f35b601190634e487b7160e01b5f525260245ffd5b6024905f85519163ec442f0560e01b8352820152fd5b015191505f8062000141565b5f888152898120918516968895949293915b8b898210620002a05750508462000188981062000286575b50505050811b01845562000152565b01519060f8845f19921b161c191690555f80808062000277565b8284015186558a979095019492830192016200025f565b885f52895f208380870160051c8201928c8810620002f5575b0160051c019088905b828110620002e957505062000123565b5f8155018890620002d9565b92508192620002d0565b602289634e487b7160e01b5f525260245ffd5b90607f169062000111565b634e487b7160e01b5f52604160045260245ffd5b015190505f80620000e3565b908a8a941691865f528c5f20928d5f905b8282106200038657505084116200036e575b505050811b018255620000f4565b01515f1983871b60f8161c191690555f808062000360565b8385015186558d979095019493840193018e6200034e565b909150845f528a5f208480850160051c8201928d8610620003e7575b918b91869594930160051c01915b828110620003d8575050620000cd565b5f81558594508b9101620003c8565b92508192620003ba565b634e487b7160e01b5f52602260045260245ffd5b91607f1691620000b9565b5f80fd5b60408051919082016001600160401b038111838210176200031d57604052565b6001600160a01b03165f8181525f8051602062001a20833981519152602052604090205460ff166200049f575f8181525f8051602062001a2083398151915260205260408120805460ff191660011790553391905f8051602062001a008339815191528180a4600190565b505f90565b6001600160a01b03165f8181527f15a28d26fa1bf736cf7edc9922607171ccb09c3c73b808e7772a3013e068a52260205260409020547f9f2df0fed2c77648de5860a4cc508cd0818c85b8b8a1ab4ceeef8d981c8956a6919060ff166200053f57815f52600560205260405f20815f5260205260405f20600160ff1982541617905533915f8051602062001a008339815191525f80a4600190565b50505f90565b6001600160a01b03165f8181527f847f481f687befb06ed3511f1a8dcef57e83007c0147ae5047583d705617093760205260409020547f3c11d16cbaffd01df69ce1c404f6340ee057498f5f00246190ea54220576a848919060ff166200053f57815f52600560205260405f20815f5260205260405f20600160ff1982541617905533915f8051602062001a008339815191525f80a460019056fe608060409080825260049081361015610016575f80fd5b5f3560e01c90816301ffc9a714610d925750806306fdde0314610cb657806308acece2146103d5578063095ea7b314610c8d5780631131c9c514610c6f578063118f98e514610c4c57806318160ddd14610c2e57806323b872dd14610acf578063248a9ca314610aa4578063282c51f314610a6a5780632a89153414610a4d5780632f2ff15d14610a24578063313ce56714610a0957806332cb6b0c146109e257806336568abe1461099d5780633af32abf1461096157806340c10f191461076157806342966c681461073c578063469048401461071457806370a08231146106de57806379cc6790146104355780638ab1d6811461069f5780638e80ff5d146106815780638fd6a6ac1461063e57806391d14854146105f957806395d89b41146104d95780639dc29fac14610435578063a217fddf1461041b578063a2fa0e5d146103f5578063a525ad3c146103da578063a9059cbb146103d5578063ca7df92c146103af578063cfa498a314610393578063d539139314610359578063d547741f1461031c578063dd62ed3e146102d3578063e43252d7146102465763e74b981b146101c2575f80fd5b34610242576020366003190112610242576101db610e2b565b6101e3611121565b6001600160a01b031691821561020757600680546001600160a01b03191684179055005b906020606492519162461bcd60e51b83528201526015602482015274125b9d985b1a5908199959481c9958da5c1a595b9d605a1b6044820152fd5b5f80fd5b503461024257602036600319011261024257610260610e2b565b610268611121565b6001600160a01b031690811561029057505f908152600960205220805460ff19166001179055005b606490602084519162461bcd60e51b8352820152601d60248201527f43616e6e6f742077686974656c697374207a65726f20616464726573730000006044820152fd5b82346102425780600319360112610242576020906102ef610e2b565b6102f7610e41565b9060018060a01b038091165f5260018452825f2091165f528252805f20549051908152f35b50903461024257806003193601126102425761035791356103526001610340610e41565b93835f5260056020525f200154611177565b611217565b005b8234610242575f36600319011261024257602090517f9f2df0fed2c77648de5860a4cc508cd0818c85b8b8a1ab4ceeef8d981c8956a68152f35b8234610242575f36600319011261024257602090516127108152f35b8234610242575f36600319011261024257602090516bcb98f09df41f24cbc0c000008152f35b610e57565b8234610242575f366003190112610242576020905160648152f35b8234610242575f36600319011261024257602090516b0d92bab5326879eb734000008152f35b8234610242575f36600319011261024257602090515f8152f35b503461024257816003193601126102425761044e610e2b565b6024359161045a6110a8565b6001600160a01b0382165f90815260016020908152858220338352905284902054935f19851061048f575b610357848461134a565b8385106104af5750506104a88261035794033383611318565b5f80610485565b51637dc7a0d960e11b81523391810191825260208201859052604082018490529081906060010390fd5b509034610242575f366003190112610242578051905f835460018160011c90600183169283156105ef575b60209384841081146105dc578388529081156105c0575060011461056c575b505050829003601f01601f191682019267ffffffffffffffff8411838510176105595750829182610555925282610de4565b0390f35b604190634e487b7160e01b5f525260245ffd5b5f878152929350837f8a35acfbc15ff81a39ae7d344fd709f28e8600b4aa8c65c6b64bfe7fe36bd19b5b8385106105ac57505050508301015f8080610523565b805488860183015293019284908201610596565b60ff1916878501525050151560051b84010190505f8080610523565b602289634e487b7160e01b5f525260245ffd5b91607f1691610504565b509034610242578060031936011261024257602091610616610e41565b90355f5260058352815f209060018060a01b03165f52825260ff815f20541690519015158152f35b8234610242575f36600319011261024257517f00000000000000000000000000000000000000000000000000000000000000006001600160a01b03168152602090f35b8234610242575f366003190112610242576020906007549051908152f35b8234610242576020366003190112610242576106b9610e2b565b6106c1611121565b6001600160a01b03165f908152600960205220805460ff19169055005b8234610242576020366003190112610242576020906001600160a01b03610703610e2b565b165f525f8252805f20549051908152f35b8234610242575f3660031901126102425760065490516001600160a01b039091168152602090f35b5034610242576020366003190112610242576103579061075a6110a8565b353361134a565b503461024257816003193601126102425761077a610e2b565b906024928335927f9f2df0fed2c77648de5860a4cc508cd0818c85b8b8a1ab4ceeef8d981c8956a694855f5260209560058752835f20335f52875260ff845f205416156109455750600254916c054d50eec7b0cf9ff9050000006107de8785610f7d565b116109035760075462278d00908181018091116108f1574210156108d8575b506b0d92bab5326879eb7340000061081787600854610f7d565b11610896576001600160a01b031693841561088357505061087e945f9261085f867fddf252ad1be2c89b69c2b068fc378daa952ba7f163c4a11628f55a4df523b3ef94610f7d565b60025584845283825280842086815401905551858152a3600854610f7d565b600855005b5f84519163ec442f0560e01b8352820152fd5b835162461bcd60e51b8152808601889052601a818401527f45786365656473206d6f6e74686c79206d696e74206c696d69740000000000006044820152606490fd5b6108e8905f600855420642610f70565b6007555f6107fd565b83601188634e487b7160e01b5f52525ffd5b835162461bcd60e51b8152808601889052601c818401527f4d696e7420776f756c6420657863656564206d617820737570706c79000000006044820152606490fd5b915060449392519263e2517d3f60e01b84523390840152820152fd5b8234610242576020366003190112610242576020906001600160a01b03610986610e2b565b165f526009825260ff815f20541690519015158152f35b5090346102425780600319360112610242576109b7610e41565b90336001600160a01b038316036109d357506103579135611217565b5163334bd91960e11b81529050fd5b8234610242575f36600319011261024257602090516c054d50eec7b0cf9ff9050000008152f35b8234610242575f366003190112610242576020905160128152f35b5090346102425780600319360112610242576103579135610a486001610340610e41565b611199565b8234610242575f366003190112610242576020905162278d008152f35b8234610242575f36600319011261024257602090517f3c11d16cbaffd01df69ce1c404f6340ee057498f5f00246190ea54220576a8488152f35b50903461024257602036600319011261024257602091355f52600582526001815f2001549051908152f35b50903461024257606036600319011261024257610aea610e2b565b91610af3610e41565b906044359160018060a01b0380861692835f526001602052855f20335f52602052855f205493858510610bda575f52600960205260ff865f2054168015610bc8575b15610b66575050828592610b52610b5f95610b5794602099610fce565b610f70565b90339061128b565b5160018152f35b606485939293029085820460641486151715610bb5575092610b52610b5793610bb09693610baa61271060209b9804610b9f8188610f70565b936006541689610fce565b86610fce565b610b5f565b601190634e487b7160e01b5f525260245ffd5b508183165f5260ff865f205416610b35565b865162461bcd60e51b8152602081840152602860248201527f45524332303a207472616e7366657220616d6f756e74206578636565647320616044820152676c6c6f77616e636560c01b6064820152608490fd5b8234610242575f366003190112610242576020906002549051908152f35b8234610242575f36600319011261024257602090610c68610f8a565b9051908152f35b8234610242575f366003190112610242576020906008549051908152f35b8234610242578060031936011261024257602090610b5f610cac610e2b565b602435903361128b565b509034610242575f366003190112610242578051905f60035460018160011c9060018316928315610d88575b60209384841081146105dc578388529081156105c05750600114610d3257505050829003601f01601f191682019267ffffffffffffffff8411838510176105595750829182610555925282610de4565b60035f908152929350837fc2575a0e9e593c00f959f8c92f12db2869c3395a3b0502d05e2516446f71f85b5b838510610d7457505050508301015f8080610523565b805488860183015293019284908201610d5e565b91607f1691610ce2565b823461024257602036600319011261024257359063ffffffff60e01b821680920361024257602091637965db0b60e01b8114908115610dd3575b5015158152f35b6301ffc9a760e01b14905083610dcc565b602080825282518183018190529093925f5b828110610e1757505060409293505f838284010152601f8019910116010190565b818101860151848201604001528501610df6565b600435906001600160a01b038216820361024257565b602435906001600160a01b038216820361024257565b3461024257604036600319011261024257610e70610e2b565b602435906001600160a01b038082168015610f1f57335f52600960205260ff60405f205416908115610f0d575b5015610eba575090610eaf9133610fce565b602060405160018152f35b906064830283810460641484151715610ef957610ef493610ee3612710610eee93048092610f70565b936006541633610fce565b33610fce565b610eaf565b634e487b7160e01b5f52601160045260245ffd5b90505f5260ff60405f2054165f610e9d565b60405162461bcd60e51b815260206004820152602360248201527f45524332303a207472616e7366657220746f20746865207a65726f206164647260448201526265737360e81b6064820152608490fd5b91908203918211610ef957565b91908201809211610ef957565b60075462278d008101809111610ef957421015610fbe576008546b0d92bab5326879eb73400000908103908111610ef95790565b6b0d92bab5326879eb7340000090565b916001600160a01b03808416928315611090571692831561107857825f525f60205260405f2054908282106110465750817fddf252ad1be2c89b69c2b068fc378daa952ba7f163c4a11628f55a4df523b3ef92602092855f525f84520360405f2055845f5260405f20818154019055604051908152a3565b60405163391434e360e21b81526001600160a01b03919091166004820152602481019190915260448101829052606490fd5b60405163ec442f0560e01b81525f6004820152602490fd5b604051634b637e8f60e11b81525f6004820152602490fd5b335f9081527f847f481f687befb06ed3511f1a8dcef57e83007c0147ae5047583d705617093760205260409020547f3c11d16cbaffd01df69ce1c404f6340ee057498f5f00246190ea54220576a8489060ff16156111035750565b6044906040519063e2517d3f60e01b82523360048301526024820152fd5b335f9081527f05b8ccbb9d4d8fb16ea74ce3c29a41f1b461fbdaff4714a0d9a8eb05499746bc602052604090205460ff161561115957565b60405163e2517d3f60e01b81523360048201525f6024820152604490fd5b805f52600560205260405f20335f5260205260ff60405f205416156111035750565b90815f52600560205260405f209060018060a01b031690815f5260205260ff60405f205416155f1461121157815f52600560205260405f20815f5260205260405f20600160ff1982541617905533917f2f8788117e7eff1d82e926ec794901d17c78024a50270940304540a733656f0d5f80a4600190565b50505f90565b90815f52600560205260405f209060018060a01b031690815f5260205260ff60405f2054165f1461121157815f52600560205260405f20815f5260205260405f2060ff19815416905533917ff6391f5c32d9c69d2a47ea670b442974b53935d1edc7fd64eb21e047a839171b5f80a4600190565b6001600160a01b0390811691821561130057169182156112e85760207f8c5be1e5ebec7d5bd14f71427d1e84f3dd0314c0f7b2291e5b200ac8c7c3b92591835f526001825260405f20855f5282528060405f2055604051908152a3565b604051634a1406b160e11b81525f6004820152602490fd5b60405163e602df0560e01b81525f6004820152602490fd5b6001600160a01b0390811691821561130057169081156112e8575f52600160205260405f20905f5260205260405f2055565b91906001600160a01b03831690811561109057815f525f60205260405f2054938185106113b757506020817fddf252ad1be2c89b69c2b068fc378daa952ba7f163c4a11628f55a4df523b3ef925f95968587528684520360408620558060025403600255604051908152a3565b60405163391434e360e21b81526001600160a01b03919091166004820152602481018590526044810191909152606490fdfea2646970667358221220fedeb9a1a1d33abc620f4b1a0deb5de58256717c0d3abf87c7c4c372b1ac020564736f6c634300081800332f8788117e7eff1d82e926ec794901d17c78024a50270940304540a733656f0d05b8ccbb9d4d8fb16ea74ce3c29a41f1b461fbdaff4714a0d9a8eb05499746bc000000000000000000000000bf50be5ce4d697ac06de50efb7d545e892575635",
        "nonce": "0x0",
        "chainId": "0x515"
      },
      "additionalContracts": [],
      "isFixedGasLimit": false
    },
    {
      "hash": "0x9bb07863dcc5ad1dda7206d2b2c32ec29ec50be258e98d4906bee0e2c6642bea",
      "transactionType": "CALL",
      "contractName": "phoneToken",
      "contractAddress": "0x9a25891af92e119eca271295ca55a7a0871fe74c",
      "function": "grantRole(bytes32,address)",
      "arguments": [
        "0x9f2df0fed2c77648de5860a4cc508cd0818c85b8b8a1ab4ceeef8d981c8956a6",
        "0xAE1710C414E95B83c247E01E8F30eE117771599B"
      ],
      "transaction": {
        "from": "0xae1710c414e95b83c247e01e8f30ee117771599b",
        "to": "0x9a25891af92e119eca271295ca55a7a0871fe74c",
        "gas": "0x1250d",
        "value": "0x0",
        "input": "0x2f2ff15d9f2df0fed2c77648de5860a4cc508cd0818c85b8b8a1ab4ceeef8d981c8956a6000000000000000000000000ae1710c414e95b83c247e01e8f30ee117771599b",
        "nonce": "0x1",
        "chainId": "0x515"
      },
      "additionalContracts": [],
      "isFixedGasLimit": false
    },
    {
      "hash": "0xa973d01a858d5e81080c657e60575c34e545e1197b786df0acb1af27c6915582",
      "transactionType": "CALL",
      "contractName": "phoneToken",
      "contractAddress": "0x9a25891af92e119eca271295ca55a7a0871fe74c",
      "function": "grantRole(bytes32,address)",
      "arguments": [
        "0x3c11d16cbaffd01df69ce1c404f6340ee057498f5f00246190ea54220576a848",
        "0xAE1710C414E95B83c247E01E8F30eE117771599B"
      ],
      "transaction": {
        "from": "0xae1710c414e95b83c247e01e8f30ee117771599b",
        "to": "0x9a25891af92e119eca271295ca55a7a0871fe74c",
        "gas": "0x114b5",
        "value": "0x0",
        "input": "0x2f2ff15d3c11d16cbaffd01df69ce1c404f6340ee057498f5f00246190ea54220576a848000000000000000000000000ae1710c414e95b83c247e01e8f30ee117771599b",
        "nonce": "0x2",
        "chainId": "0x515"
      },
      "additionalContracts": [],
      "isFixedGasLimit": false
    },
    {
      "hash": "0x636ed51a29d6e6df7d52998736c3d1bd8a5a037d39dbf6fd43ba721bf4926498",
      "transactionType": "CALL",
      "contractName": "phoneToken",
      "contractAddress": "0x9a25891af92e119eca271295ca55a7a0871fe74c",
      "function": "addToWhitelist(address)",
      "arguments": [
        "0xAE1710C414E95B83c247E01E8F30eE117771599B"
      ],
      "transaction": {
        "from": "0xae1710c414e95b83c247e01e8f30ee117771599b",
        "to": "0x9a25891af92e119eca271295ca55a7a0871fe74c",
        "gas": "0x10bd4",
        "value": "0x0",
        "input": "0xe43252d7000000000000000000000000ae1710c414e95b83c247e01e8f30ee117771599b",
        "nonce": "0x3",
        "chainId": "0x515"
      },
      "additionalContracts": [],
      "isFixedGasLimit": false
    }
  ],
  "receipts": [
    {
      "status": "0x1",
      "cumulativeGasUsed": "0x19dac3",
      "logs": [
        {
          "address": "0x9a25891af92e119eca271295ca55a7a0871fe74c",
          "topics": [
            "0x2f8788117e7eff1d82e926ec794901d17c78024a50270940304540a733656f0d",
            "0x0000000000000000000000000000000000000000000000000000000000000000",
            "0x000000000000000000000000ae1710c414e95b83c247e01e8f30ee117771599b",
            "0x000000000000000000000000ae1710c414e95b83c247e01e8f30ee117771599b"
          ],
          "data": "0x",
          "blockHash": "0xcd615ea95fdf3cfbb337a68d1e875309f7f5695786532a050f456d19c92d2d96",
          "blockNumber": "0x104850d",
          "transactionHash": "0xd11b1da7a71803fb078cd463db44c07abace9f5eb767ffe0d8618708baa0b1c0",
          "transactionIndex": "0x7",
          "logIndex": "0x0",
          "removed": false
        },
        {
          "address": "0x9a25891af92e119eca271295ca55a7a0871fe74c",
          "topics": [
            "0x2f8788117e7eff1d82e926ec794901d17c78024a50270940304540a733656f0d",
            "0x9f2df0fed2c77648de5860a4cc508cd0818c85b8b8a1ab4ceeef8d981c8956a6",
            "0x000000000000000000000000bf50be5ce4d697ac06de50efb7d545e892575635",
            "0x000000000000000000000000ae1710c414e95b83c247e01e8f30ee117771599b"
          ],
          "data": "0x",
          "blockHash": "0xcd615ea95fdf3cfbb337a68d1e875309f7f5695786532a050f456d19c92d2d96",
          "blockNumber": "0x104850d",
          "transactionHash": "0xd11b1da7a71803fb078cd463db44c07abace9f5eb767ffe0d8618708baa0b1c0",
          "transactionIndex": "0x7",
          "logIndex": "0x1",
          "removed": false
        },
        {
          "address": "0x9a25891af92e119eca271295ca55a7a0871fe74c",
          "topics": [
            "0x2f8788117e7eff1d82e926ec794901d17c78024a50270940304540a733656f0d",
            "0x3c11d16cbaffd01df69ce1c404f6340ee057498f5f00246190ea54220576a848",
            "0x000000000000000000000000bf50be5ce4d697ac06de50efb7d545e892575635",
            "0x000000000000000000000000ae1710c414e95b83c247e01e8f30ee117771599b"
          ],
          "data": "0x",
          "blockHash": "0xcd615ea95fdf3cfbb337a68d1e875309f7f5695786532a050f456d19c92d2d96",
          "blockNumber": "0x104850d",
          "transactionHash": "0xd11b1da7a71803fb078cd463db44c07abace9f5eb767ffe0d8618708baa0b1c0",
          "transactionIndex": "0x7",
          "logIndex": "0x2",
          "removed": false
        },
        {
          "address": "0x9a25891af92e119eca271295ca55a7a0871fe74c",
          "topics": [
            "0xddf252ad1be2c89b69c2b068fc378daa952ba7f163c4a11628f55a4df523b3ef",
            "0x0000000000000000000000000000000000000000000000000000000000000000",
            "0x000000000000000000000000bf50be5ce4d697ac06de50efb7d545e892575635"
          ],
          "data": "0x0000000000000000000000000000000000000000cb98f09df41f24cbc0c00000",
          "blockHash": "0xcd615ea95fdf3cfbb337a68d1e875309f7f5695786532a050f456d19c92d2d96",
          "blockNumber": "0x104850d",
          "transactionHash": "0xd11b1da7a71803fb078cd463db44c07abace9f5eb767ffe0d8618708baa0b1c0",
          "transactionIndex": "0x7",
          "logIndex": "0x3",
          "removed": false
        }
      ],
      "logsBloom": "0x0000000400001000000000000000000000000000000000000000000000000000000000000000000000000000000000400000000000000a000000000000000000000000000000000000000008000000000000000000000000000000000000000000000000020000000200200000000804000000000000000000000010001000000000000080000000000000000000000000000000000000000000000000000000000000000000000000000000000000000000020000004000001000000000010000040002000000000000000000000000001000000000000500000000000020000000000000000000000000000000000000000000000000000000000000000000",
      "type": "0x2",
      "transactionHash": "0xd11b1da7a71803fb078cd463db44c07abace9f5eb767ffe0d8618708baa0b1c0",
      "transactionIndex": "0x7",
      "blockHash": "0xcd615ea95fdf3cfbb337a68d1e875309f7f5695786532a050f456d19c92d2d96",
      "blockNumber": "0x104850d",
      "gasUsed": "0x15b1fd",
      "effectiveGasPrice": "0xc682",
      "from": "0xae1710c414e95b83c247e01e8f30ee117771599b",
      "to": null,
      "contractAddress": "0x9a25891af92e119eca271295ca55a7a0871fe74c",
      "l1BaseFeeScalar": "0x7d0",
      "l1BlobBaseFee": "0x1",
      "l1BlobBaseFeeScalar": "0xdbba0",
      "l1Fee": "0x16d54a7c3a",
      "l1GasPrice": "0x2fe86cd1",
      "l1GasUsed": "0xee4d"
    },
    {
      "status": "0x1",
      "cumulativeGasUsed": "0x1aa324",
      "logs": [
        {
          "address": "0x9a25891af92e119eca271295ca55a7a0871fe74c",
          "topics": [
            "0x2f8788117e7eff1d82e926ec794901d17c78024a50270940304540a733656f0d",
            "0x9f2df0fed2c77648de5860a4cc508cd0818c85b8b8a1ab4ceeef8d981c8956a6",
            "0x000000000000000000000000ae1710c414e95b83c247e01e8f30ee117771599b",
            "0x000000000000000000000000ae1710c414e95b83c247e01e8f30ee117771599b"
          ],
          "data": "0x",
          "blockHash": "0xcd615ea95fdf3cfbb337a68d1e875309f7f5695786532a050f456d19c92d2d96",
          "blockNumber": "0x104850d",
          "transactionHash": "0x9bb07863dcc5ad1dda7206d2b2c32ec29ec50be258e98d4906bee0e2c6642bea",
          "transactionIndex": "0x8",
          "logIndex": "0x4",
          "removed": false
        }
      ],
      "logsBloom": "0x00000004000000000000000000000000000000000000000000000000000000000000000000000000000000000000004000000000000002000000000000000000000000000000000000000000000000000000000000000000000000000000000000000000000000000200200000000004000000000000000000000000001000000000000080000000000000000000000000000000000000000000000000000000000000000000000000000000000000000000000000000000001000000000010000000000000000000000000000000000001000000000000100000000000000000000000000000000000000000000000000000000000000000000000000000000",
      "type": "0x2",
      "transactionHash": "0x9bb07863dcc5ad1dda7206d2b2c32ec29ec50be258e98d4906bee0e2c6642bea",
      "transactionIndex": "0x8",
      "blockHash": "0xcd615ea95fdf3cfbb337a68d1e875309f7f5695786532a050f456d19c92d2d96",
      "blockNumber": "0x104850d",
      "gasUsed": "0xc861",
      "effectiveGasPrice": "0xc682",
      "from": "0xae1710c414e95b83c247e01e8f30ee117771599b",
      "to": "0x9a25891af92e119eca271295ca55a7a0871fe74c",
      "contractAddress": null,
      "l1BaseFeeScalar": "0x7d0",
      "l1BlobBaseFee": "0x1",
      "l1BlobBaseFeeScalar": "0xdbba0",
      "l1Fee": "0x9f2242ea",
      "l1GasPrice": "0x2fe86cd1",
      "l1GasUsed": "0x67c"
    },
    {
      "status": "0x1",
      "cumulativeGasUsed": "0x1b6b79",
      "logs": [
        {
          "address": "0x9a25891af92e119eca271295ca55a7a0871fe74c",
          "topics": [
            "0x2f8788117e7eff1d82e926ec794901d17c78024a50270940304540a733656f0d",
            "0x3c11d16cbaffd01df69ce1c404f6340ee057498f5f00246190ea54220576a848",
            "0x000000000000000000000000ae1710c414e95b83c247e01e8f30ee117771599b",
            "0x000000000000000000000000ae1710c414e95b83c247e01e8f30ee117771599b"
          ],
          "data": "0x",
          "blockHash": "0xcd615ea95fdf3cfbb337a68d1e875309f7f5695786532a050f456d19c92d2d96",
          "blockNumber": "0x104850d",
          "transactionHash": "0xa973d01a858d5e81080c657e60575c34e545e1197b786df0acb1af27c6915582",
          "transactionIndex": "0x9",
          "logIndex": "0x5",
          "removed": false
        }
      ],
      "logsBloom": "0x00000004000010000000000000000000000000000000000000000000000000000000000000000000000000000000000000000000000002000000000000000000000000000000000000000000000000000000000000000000000000000000000000000000000000000200200000000004000000000000000000000000000000000000000080000000000000000000000000000000000000000000000000000000000000000000000000000000000000000000000000004000001000000000010000040000000000000000000000000000000000000000000100000000000000000000000000000000000000000000000000000000000000000000000000000000",
      "type": "0x2",
      "transactionHash": "0xa973d01a858d5e81080c657e60575c34e545e1197b786df0acb1af27c6915582",
      "transactionIndex": "0x9",
      "blockHash": "0xcd615ea95fdf3cfbb337a68d1e875309f7f5695786532a050f456d19c92d2d96",
      "blockNumber": "0x104850d",
      "gasUsed": "0xc855",
      "effectiveGasPrice": "0xc682",
      "from": "0xae1710c414e95b83c247e01e8f30ee117771599b",
      "to": "0x9a25891af92e119eca271295ca55a7a0871fe74c",
      "contractAddress": null,
      "l1BaseFeeScalar": "0x7d0",
      "l1BlobBaseFee": "0x1",
      "l1BlobBaseFeeScalar": "0xdbba0",
      "l1Fee": "0x9f2242ea",
      "l1GasPrice": "0x2fe86cd1",
      "l1GasUsed": "0x67c"
    },
    {
      "status": "0x1",
      "cumulativeGasUsed": "0x1c229b",
      "logs": [],
      "logsBloom": "0x00000000000000000000000000000000000000000000000000000000000000000000000000000000000000000000000000000000000000000000000000000000000000000000000000000000000000000000000000000000000000000000000000000000000000000000000000000000000000000000000000000000000000000000000000000000000000000000000000000000000000000000000000000000000000000000000000000000000000000000000000000000000000000000000000000000000000000000000000000000000000000000000000000000000000000000000000000000000000000000000000000000000000000000000000000000",
      "type": "0x2",
      "transactionHash": "0x636ed51a29d6e6df7d52998736c3d1bd8a5a037d39dbf6fd43ba721bf4926498",
      "transactionIndex": "0xa",
      "blockHash": "0xcd615ea95fdf3cfbb337a68d1e875309f7f5695786532a050f456d19c92d2d96",
      "blockNumber": "0x104850d",
      "gasUsed": "0xb722",
      "effectiveGasPrice": "0xc682",
      "from": "0xae1710c414e95b83c247e01e8f30ee117771599b",
      "to": "0x9a25891af92e119eca271295ca55a7a0871fe74c",
      "contractAddress": null,
      "l1BaseFeeScalar": "0x7d0",
      "l1BlobBaseFee": "0x1",
      "l1BlobBaseFeeScalar": "0xdbba0",
      "l1Fee": "0x994e295d",
      "l1GasPrice": "0x2fe86cd1",
      "l1GasUsed": "0x640"
    }
  ],
  "libraries": [],
  "pending": [],
  "returns": {},
  "timestamp": 1743925870,
  "chain": 1301,
  "commit": "fee06cf"
}