{
  "transactions": [
    {
      "hash": "0x3546b2b54bdd6a6a8ef905ceb4517959a1a785feca5df366619335d98cd70423",
      "transactionType": "CALL",
      "contractName": null,
      "contractAddress": "0xb454a9e8c1ff790ee55aae7c74448ddcd75b5725",
      "function": "approve(address,uint256)",
      "arguments": [
        "0xE1053aE1857476f36A3C62580FF9b016E8EE8F6f",
        "1000"
      ],
      "transaction": {
        "from": "0xae1710c414e95b83c247e01e8f30ee117771599b",
        "to": "0xb454a9e8c1ff790ee55aae7c74448ddcd75b5725",
        "gas": "0xa522",
        "value": "0x0",
        "input": "0x095ea7b3000000000000000000000000e1053ae1857476f36a3c62580ff9b016e8ee8f6f00000000000000000000000000000000000000000000000000000000000003e8",
        "nonce": "0x51",
        "chainId": "0x61"
      },
      "additionalContracts": [],
      "isFixedGasLimit": false
    },
    {
      "hash": "0xdfb190f92c25195a6951d93dbdf1227ecd6edfa00747819fac48f18788270675",
      "transactionType": "CALL",
      "contractName": null,
      "contractAddress": "0x84b9b910527ad5c03a9ca831909e21e236ea7b06",
      "function": "approve(address,uint256)",
      "arguments": [
        "0xE1053aE1857476f36A3C62580FF9b016E8EE8F6f",
        "20000000000000000000"
      ],
      "transaction": {
        "from": "0xae1710c414e95b83c247e01e8f30ee117771599b",
        "to": "0x84b9b910527ad5c03a9ca831909e21e236ea7b06",
        "gas": "0xa677",
        "value": "0x0",
        "input": "0x095ea7b3000000000000000000000000e1053ae1857476f36a3c62580ff9b016e8ee8f6f000000000000000000000000000000000000000000000001158e460913d00000",
        "nonce": "0x52",
        "chainId": "0x61"
      },
      "additionalContracts": [],
      "isFixedGasLimit": false
    },
    {
      "hash": "0xe71c5247b81ffa06940f9bed0a9be1d627c5d48c9f7bc630e0b56e6d61a351ab",
      "transactionType": "CALL",
      "contractName": null,
      "contractAddress": "0xe1053ae1857476f36a3c62580ff9b016e8ee8f6f",
      "function": "ccipSend(uint64,(bytes,bytes,(address,uint256)[],address,bytes))",
      "arguments": [
        "16015286601757825753",
        "(0x000000000000000000000000ae1710c414e95b83c247e01e8f30ee117771599b, 0x, [(0xb454A9e8C1Ff790Ee55AAe7C74448DDCd75b5725, 1000)], 0x84b9B910527Ad5C03A9Ca831909E21e236EA7b06, 0x97a657c90000000000000000000000000000000000000000000000000000000000000000)"
      ],
      "transaction": {
        "from": "0xae1710c414e95b83c247e01e8f30ee117771599b",
        "to": "0xe1053ae1857476f36a3c62580ff9b016e8ee8f6f",
        "gas": "0x4a5ed",
        "value": "0x0",
        "input": "0x96f4e9f9000000000000000000000000000000000000000000000000de41ba4fc9d91ad9000000000000000000000000000000000000000000000000000000000000004000000000000000000000000000000000000000000000000000000000000000a000000000000000000000000000000000000000000000000000000000000000e0000000000000000000000000000000000000000000000000000000000000010000000000000000000000000084b9b910527ad5c03a9ca831909e21e236ea7b0600000000000000000000000000000000000000000000000000000000000001600000000000000000000000000000000000000000000000000000000000000020000000000000000000000000ae1710c414e95b83c247e01e8f30ee117771599b00000000000000000000000000000000000000000000000000000000000000000000000000000000000000000000000000000000000000000000000000000001000000000000000000000000b454a9e8c1ff790ee55aae7c74448ddcd75b572500000000000000000000000000000000000000000000000000000000000003e8000000000000000000000000000000000000000000000000000000000000002497a657c9000000000000000000000000000000000000000000000000000000000000000000000000000000000000000000000000000000000000000000000000",
        "nonce": "0x53",
        "chainId": "0x61"
      },
      "additionalContracts": [],
      "isFixedGasLimit": false
    }
  ],
  "receipts": [
    {
      "status": "0x1",
      "cumulativeGasUsed": "0x117e26",
      "logs": [
        {
          "address": "0xb454a9e8c1ff790ee55aae7c74448ddcd75b5725",
          "topics": [
            "0x8c5be1e5ebec7d5bd14f71427d1e84f3dd0314c0f7b2291e5b200ac8c7c3b925",
            "0x000000000000000000000000ae1710c414e95b83c247e01e8f30ee117771599b",
            "0x000000000000000000000000e1053ae1857476f36a3c62580ff9b016e8ee8f6f"
          ],
          "data": "0x00000000000000000000000000000000000000000000000000000000000003e8",
          "blockHash": "0xed770261278e91f33d037c8ce45f90820a65e77111ffc701731b3e8a5b1a1f94",
          "blockNumber": "0x2f75ea8",
          "transactionHash": "0x3546b2b54bdd6a6a8ef905ceb4517959a1a785feca5df366619335d98cd70423",
          "transactionIndex": "0x18",
          "logIndex": "0x14",
          "removed": false
        }
      ],
      "logsBloom": "0x00000000000000000000000000000000000000000000000000000000000000000000000000000000000000000000000000000000000000000000000000200000000000000000000000000000000000000000000000000000000000000000000000100000000000000200200000000000000000010000000000008000000000000000000080002000000000000000000000000000000000000000000000100000020000000000000000000000000000000000000000000000000000000000000000000000000000000000000000000000000800000000000000000000000000000010000000000000000000000000000000000000000000000000000000000000",
      "type": "0x0",
      "transactionHash": "0x3546b2b54bdd6a6a8ef905ceb4517959a1a785feca5df366619335d98cd70423",
      "transactionIndex": "0x18",
      "blockHash": "0xed770261278e91f33d037c8ce45f90820a65e77111ffc701731b3e8a5b1a1f94",
      "blockNumber": "0x2f75ea8",
      "gasUsed": "0x70ea",
      "effectiveGasPrice": "0x1bf08eb00",
      "from": "0xae1710c414e95b83c247e01e8f30ee117771599b",
      "to": "0xb454a9e8c1ff790ee55aae7c74448ddcd75b5725",
      "contractAddress": null
    },
    {
      "status": "0x1",
      "cumulativeGasUsed": "0x1818d1",
      "logs": [
        {
          "address": "0x84b9b910527ad5c03a9ca831909e21e236ea7b06",
          "topics": [
            "0x8c5be1e5ebec7d5bd14f71427d1e84f3dd0314c0f7b2291e5b200ac8c7c3b925",
            "0x000000000000000000000000ae1710c414e95b83c247e01e8f30ee117771599b",
            "0x000000000000000000000000e1053ae1857476f36a3c62580ff9b016e8ee8f6f"
          ],
          "data": "0x000000000000000000000000000000000000000000000001158e460913d00000",
          "blockHash": "0xed770261278e91f33d037c8ce45f90820a65e77111ffc701731b3e8a5b1a1f94",
          "blockNumber": "0x2f75ea8",
          "transactionHash": "0xdfb190f92c25195a6951d93dbdf1227ecd6edfa00747819fac48f18788270675",
          "transactionIndex": "0x22",
          "logIndex": "0x1c",
          "removed": false
        }
      ],
      "logsBloom": "0x00000000000008000000000000000000000000000000000000000000000000000000000000000000000000000000000000000000000000000000000000200000000000000000000000000000000000000000000000000000000000000000000000100000000000000200200000000004000000000000000000000000000000000000000080002000000000000000000000000000000000000000000000000000020000000000000000000000000000000000000000000000000000000000000000000040000000000000000000000000000800000000000000000000000000000010000000000000000000000000000000000000000000000000000000000000",
      "type": "0x0",
      "transactionHash": "0xdfb190f92c25195a6951d93dbdf1227ecd6edfa00747819fac48f18788270675",
      "transactionIndex": "0x22",
      "blockHash": "0xed770261278e91f33d037c8ce45f90820a65e77111ffc701731b3e8a5b1a1f94",
      "blockNumber": "0x2f75ea8",
      "gasUsed": "0x71d3",
      "effectiveGasPrice": "0x1bf08eb00",
      "from": "0xae1710c414e95b83c247e01e8f30ee117771599b",
      "to": "0x84b9b910527ad5c03a9ca831909e21e236ea7b06",
      "contractAddress": null
    },
    {
      "status": "0x1",
      "cumulativeGasUsed": "0x1b764e",
      "logs": [
        {
          "address": "0x84b9b910527ad5c03a9ca831909e21e236ea7b06",
          "topics": [
            "0xddf252ad1be2c89b69c2b068fc378daa952ba7f163c4a11628f55a4df523b3ef",
            "0x000000000000000000000000ae1710c414e95b83c247e01e8f30ee117771599b",
            "0x000000000000000000000000c1c6438d60abe9bf4b1f10460184ce9bd312e328"
          ],
          "data": "0x00000000000000000000000000000000000000000000000000fc48a488c484c8",
          "blockHash": "0xed770261278e91f33d037c8ce45f90820a65e77111ffc701731b3e8a5b1a1f94",
          "blockNumber": "0x2f75ea8",
          "transactionHash": "0xe71c5247b81ffa06940f9bed0a9be1d627c5d48c9f7bc630e0b56e6d61a351ab",
          "transactionIndex": "0x23",
          "logIndex": "0x1d",
          "removed": false
        },
        {
          "address": "0xb454a9e8c1ff790ee55aae7c74448ddcd75b5725",
          "topics": [
            "0xddf252ad1be2c89b69c2b068fc378daa952ba7f163c4a11628f55a4df523b3ef",
            "0x000000000000000000000000ae1710c414e95b83c247e01e8f30ee117771599b",
            "0x00000000000000000000000025f5426b4cece20dcfb01dd979f1bc646d0ecac9"
          ],
          "data": "0x00000000000000000000000000000000000000000000000000000000000003e8",
          "blockHash": "0xed770261278e91f33d037c8ce45f90820a65e77111ffc701731b3e8a5b1a1f94",
          "blockNumber": "0x2f75ea8",
          "transactionHash": "0xe71c5247b81ffa06940f9bed0a9be1d627c5d48c9f7bc630e0b56e6d61a351ab",
          "transactionIndex": "0x23",
          "logIndex": "0x1e",
          "removed": false
        },
        {
          "address": "0xb454a9e8c1ff790ee55aae7c74448ddcd75b5725",
          "topics": [
            "0x8c5be1e5ebec7d5bd14f71427d1e84f3dd0314c0f7b2291e5b200ac8c7c3b925",
            "0x000000000000000000000000ae1710c414e95b83c247e01e8f30ee117771599b",
            "0x000000000000000000000000e1053ae1857476f36a3c62580ff9b016e8ee8f6f"
          ],
          "data": "0x0000000000000000000000000000000000000000000000000000000000000000",
          "blockHash": "0xed770261278e91f33d037c8ce45f90820a65e77111ffc701731b3e8a5b1a1f94",
          "blockNumber": "0x2f75ea8",
          "transactionHash": "0xe71c5247b81ffa06940f9bed0a9be1d627c5d48c9f7bc630e0b56e6d61a351ab",
          "transactionIndex": "0x23",
          "logIndex": "0x1f",
          "removed": false
        },
        {
          "address": "0x25f5426b4cece20dcfb01dd979f1bc646d0ecac9",
          "topics": [
            "0x1871cdf8010e63f2eb8384381a68dfa7416dc571a5517e66e88b2d2d0c0a690a"
          ],
          "data": "0x00000000000000000000000000000000000000000000000000000000000003e8",
          "blockHash": "0xed770261278e91f33d037c8ce45f90820a65e77111ffc701731b3e8a5b1a1f94",
          "blockNumber": "0x2f75ea8",
          "transactionHash": "0xe71c5247b81ffa06940f9bed0a9be1d627c5d48c9f7bc630e0b56e6d61a351ab",
          "transactionIndex": "0x23",
          "logIndex": "0x20",
          "removed": false
        },
        {
          "address": "0xb454a9e8c1ff790ee55aae7c74448ddcd75b5725",
          "topics": [
            "0xddf252ad1be2c89b69c2b068fc378daa952ba7f163c4a11628f55a4df523b3ef",
            "0x00000000000000000000000025f5426b4cece20dcfb01dd979f1bc646d0ecac9",
            "0x0000000000000000000000000000000000000000000000000000000000000000"
          ],
          "data": "0x00000000000000000000000000000000000000000000000000000000000003e8",
          "blockHash": "0xed770261278e91f33d037c8ce45f90820a65e77111ffc701731b3e8a5b1a1f94",
          "blockNumber": "0x2f75ea8",
          "transactionHash": "0xe71c5247b81ffa06940f9bed0a9be1d627c5d48c9f7bc630e0b56e6d61a351ab",
          "transactionIndex": "0x23",
          "logIndex": "0x21",
          "removed": false
        },
        {
          "address": "0x25f5426b4cece20dcfb01dd979f1bc646d0ecac9",
          "topics": [
            "0x696de425f79f4a40bc6d2122ca50507f0efbeabbff86a84871b7196ab8ea8df7",
            "0x000000000000000000000000c1c6438d60abe9bf4b1f10460184ce9bd312e328"
          ],
          "data": "0x00000000000000000000000000000000000000000000000000000000000003e8",
          "blockHash": "0xed770261278e91f33d037c8ce45f90820a65e77111ffc701731b3e8a5b1a1f94",
          "blockNumber": "0x2f75ea8",
          "transactionHash": "0xe71c5247b81ffa06940f9bed0a9be1d627c5d48c9f7bc630e0b56e6d61a351ab",
          "transactionIndex": "0x23",
          "logIndex": "0x22",
          "removed": false
        },
        {
          "address": "0xc1c6438d60abe9bf4b1f10460184ce9bd312e328",
          "topics": [
            "0xd0c3c799bf9e2639de44391e7f524d229b2b55f5b1ea94b2bf7da42f7243dddd"
          ],
          "data": "0x0000000000000000000000000000000000000000000000000000000000000020000000000000000000000000000000000000000000000000b8159170038f96fb000000000000000000000000ae1710c414e95b83c247e01e8f30ee117771599b000000000000000000000000ae1710c414e95b83c247e01e8f30ee117771599b00000000000000000000000000000000000000000000000000000000000001a400000000000000000000000000000000000000000000000000000000000000000000000000000000000000000000000000000000000000000000000000000000000000000000000000000000000000000000000000000000000000000000000100000000000000000000000084b9b910527ad5c03a9ca831909e21e236ea7b0600000000000000000000000000000000000000000000000000fc48a488c484c800000000000000000000000000000000000000000000000000000000000001a000000000000000000000000000000000000000000000000000000000000001c00000000000000000000000000000000000000000000000000000000000000220765c0bc4087f4def7d65ee0d83f6f0c1fbbd435ffd587fa1663a02eb6b27658000000000000000000000000000000000000000000000000000000000000000000000000000000000000000000000000000000000000000000000000000000001000000000000000000000000b454a9e8c1ff790ee55aae7c74448ddcd75b572500000000000000000000000000000000000000000000000000000000000003e80000000000000000000000000000000000000000000000000000000000000001000000000000000000000000000000000000000000000000000000000000002000000000000000000000000000000000000000000000000000000000000001600000000000000000000000000000000000000000000000000000000000000020000000000000000000000000000000000000000000000000000000000000008000000000000000000000000000000000000000000000000000000000000000c000000000000000000000000000000000000000000000000000000000000001000000000000000000000000000000000000000000000000000000000000015f90000000000000000000000000000000000000000000000000000000000000002000000000000000000000000025f5426b4cece20dcfb01dd979f1bc646d0ecac90000000000000000000000000000000000000000000000000000000000000020000000000000000000000000211f5c262159340a350b0f2185645b1f8e538cf300000000000000000000000000000000000000000000000000000000000000200000000000000000000000000000000000000000000000000000000000000012",
          "blockHash": "0xed770261278e91f33d037c8ce45f90820a65e77111ffc701731b3e8a5b1a1f94",
          "blockNumber": "0x2f75ea8",
          "transactionHash": "0xe71c5247b81ffa06940f9bed0a9be1d627c5d48c9f7bc630e0b56e6d61a351ab",
          "transactionIndex": "0x23",
          "logIndex": "0x23",
          "removed": false
        }
      ],
      "logsBloom": "0x00000000000008000000000000000000000000000000000000000000000000000000000000000100002000000000000000000000000000000000000000200000040000000000020000000008000000000000000000000000000000000000000000100000060000000200204000000806040000010000000000008010000000000000000080012000000000000000010000000000000000000000000000100000020000000000000400000000000000000000000000000001000100000000000000000042000000000000000000009000000800000000001000000000000020000010100000100000000000000010000004000000000000000000000000000000",
      "type": "0x0",
      "transactionHash": "0xe71c5247b81ffa06940f9bed0a9be1d627c5d48c9f7bc630e0b56e6d61a351ab",
      "transactionIndex": "0x23",
      "blockHash": "0xed770261278e91f33d037c8ce45f90820a65e77111ffc701731b3e8a5b1a1f94",
      "blockNumber": "0x2f75ea8",
      "gasUsed": "0x35d7d",
      "effectiveGasPrice": "0x1bf08eb00",
      "from": "0xae1710c414e95b83c247e01e8f30ee117771599b",
      "to": "0xe1053ae1857476f36a3c62580ff9b016e8ee8f6f",
      "contractAddress": null
    }
  ],
  "libraries": [],
  "pending": [],
  "returns": {},
  "timestamp": 1744021643,
  "chain": 97,
  "commit": "fee06cf"
}