{
  "transactions": [
    {
      "hash": "0x0fb499f0efaeefeb3aeb4ff7a3e80b7c238a215eb1f818d94646e13c91204696",
      "transactionType": "CALL",
      "contractName": null,
      "contractAddress": "0xab0f46d41771d323faff408073e4199640a7b625",
      "function": "applyChainUpdates(uint64[],(uint64,bytes[],bytes,(bool,uint128,uint128),(bool,uint128,uint128))[])",
      "arguments": [
        "[]",
        "[(16015286601757825753, [0x000000000000000000000000a044045b799478110a32f539e881e681881a30f5], 0x000000000000000000000000211f5c262159340a350b0f2185645b1f8e538cf3, (true, 100000, 167), (true, 100000, 167)), (13264668187771770619, [0x00000000000000000000000025f5426b4cece20dcfb01dd979f1bc646d0ecac9], 0x000000000000000000000000b454a9e8c1ff790ee55aae7c74448ddcd75b5725, (true, 100000, 167), (true, 100000, 167))]"
      ],
      "transaction": {
        "from": "0xae1710c414e95b83c247e01e8f30ee117771599b",
        "to": "0xab0f46d41771d323faff408073e4199640a7b625",
        "gas": "0xd16fd",
        "value": "0x0",
        "input": "0xe8a1da17000000000000000000000000000000000000000000000000000000000000004000000000000000000000000000000000000000000000000000000000000000600000000000000000000000000000000000000000000000000000000000000000000000000000000000000000000000000000000000000000000000000000000200000000000000000000000000000000000000000000000000000000000000400000000000000000000000000000000000000000000000000000000000000220000000000000000000000000000000000000000000000000de41ba4fc9d91ad9000000000000000000000000000000000000000000000000000000000000012000000000000000000000000000000000000000000000000000000000000001a0000000000000000000000000000000000000000000000000000000000000000100000000000000000000000000000000000000000000000000000000000186a000000000000000000000000000000000000000000000000000000000000000a7000000000000000000000000000000000000000000000000000000000000000100000000000000000000000000000000000000000000000000000000000186a000000000000000000000000000000000000000000000000000000000000000a7000000000000000000000000000000000000000000000000000000000000000100000000000000000000000000000000000000000000000000000000000000200000000000000000000000000000000000000000000000000000000000000020000000000000000000000000a044045b799478110a32f539e881e681881a30f50000000000000000000000000000000000000000000000000000000000000020000000000000000000000000211f5c262159340a350b0f2185645b1f8e538cf3000000000000000000000000000000000000000000000000b8159170038f96fb000000000000000000000000000000000000000000000000000000000000012000000000000000000000000000000000000000000000000000000000000001a0000000000000000000000000000000000000000000000000000000000000000100000000000000000000000000000000000000000000000000000000000186a000000000000000000000000000000000000000000000000000000000000000a7000000000000000000000000000000000000000000000000000000000000000100000000000000000000000000000000000000000000000000000000000186a000000000000000000000000000000000000000000000000000000000000000a700000000000000000000000000000000000000000000000000000000000000010000000000000000000000000000000000000000000000000000000000000020000000000000000000000000000000000000000000000000000000000000002000000000000000000000000025f5426b4cece20dcfb01dd979f1bc646d0ecac90000000000000000000000000000000000000000000000000000000000000020000000000000000000000000b454a9e8c1ff790ee55aae7c74448ddcd75b5725",
        "nonce": "0x4d",
        "chainId": "0x66eee"
      },
      "additionalContracts": [],
      "isFixedGasLimit": false
    }
  ],
  "receipts": [
    {
      "status": "0x1",
      "cumulativeGasUsed": "0xb7f8c",
      "logs": [
        {
          "address": "0xab0f46d41771d323faff408073e4199640a7b625",
          "topics": [
            "0x7d628c9a1796743d365ab521a8b2a4686e419b3269919dc9145ea2ce853b54ea",
            "0x000000000000000000000000000000000000000000000000de41ba4fc9d91ad9"
          ],
          "data": "0x00000000000000000000000000000000000000000000000000000000000000200000000000000000000000000000000000000000000000000000000000000020000000000000000000000000a044045b799478110a32f539e881e681881a30f5",
          "blockHash": "0xda251393d185e9d042c3dc364884ce69c8263c8cb3fcbc3f21213e334d7199c7",
          "blockNumber": "0x84ee7aa",
          "transactionHash": "0x0fb499f0efaeefeb3aeb4ff7a3e80b7c238a215eb1f818d94646e13c91204696",
          "transactionIndex": "0x2",
          "logIndex": "0x2",
          "removed": false
        },
        {
          "address": "0xab0f46d41771d323faff408073e4199640a7b625",
          "topics": [
            "0x8d340f17e19058004c20453540862a9c62778504476f6756755cb33bcd6c38c2"
          ],
          "data": "0x000000000000000000000000000000000000000000000000de41ba4fc9d91ad90000000000000000000000000000000000000000000000000000000000000100000000000000000000000000000000000000000000000000000000000000000100000000000000000000000000000000000000000000000000000000000186a000000000000000000000000000000000000000000000000000000000000000a7000000000000000000000000000000000000000000000000000000000000000100000000000000000000000000000000000000000000000000000000000186a000000000000000000000000000000000000000000000000000000000000000a70000000000000000000000000000000000000000000000000000000000000020000000000000000000000000211f5c262159340a350b0f2185645b1f8e538cf3",
          "blockHash": "0xda251393d185e9d042c3dc364884ce69c8263c8cb3fcbc3f21213e334d7199c7",
          "blockNumber": "0x84ee7aa",
          "transactionHash": "0x0fb499f0efaeefeb3aeb4ff7a3e80b7c238a215eb1f818d94646e13c91204696",
          "transactionIndex": "0x2",
          "logIndex": "0x3",
          "removed": false
        },
        {
          "address": "0xab0f46d41771d323faff408073e4199640a7b625",
          "topics": [
            "0x7d628c9a1796743d365ab521a8b2a4686e419b3269919dc9145ea2ce853b54ea",
            "0x000000000000000000000000000000000000000000000000b8159170038f96fb"
          ],
          "data": "0x0000000000000000000000000000000000000000000000000000000000000020000000000000000000000000000000000000000000000000000000000000002000000000000000000000000025f5426b4cece20dcfb01dd979f1bc646d0ecac9",
          "blockHash": "0xda251393d185e9d042c3dc364884ce69c8263c8cb3fcbc3f21213e334d7199c7",
          "blockNumber": "0x84ee7aa",
          "transactionHash": "0x0fb499f0efaeefeb3aeb4ff7a3e80b7c238a215eb1f818d94646e13c91204696",
          "transactionIndex": "0x2",
          "logIndex": "0x4",
          "removed": false
        },
        {
          "address": "0xab0f46d41771d323faff408073e4199640a7b625",
          "topics": [
            "0x8d340f17e19058004c20453540862a9c62778504476f6756755cb33bcd6c38c2"
          ],
          "data": "0x000000000000000000000000000000000000000000000000b8159170038f96fb0000000000000000000000000000000000000000000000000000000000000100000000000000000000000000000000000000000000000000000000000000000100000000000000000000000000000000000000000000000000000000000186a000000000000000000000000000000000000000000000000000000000000000a7000000000000000000000000000000000000000000000000000000000000000100000000000000000000000000000000000000000000000000000000000186a000000000000000000000000000000000000000000000000000000000000000a70000000000000000000000000000000000000000000000000000000000000020000000000000000000000000b454a9e8c1ff790ee55aae7c74448ddcd75b5725",
          "blockHash": "0xda251393d185e9d042c3dc364884ce69c8263c8cb3fcbc3f21213e334d7199c7",
          "blockNumber": "0x84ee7aa",
          "transactionHash": "0x0fb499f0efaeefeb3aeb4ff7a3e80b7c238a215eb1f818d94646e13c91204696",
          "transactionIndex": "0x2",
          "logIndex": "0x5",
          "removed": false
        }
      ],
      "logsBloom": "0x00000000000000400000000000000000000000000000000000000800000000000000000000004000000000010000000000000000000000000004000000000004000000000000000000000000000000004000000000000000000000000000000000000000000000000000000000010000000000000000000000000000000000400000000000000000000000000000000000000020000000000000000200000200000000000000000000000000000000000020000000000000000000000000000000000000000000000000000000000000000000000000000000000000000000000000000000000000000000000000000000000000008000000100000000000000",
      "type": "0x2",
      "transactionHash": "0x0fb499f0efaeefeb3aeb4ff7a3e80b7c238a215eb1f818d94646e13c91204696",
      "transactionIndex": "0x2",
      "blockHash": "0xda251393d185e9d042c3dc364884ce69c8263c8cb3fcbc3f21213e334d7199c7",
      "blockNumber": "0x84ee7aa",
      "gasUsed": "0x9f8dd",
      "effectiveGasPrice": "0x5f5e100",
      "from": "0xae1710c414e95b83c247e01e8f30ee117771599b",
      "to": "0xab0f46d41771d323faff408073e4199640a7b625",
      "contractAddress": null,
      "gasUsedForL1": "0x0",
      "l1BlockNumber": "0x7ae808",
      "timeboosted": false
    }
  ],
  "libraries": [],
  "pending": [],
  "returns": {},
  "timestamp": 1743839792,
  "chain": 421614,
  "commit": "fee06cf"
}