{
  "transactions": [
    {
      "hash": "0x8c46f145965849b5dc4799959a1ddb95242b1f8537c295937adf72a4433f73cb",
      "transactionType": "CALL",
      "contractName": null,
      "contractAddress": "0x3c686ebe9387e0eae133828dc487035faf202229",
      "function": "applyChainUpdates(uint64[],(uint64,bytes[],bytes,(bool,uint128,uint128),(bool,uint128,uint128))[])",
      "arguments": [
        "[]",
        "[(16015286601757825753, [0x00000000000000000000000084e88ba8ab6da648af9eec3ec96d9797e0b6f6d3], 0x0000000000000000000000003dc019c8b47e195d169b0fe2bdbed2548bfcff44, (false, 0, 0), (false, 0, 0)), (13264668187771770619, [0x00000000000000000000000055124f045e07adbd3a3d46806db332651ea358a4], 0x00000000000000000000000006a280f346baf8a62365e5d60c6211d1d96bbc49, (false, 0, 0), (false, 0, 0))]"
      ],
      "transaction": {
        "from": "0xae1710c414e95b83c247e01e8f30ee117771599b",
        "to": "0x3c686ebe9387e0eae133828dc487035faf202229",
        "gas": "0xb7e4a",
        "value": "0x0",
        "input": "0xe8a1da17000000000000000000000000000000000000000000000000000000000000004000000000000000000000000000000000000000000000000000000000000000600000000000000000000000000000000000000000000000000000000000000000000000000000000000000000000000000000000000000000000000000000000200000000000000000000000000000000000000000000000000000000000000400000000000000000000000000000000000000000000000000000000000000220000000000000000000000000000000000000000000000000de41ba4fc9d91ad9000000000000000000000000000000000000000000000000000000000000012000000000000000000000000000000000000000000000000000000000000001a000000000000000000000000000000000000000000000000000000000000000000000000000000000000000000000000000000000000000000000000000000000000000000000000000000000000000000000000000000000000000000000000000000000000000000000000000000000000000000000000000000000000000000000000000000000000000000000000000000000000000000000000000000000000000000000000000000000000000000000000000000000000000000000000000000000000000000000000000000000000000000000000000000000000000010000000000000000000000000000000000000000000000000000000000000020000000000000000000000000000000000000000000000000000000000000002000000000000000000000000084e88ba8ab6da648af9eec3ec96d9797e0b6f6d300000000000000000000000000000000000000000000000000000000000000200000000000000000000000003dc019c8b47e195d169b0fe2bdbed2548bfcff44000000000000000000000000000000000000000000000000b8159170038f96fb000000000000000000000000000000000000000000000000000000000000012000000000000000000000000000000000000000000000000000000000000001a000000000000000000000000000000000000000000000000000000000000000000000000000000000000000000000000000000000000000000000000000000000000000000000000000000000000000000000000000000000000000000000000000000000000000000000000000000000000000000000000000000000000000000000000000000000000000000000000000000000000000000000000000000000000000000000000000000000000000000000000000000000000000000000000000000000000000000000000000000000000000000000000000000000000000010000000000000000000000000000000000000000000000000000000000000020000000000000000000000000000000000000000000000000000000000000002000000000000000000000000055124f045e07adbd3a3d46806db332651ea358a4000000000000000000000000000000000000000000000000000000000000002000000000000000000000000006a280f346baf8a62365e5d60c6211d1d96bbc49",
        "nonce": "0x9b",
        "chainId": "0x66eee"
      },
      "additionalContracts": [],
      "isFixedGasLimit": false
    }
  ],
  "receipts": [
    {
      "status": "0x1",
      "cumulativeGasUsed": "0xe2dd8",
      "logs": [
        {
          "address": "0x3c686ebe9387e0eae133828dc487035faf202229",
          "topics": [
            "0x7d628c9a1796743d365ab521a8b2a4686e419b3269919dc9145ea2ce853b54ea",
            "0x000000000000000000000000000000000000000000000000de41ba4fc9d91ad9"
          ],
          "data": "0x0000000000000000000000000000000000000000000000000000000000000020000000000000000000000000000000000000000000000000000000000000002000000000000000000000000084e88ba8ab6da648af9eec3ec96d9797e0b6f6d3",
          "blockHash": "0x60afeb8306bf9e746995b14c7536903ee97fc096585a3edbcc2774cf1a22a839",
          "blockNumber": "0x874672e",
          "transactionHash": "0x8c46f145965849b5dc4799959a1ddb95242b1f8537c295937adf72a4433f73cb",
          "transactionIndex": "0x3",
          "logIndex": "0x4",
          "removed": false
        },
        {
          "address": "0x3c686ebe9387e0eae133828dc487035faf202229",
          "topics": [
            "0x8d340f17e19058004c20453540862a9c62778504476f6756755cb33bcd6c38c2"
          ],
          "data": "0x000000000000000000000000000000000000000000000000de41ba4fc9d91ad9000000000000000000000000000000000000000000000000000000000000010000000000000000000000000000000000000000000000000000000000000000000000000000000000000000000000000000000000000000000000000000000000000000000000000000000000000000000000000000000000000000000000000000000000000000000000000000000000000000000000000000000000000000000000000000000000000000000000000000000000000000000000000000000000000000000000000000000000000000000000000000000000000000000000000000000000000000000000000000000000000000000000000000000000000000200000000000000000000000003dc019c8b47e195d169b0fe2bdbed2548bfcff44",
          "blockHash": "0x60afeb8306bf9e746995b14c7536903ee97fc096585a3edbcc2774cf1a22a839",
          "blockNumber": "0x874672e",
          "transactionHash": "0x8c46f145965849b5dc4799959a1ddb95242b1f8537c295937adf72a4433f73cb",
          "transactionIndex": "0x3",
          "logIndex": "0x5",
          "removed": false
        },
        {
          "address": "0x3c686ebe9387e0eae133828dc487035faf202229",
          "topics": [
            "0x7d628c9a1796743d365ab521a8b2a4686e419b3269919dc9145ea2ce853b54ea",
            "0x000000000000000000000000000000000000000000000000b8159170038f96fb"
          ],
          "data": "0x0000000000000000000000000000000000000000000000000000000000000020000000000000000000000000000000000000000000000000000000000000002000000000000000000000000055124f045e07adbd3a3d46806db332651ea358a4",
          "blockHash": "0x60afeb8306bf9e746995b14c7536903ee97fc096585a3edbcc2774cf1a22a839",
          "blockNumber": "0x874672e",
          "transactionHash": "0x8c46f145965849b5dc4799959a1ddb95242b1f8537c295937adf72a4433f73cb",
          "transactionIndex": "0x3",
          "logIndex": "0x6",
          "removed": false
        },
        {
          "address": "0x3c686ebe9387e0eae133828dc487035faf202229",
          "topics": [
            "0x8d340f17e19058004c20453540862a9c62778504476f6756755cb33bcd6c38c2"
          ],
          "data": "0x000000000000000000000000000000000000000000000000b8159170038f96fb0000000000000000000000000000000000000000000000000000000000000100000000000000000000000000000000000000000000000000000000000000000000000000000000000000000000000000000000000000000000000000000000000000000000000000000000000000000000000000000000000000000000000000000000000000000000000000000000000000000000000000000000000000000000000000000000000000000000000000000000000000000000000000000000000000000000000000000000000000000000000000000000000000000000000000000000000000000000000000000000000000000000000000000000000000002000000000000000000000000006a280f346baf8a62365e5d60c6211d1d96bbc49",
          "blockHash": "0x60afeb8306bf9e746995b14c7536903ee97fc096585a3edbcc2774cf1a22a839",
          "blockNumber": "0x874672e",
          "transactionHash": "0x8c46f145965849b5dc4799959a1ddb95242b1f8537c295937adf72a4433f73cb",
          "transactionIndex": "0x3",
          "logIndex": "0x7",
          "removed": false
        }
      ],
      "logsBloom": "0x00000000000000400000000000000000000000000000000000000000000000000000000004004000000000000000000000000000000000000004000000000004000000000000000000000000000000004000000000000000000000000000000000000000000000000000000000010000000000000000000000000000000000400000000000000000000000000000000000000020000000000000000200000000000000000000000000000000000000000020000000000000000000000000000000000000000000000000000000000000000000000000000000000000000000000000000000000000000000000000000000000000008000080100000000000004",
      "type": "0x2",
      "transactionHash": "0x8c46f145965849b5dc4799959a1ddb95242b1f8537c295937adf72a4433f73cb",
      "transactionIndex": "0x3",
      "blockHash": "0x60afeb8306bf9e746995b14c7536903ee97fc096585a3edbcc2774cf1a22a839",
      "blockNumber": "0x874672e",
      "gasUsed": "0x8c0f5",
      "effectiveGasPrice": "0x5f5e100",
      "from": "0xae1710c414e95b83c247e01e8f30ee117771599b",
      "to": "0x3c686ebe9387e0eae133828dc487035faf202229",
      "contractAddress": null,
      "gasUsedForL1": "0x0",
      "l1BlockNumber": "0x7ba5e4",
      "timeboosted": false
    }
  ],
  "libraries": [],
  "pending": [],
  "returns": {},
  "timestamp": 1744454848,
  "chain": 421614,
  "commit": "c0988c0"
}