{
  "transactions": [
    {
      "hash": "0x034d0853da42dfee5f0418733e7c38262a8f0ee481271c031864433ae2d844b6",
      "transactionType": "CALL",
      "contractName": null,
      "contractAddress": "0x119f8b2ed721256378811d170317289dddb0692c",
      "function": "applyChainUpdates(uint64[],(uint64,bytes[],bytes,(bool,uint128,uint128),(bool,uint128,uint128))[])",
      "arguments": [
        "[]",
        "[(16015286601757825753, [0x00000000000000000000000072145021ad0d3fa57493b9e9fb6f497baeb3f26b], 0x000000000000000000000000555a860bd3213f7a865cbaa299a1ec6c89fb1e4c, (false, 0, 0), (false, 0, 0)), (13264668187771770619, [0x0000000000000000000000007f7a6190fe17135e6d949cab43fb0e5c2c39e5f9], 0x000000000000000000000000c1757d836ad469066a5f7d8ec710b5f2c3930a17, (false, 0, 0), (false, 0, 0))]"
      ],
      "transaction": {
        "from": "0xae1710c414e95b83c247e01e8f30ee117771599b",
        "to": "0x119f8b2ed721256378811d170317289dddb0692c",
        "gas": "0xb7e4a",
        "value": "0x0",
        "input": "0xe8a1da17000000000000000000000000000000000000000000000000000000000000004000000000000000000000000000000000000000000000000000000000000000600000000000000000000000000000000000000000000000000000000000000000000000000000000000000000000000000000000000000000000000000000000200000000000000000000000000000000000000000000000000000000000000400000000000000000000000000000000000000000000000000000000000000220000000000000000000000000000000000000000000000000de41ba4fc9d91ad9000000000000000000000000000000000000000000000000000000000000012000000000000000000000000000000000000000000000000000000000000001a000000000000000000000000000000000000000000000000000000000000000000000000000000000000000000000000000000000000000000000000000000000000000000000000000000000000000000000000000000000000000000000000000000000000000000000000000000000000000000000000000000000000000000000000000000000000000000000000000000000000000000000000000000000000000000000000000000000000000000000000000000000000000000000000000000000000000000000000000000000000000000000000000000000000000010000000000000000000000000000000000000000000000000000000000000020000000000000000000000000000000000000000000000000000000000000002000000000000000000000000072145021ad0d3fa57493b9e9fb6f497baeb3f26b0000000000000000000000000000000000000000000000000000000000000020000000000000000000000000555a860bd3213f7a865cbaa299a1ec6c89fb1e4c000000000000000000000000000000000000000000000000b8159170038f96fb000000000000000000000000000000000000000000000000000000000000012000000000000000000000000000000000000000000000000000000000000001a00000000000000000000000000000000000000000000000000000000000000000000000000000000000000000000000000000000000000000000000000000000000000000000000000000000000000000000000000000000000000000000000000000000000000000000000000000000000000000000000000000000000000000000000000000000000000000000000000000000000000000000000000000000000000000000000000000000000000000000000000000000000000000000000000000000000000000000000000000000000000000000000000000000000000001000000000000000000000000000000000000000000000000000000000000002000000000000000000000000000000000000000000000000000000000000000200000000000000000000000007f7a6190fe17135e6d949cab43fb0e5c2c39e5f90000000000000000000000000000000000000000000000000000000000000020000000000000000000000000c1757d836ad469066a5f7d8ec710b5f2c3930a17",
        "nonce": "0x8d",
        "chainId": "0x66eee"
      },
      "additionalContracts": [],
      "isFixedGasLimit": false
    }
  ],
  "receipts": [
    {
      "status": "0x1",
      "cumulativeGasUsed": "0x8c0f5",
      "logs": [
        {
          "address": "0x119f8b2ed721256378811d170317289dddb0692c",
          "topics": [
            "0x7d628c9a1796743d365ab521a8b2a4686e419b3269919dc9145ea2ce853b54ea",
            "0x000000000000000000000000000000000000000000000000de41ba4fc9d91ad9"
          ],
          "data": "0x0000000000000000000000000000000000000000000000000000000000000020000000000000000000000000000000000000000000000000000000000000002000000000000000000000000072145021ad0d3fa57493b9e9fb6f497baeb3f26b",
          "blockHash": "0x78728c2703d354859757e6aadbfe120eb4bb6ba2ba1652b1a5fcf014a7e44a10",
          "blockNumber": "0x8669e26",
          "transactionHash": "0x034d0853da42dfee5f0418733e7c38262a8f0ee481271c031864433ae2d844b6",
          "transactionIndex": "0x1",
          "logIndex": "0x0",
          "removed": false
        },
        {
          "address": "0x119f8b2ed721256378811d170317289dddb0692c",
          "topics": [
            "0x8d340f17e19058004c20453540862a9c62778504476f6756755cb33bcd6c38c2"
          ],
          "data": "0x000000000000000000000000000000000000000000000000de41ba4fc9d91ad900000000000000000000000000000000000000000000000000000000000001000000000000000000000000000000000000000000000000000000000000000000000000000000000000000000000000000000000000000000000000000000000000000000000000000000000000000000000000000000000000000000000000000000000000000000000000000000000000000000000000000000000000000000000000000000000000000000000000000000000000000000000000000000000000000000000000000000000000000000000000000000000000000000000000000000000000000000000000000000000000000000000000000000000000000020000000000000000000000000555a860bd3213f7a865cbaa299a1ec6c89fb1e4c",
          "blockHash": "0x78728c2703d354859757e6aadbfe120eb4bb6ba2ba1652b1a5fcf014a7e44a10",
          "blockNumber": "0x8669e26",
          "transactionHash": "0x034d0853da42dfee5f0418733e7c38262a8f0ee481271c031864433ae2d844b6",
          "transactionIndex": "0x1",
          "logIndex": "0x1",
          "removed": false
        },
        {
          "address": "0x119f8b2ed721256378811d170317289dddb0692c",
          "topics": [
            "0x7d628c9a1796743d365ab521a8b2a4686e419b3269919dc9145ea2ce853b54ea",
            "0x000000000000000000000000000000000000000000000000b8159170038f96fb"
          ],
          "data": "0x000000000000000000000000000000000000000000000000000000000000002000000000000000000000000000000000000000000000000000000000000000200000000000000000000000007f7a6190fe17135e6d949cab43fb0e5c2c39e5f9",
          "blockHash": "0x78728c2703d354859757e6aadbfe120eb4bb6ba2ba1652b1a5fcf014a7e44a10",
          "blockNumber": "0x8669e26",
          "transactionHash": "0x034d0853da42dfee5f0418733e7c38262a8f0ee481271c031864433ae2d844b6",
          "transactionIndex": "0x1",
          "logIndex": "0x2",
          "removed": false
        },
        {
          "address": "0x119f8b2ed721256378811d170317289dddb0692c",
          "topics": [
            "0x8d340f17e19058004c20453540862a9c62778504476f6756755cb33bcd6c38c2"
          ],
          "data": "0x000000000000000000000000000000000000000000000000b8159170038f96fb00000000000000000000000000000000000000000000000000000000000001000000000000000000000000000000000000000000000000000000000000000000000000000000000000000000000000000000000000000000000000000000000000000000000000000000000000000000000000000000000000000000000000000000000000000000000000000000000000000000000000000000000000000000000000000000000000000000000000000000000000000000000000000000000000000000000000000000000000000000000000000000000000000000000000000000000000000000000000000000000000000000000000000000000000000020000000000000000000000000c1757d836ad469066a5f7d8ec710b5f2c3930a17",
          "blockHash": "0x78728c2703d354859757e6aadbfe120eb4bb6ba2ba1652b1a5fcf014a7e44a10",
          "blockNumber": "0x8669e26",
          "transactionHash": "0x034d0853da42dfee5f0418733e7c38262a8f0ee481271c031864433ae2d844b6",
          "transactionIndex": "0x1",
          "logIndex": "0x3",
          "removed": false
        }
      ],
      "logsBloom": "0x00000000000000400000000000000000000000000000000000000000000000000000000000004000000020000000000000000000000000000004000000000004000000000000000000000000000000004000000000000000000000000000000000000000000010000000000000010000000000000000000000000000000000400000000000000000000000000000000000000020000000000000000200000000000000000000000000000000000000000020000000000000000000080000000000000000000000000000000000000000000000000000000000000000000000000000000000000000000000000000000000000000008000000100000000000000",
      "type": "0x2",
      "transactionHash": "0x034d0853da42dfee5f0418733e7c38262a8f0ee481271c031864433ae2d844b6",
      "transactionIndex": "0x1",
      "blockHash": "0x78728c2703d354859757e6aadbfe120eb4bb6ba2ba1652b1a5fcf014a7e44a10",
      "blockNumber": "0x8669e26",
      "gasUsed": "0x8c0f5",
      "effectiveGasPrice": "0x5f5e100",
      "from": "0xae1710c414e95b83c247e01e8f30ee117771599b",
      "to": "0x119f8b2ed721256378811d170317289dddb0692c",
      "contractAddress": null,
      "gasUsedForL1": "0x0",
      "l1BlockNumber": "0x7b6287",
      "timeboosted": false
    }
  ],
  "libraries": [],
  "pending": [],
  "returns": {},
  "timestamp": 1744229097,
  "chain": 421614,
  "commit": "c0988c0"
}