{
  "transactions": [
    {
      "hash": "0x9182e28902200166fc60c53ebd8d8330ff147ec5cc50eff2ec3f8b4916501ab5",
      "transactionType": "CALL",
      "contractName": null,
      "contractAddress": "0xd14e942ed5faa4a760f70d1ab43ecb836c827012",
      "function": "applyChainUpdates(uint64[],(uint64,bytes[],bytes,(bool,uint128,uint128),(bool,uint128,uint128))[])",
      "arguments": [
        "[]",
        "[(16015286601757825753, [0x0000000000000000000000007f82767cb665661c3040ec19cc0a963482d969f6], 0x000000000000000000000000b8a39e17c49777407ab9db7e663bb02324e5c642, (false, 0, 0), (false, 0, 0)), (13264668187771770619, [0x000000000000000000000000f628798084146ca57d9ce0f298d1b73cb2334744], 0x0000000000000000000000002a16a94262cb2243266a13af07c4f69bf5087786, (false, 0, 0), (false, 0, 0))]"
      ],
      "transaction": {
        "from": "0xae1710c414e95b83c247e01e8f30ee117771599b",
        "to": "0xd14e942ed5faa4a760f70d1ab43ecb836c827012",
        "gas": "0xb7e4a",
        "value": "0x0",
        "input": "0xe8a1da17000000000000000000000000000000000000000000000000000000000000004000000000000000000000000000000000000000000000000000000000000000600000000000000000000000000000000000000000000000000000000000000000000000000000000000000000000000000000000000000000000000000000000200000000000000000000000000000000000000000000000000000000000000400000000000000000000000000000000000000000000000000000000000000220000000000000000000000000000000000000000000000000de41ba4fc9d91ad9000000000000000000000000000000000000000000000000000000000000012000000000000000000000000000000000000000000000000000000000000001a00000000000000000000000000000000000000000000000000000000000000000000000000000000000000000000000000000000000000000000000000000000000000000000000000000000000000000000000000000000000000000000000000000000000000000000000000000000000000000000000000000000000000000000000000000000000000000000000000000000000000000000000000000000000000000000000000000000000000000000000000000000000000000000000000000000000000000000000000000000000000000000000000000000000000001000000000000000000000000000000000000000000000000000000000000002000000000000000000000000000000000000000000000000000000000000000200000000000000000000000007f82767cb665661c3040ec19cc0a963482d969f60000000000000000000000000000000000000000000000000000000000000020000000000000000000000000b8a39e17c49777407ab9db7e663bb02324e5c642000000000000000000000000000000000000000000000000b8159170038f96fb000000000000000000000000000000000000000000000000000000000000012000000000000000000000000000000000000000000000000000000000000001a0000000000000000000000000000000000000000000000000000000000000000000000000000000000000000000000000000000000000000000000000000000000000000000000000000000000000000000000000000000000000000000000000000000000000000000000000000000000000000000000000000000000000000000000000000000000000000000000000000000000000000000000000000000000000000000000000000000000000000000000000000000000000000000000000000000000000000000000000000000000000000000000000000000000000000100000000000000000000000000000000000000000000000000000000000000200000000000000000000000000000000000000000000000000000000000000020000000000000000000000000f628798084146ca57d9ce0f298d1b73cb233474400000000000000000000000000000000000000000000000000000000000000200000000000000000000000002a16a94262cb2243266a13af07c4f69bf5087786",
        "nonce": "0x7b",
        "chainId": "0x66eee"
      },
      "additionalContracts": [],
      "isFixedGasLimit": false
    }
  ],
  "receipts": [
    {
      "status": "0x1",
      "cumulativeGasUsed": "0x286d10",
      "logs": [
        {
          "address": "0xd14e942ed5faa4a760f70d1ab43ecb836c827012",
          "topics": [
            "0x7d628c9a1796743d365ab521a8b2a4686e419b3269919dc9145ea2ce853b54ea",
            "0x000000000000000000000000000000000000000000000000de41ba4fc9d91ad9"
          ],
          "data": "0x000000000000000000000000000000000000000000000000000000000000002000000000000000000000000000000000000000000000000000000000000000200000000000000000000000007f82767cb665661c3040ec19cc0a963482d969f6",
          "blockHash": "0x22357019ee8e08eae3fa4ca38adeae1c832b8d583e0014ab3060bd0fcda05a03",
          "blockNumber": "0x85a4ea8",
          "transactionHash": "0x9182e28902200166fc60c53ebd8d8330ff147ec5cc50eff2ec3f8b4916501ab5",
          "transactionIndex": "0x2",
          "logIndex": "0x2",
          "removed": false
        },
        {
          "address": "0xd14e942ed5faa4a760f70d1ab43ecb836c827012",
          "topics": [
            "0x8d340f17e19058004c20453540862a9c62778504476f6756755cb33bcd6c38c2"
          ],
          "data": "0x000000000000000000000000000000000000000000000000de41ba4fc9d91ad900000000000000000000000000000000000000000000000000000000000001000000000000000000000000000000000000000000000000000000000000000000000000000000000000000000000000000000000000000000000000000000000000000000000000000000000000000000000000000000000000000000000000000000000000000000000000000000000000000000000000000000000000000000000000000000000000000000000000000000000000000000000000000000000000000000000000000000000000000000000000000000000000000000000000000000000000000000000000000000000000000000000000000000000000000020000000000000000000000000b8a39e17c49777407ab9db7e663bb02324e5c642",
          "blockHash": "0x22357019ee8e08eae3fa4ca38adeae1c832b8d583e0014ab3060bd0fcda05a03",
          "blockNumber": "0x85a4ea8",
          "transactionHash": "0x9182e28902200166fc60c53ebd8d8330ff147ec5cc50eff2ec3f8b4916501ab5",
          "transactionIndex": "0x2",
          "logIndex": "0x3",
          "removed": false
        },
        {
          "address": "0xd14e942ed5faa4a760f70d1ab43ecb836c827012",
          "topics": [
            "0x7d628c9a1796743d365ab521a8b2a4686e419b3269919dc9145ea2ce853b54ea",
            "0x000000000000000000000000000000000000000000000000b8159170038f96fb"
          ],
          "data": "0x00000000000000000000000000000000000000000000000000000000000000200000000000000000000000000000000000000000000000000000000000000020000000000000000000000000f628798084146ca57d9ce0f298d1b73cb2334744",
          "blockHash": "0x22357019ee8e08eae3fa4ca38adeae1c832b8d583e0014ab3060bd0fcda05a03",
          "blockNumber": "0x85a4ea8",
          "transactionHash": "0x9182e28902200166fc60c53ebd8d8330ff147ec5cc50eff2ec3f8b4916501ab5",
          "transactionIndex": "0x2",
          "logIndex": "0x4",
          "removed": false
        },
        {
          "address": "0xd14e942ed5faa4a760f70d1ab43ecb836c827012",
          "topics": [
            "0x8d340f17e19058004c20453540862a9c62778504476f6756755cb33bcd6c38c2"
          ],
          "data": "0x000000000000000000000000000000000000000000000000b8159170038f96fb000000000000000000000000000000000000000000000000000000000000010000000000000000000000000000000000000000000000000000000000000000000000000000000000000000000000000000000000000000000000000000000000000000000000000000000000000000000000000000000000000000000000000000000000000000000000000000000000000000000000000000000000000000000000000000000000000000000000000000000000000000000000000000000000000000000000000000000000000000000000000000000000000000000000000000000000000000000000000000000000000000000000000000000000000000200000000000000000000000002a16a94262cb2243266a13af07c4f69bf5087786",
          "blockHash": "0x22357019ee8e08eae3fa4ca38adeae1c832b8d583e0014ab3060bd0fcda05a03",
          "blockNumber": "0x85a4ea8",
          "transactionHash": "0x9182e28902200166fc60c53ebd8d8330ff147ec5cc50eff2ec3f8b4916501ab5",
          "transactionIndex": "0x2",
          "logIndex": "0x5",
          "removed": false
        }
      ],
      "logsBloom": "0x00000000000000400000000000000000000000000000000000000000000000000000000000004000000000000000000000000000000000000004000000000004000000000000000000000000000000004000000000000000000000000000000000000000000000000000000000010000000000000000000000000000000000400000000000000000000000000000000000000030000000000000000200000000000000000001000000000000000000200020000000000000000000000000000000000000000000000000000000000000000000000000000000000000000000000000000000000000000000000000000000000000008000000100000000000000",
      "type": "0x2",
      "transactionHash": "0x9182e28902200166fc60c53ebd8d8330ff147ec5cc50eff2ec3f8b4916501ab5",
      "transactionIndex": "0x2",
      "blockHash": "0x22357019ee8e08eae3fa4ca38adeae1c832b8d583e0014ab3060bd0fcda05a03",
      "blockNumber": "0x85a4ea8",
      "gasUsed": "0x8c0f5",
      "effectiveGasPrice": "0x5f5e100",
      "from": "0xae1710c414e95b83c247e01e8f30ee117771599b",
      "to": "0xd14e942ed5faa4a760f70d1ab43ecb836c827012",
      "contractAddress": null,
      "gasUsedForL1": "0x0",
      "l1BlockNumber": "0x7b23a3",
      "timeboosted": false
    }
  ],
  "libraries": [],
  "pending": [],
  "returns": {},
  "timestamp": 1744028230,
  "chain": 421614,
  "commit": "fee06cf"
}