{
  "transactions": [
    {
      "hash": "0x57a35bc89e18645f89c59100f25424774151d3b9be9d4346f429991640285226",
      "transactionType": "CALL",
      "contractName": null,
      "contractAddress": "0xc17fe900e901bc36ef21c9f757b8427ba35ade19",
      "function": "applyChainUpdates(uint64[],(uint64,bytes[],bytes,(bool,uint128,uint128),(bool,uint128,uint128))[])",
      "arguments": [
        "[]",
        "[(16015286601757825753, [0x0000000000000000000000002be82989f093dac5e9c27857d31201e744bd7b23], 0x000000000000000000000000c264805f7ef486471c5d487139928f23e851bc0a, (true, 100000, 167), (true, 100000, 167))]"
      ],
      "transaction": {
        "from": "0xae1710c414e95b83c247e01e8f30ee117771599b",
        "to": "0xc17fe900e901bc36ef21c9f757b8427ba35ade19",
        "gas": "0x7069f",
        "value": "0x0",
        "input": "0xe8a1da1700000000000000000000000000000000000000000000000000000000000000400000000000000000000000000000000000000000000000000000000000000060000000000000000000000000000000000000000000000000000000000000000000000000000000000000000000000000000000000000000000000000000000010000000000000000000000000000000000000000000000000000000000000020000000000000000000000000000000000000000000000000de41ba4fc9d91ad9000000000000000000000000000000000000000000000000000000000000012000000000000000000000000000000000000000000000000000000000000001a0000000000000000000000000000000000000000000000000000000000000000100000000000000000000000000000000000000000000000000000000000186a000000000000000000000000000000000000000000000000000000000000000a7000000000000000000000000000000000000000000000000000000000000000100000000000000000000000000000000000000000000000000000000000186a000000000000000000000000000000000000000000000000000000000000000a70000000000000000000000000000000000000000000000000000000000000001000000000000000000000000000000000000000000000000000000000000002000000000000000000000000000000000000000000000000000000000000000200000000000000000000000002be82989f093dac5e9c27857d31201e744bd7b230000000000000000000000000000000000000000000000000000000000000020000000000000000000000000c264805f7ef486471c5d487139928f23e851bc0a",
        "nonce": "0x41",
        "chainId": "0x66eee"
      },
      "additionalContracts": [],
      "isFixedGasLimit": false
    }
  ],
  "receipts": [
    {
      "status": "0x1",
      "cumulativeGasUsed": "0x55823",
      "logs": [
        {
          "address": "0xc17fe900e901bc36ef21c9f757b8427ba35ade19",
          "topics": [
            "0x7d628c9a1796743d365ab521a8b2a4686e419b3269919dc9145ea2ce853b54ea",
            "0x000000000000000000000000000000000000000000000000de41ba4fc9d91ad9"
          ],
          "data": "0x000000000000000000000000000000000000000000000000000000000000002000000000000000000000000000000000000000000000000000000000000000200000000000000000000000002be82989f093dac5e9c27857d31201e744bd7b23",
          "blockHash": "0xa6363c766310aae0a4978d71e7f65fa266ea6050cd23cec748285f5fdc72fde2",
          "blockNumber": "0x8282bc7",
          "transactionHash": "0x57a35bc89e18645f89c59100f25424774151d3b9be9d4346f429991640285226",
          "transactionIndex": "0x1",
          "logIndex": "0x0",
          "removed": false
        },
        {
          "address": "0xc17fe900e901bc36ef21c9f757b8427ba35ade19",
          "topics": [
            "0x8d340f17e19058004c20453540862a9c62778504476f6756755cb33bcd6c38c2"
          ],
          "data": "0x000000000000000000000000000000000000000000000000de41ba4fc9d91ad90000000000000000000000000000000000000000000000000000000000000100000000000000000000000000000000000000000000000000000000000000000100000000000000000000000000000000000000000000000000000000000186a000000000000000000000000000000000000000000000000000000000000000a7000000000000000000000000000000000000000000000000000000000000000100000000000000000000000000000000000000000000000000000000000186a000000000000000000000000000000000000000000000000000000000000000a70000000000000000000000000000000000000000000000000000000000000020000000000000000000000000c264805f7ef486471c5d487139928f23e851bc0a",
          "blockHash": "0xa6363c766310aae0a4978d71e7f65fa266ea6050cd23cec748285f5fdc72fde2",
          "blockNumber": "0x8282bc7",
          "transactionHash": "0x57a35bc89e18645f89c59100f25424774151d3b9be9d4346f429991640285226",
          "transactionIndex": "0x1",
          "logIndex": "0x1",
          "removed": false
        }
      ],
      "logsBloom": "0x00000000000000400000000000000000000000000000000000000000000000000000000000004000000000000000000000000000000000000004000000000004000000000000000000000000000000000000000000000000000000000000000000000000000000000000000000010000000000000000000000000000000000400000000000000000002000000000000000000020000000000000000000000000000000000000000000000000000000000000000000000000000080000000000000000000000000000000000000000000000000000000040000000000000000000000000000000000000000000000000000000000008000000100000000000000",
      "type": "0x2",
      "transactionHash": "0x57a35bc89e18645f89c59100f25424774151d3b9be9d4346f429991640285226",
      "transactionIndex": "0x1",
      "blockHash": "0xa6363c766310aae0a4978d71e7f65fa266ea6050cd23cec748285f5fdc72fde2",
      "blockNumber": "0x8282bc7",
      "gasUsed": "0x55823",
      "effectiveGasPrice": "0x5f5e100",
      "from": "0xae1710c414e95b83c247e01e8f30ee117771599b",
      "to": "0xc17fe900e901bc36ef21c9f757b8427ba35ade19",
      "contractAddress": null,
      "gasUsedForL1": "0x0",
      "l1BlockNumber": "0x7a19b5",
      "timeboosted": false
    }
  ],
  "libraries": [],
  "pending": [],
  "returns": {},
  "timestamp": 1743193658,
  "chain": 421614,
  "commit": "fee06cf"
}