{
  "transactions": [
    {
      "hash": "0x59b2056b825e37d04fd69dd7e38a892a6010fdfff295a491413f411f7f80308c",
      "transactionType": "CALL",
      "contractName": null,
      "contractAddress": "0xd14e942ed5faa4a760f70d1ab43ecb836c827012",
      "function": "applyChainUpdates(uint64[],(uint64,bytes[],bytes,(bool,uint128,uint128),(bool,uint128,uint128))[])",
      "arguments": [
        "[]",
        "[]"
      ],
      "transaction": {
        "from": "0xae1710c414e95b83c247e01e8f30ee117771599b",
        "to": "0xd14e942ed5faa4a760f70d1ab43ecb836c827012",
        "gas": "0x80c8",
        "value": "0x0",
        "input": "0xe8a1da170000000000000000000000000000000000000000000000000000000000000040000000000000000000000000000000000000000000000000000000000000006000000000000000000000000000000000000000000000000000000000000000000000000000000000000000000000000000000000000000000000000000000000",
        "nonce": "0x80",
        "chainId": "0x66eee"
      },
      "additionalContracts": [],
      "isFixedGasLimit": false
    }
  ],
  "receipts": [
    {
      "status": "0x1",
      "cumulativeGasUsed": "0x4afb3",
      "logs": [],
      "logsBloom": "0x00000000000000000000000000000000000000000000000000000000000000000000000000000000000000000000000000000000000000000000000000000000000000000000000000000000000000000000000000000000000000000000000000000000000000000000000000000000000000000000000000000000000000000000000000000000000000000000000000000000000000000000000000000000000000000000000000000000000000000000000000000000000000000000000000000000000000000000000000000000000000000000000000000000000000000000000000000000000000000000000000000000000000000000000000000000",
      "type": "0x2",
      "transactionHash": "0x59b2056b825e37d04fd69dd7e38a892a6010fdfff295a491413f411f7f80308c",
      "transactionIndex": "0x6",
      "blockHash": "0xcf9f77ce8d5318f5426e4e2e70bbc39281c57647c2573ad7882397501ef0df1a",
      "blockNumber": "0x8668f38",
      "gasUsed": "0x61bc",
      "effectiveGasPrice": "0x5f5e100",
      "from": "0xae1710c414e95b83c247e01e8f30ee117771599b",
      "to": "0xd14e942ed5faa4a760f70d1ab43ecb836c827012",
      "contractAddress": null,
      "gasUsedForL1": "0x0",
      "l1BlockNumber": "0x7b623f",
      "timeboosted": false
    }
  ],
  "libraries": [],
  "pending": [],
  "returns": {},
  "timestamp": 1744228138,
  "chain": 421614,
  "commit": "c0988c0"
}