{
  "transactions": [
    {
      "hash": "0x53dae81a5d50de3e2e519c97b84a76aa958ecb6f5d5cab9cf5e3d8c0185d2882",
      "transactionType": "CALL",
      "contractName": null,
      "contractAddress": "0x5b27e1be18523fcf28b2dfdc73cbca267faf5859",
      "function": "applyChainUpdates(uint64[],(uint64,bytes[],bytes,(bool,uint128,uint128),(bool,uint128,uint128))[])",
      "arguments": [
        "[]",
        "[(16015286601757825753, [0x000000000000000000000000c459b032cfad9988e0ef174f7872a2d68f6879be], 0x00000000000000000000000044bbe76ba377526ff6f5fa3e2f06455a7ea2f4a0, (false, 0, 0), (false, 0, 0)), (13264668187771770619, [0x0000000000000000000000005adad530492e7b0228b31e4935fb6c3227a46412], 0x0000000000000000000000005436fdbe11cca6c70f80c1f160e636859b4d7493, (false, 0, 0), (false, 0, 0))]"
      ],
      "transaction": {
        "from": "0xae1710c414e95b83c247e01e8f30ee117771599b",
        "to": "0x5b27e1be18523fcf28b2dfdc73cbca267faf5859",
        "gas": "0xb7e4a",
        "value": "0x0",
        "input": "0xe8a1da17000000000000000000000000000000000000000000000000000000000000004000000000000000000000000000000000000000000000000000000000000000600000000000000000000000000000000000000000000000000000000000000000000000000000000000000000000000000000000000000000000000000000000200000000000000000000000000000000000000000000000000000000000000400000000000000000000000000000000000000000000000000000000000000220000000000000000000000000000000000000000000000000de41ba4fc9d91ad9000000000000000000000000000000000000000000000000000000000000012000000000000000000000000000000000000000000000000000000000000001a0000000000000000000000000000000000000000000000000000000000000000000000000000000000000000000000000000000000000000000000000000000000000000000000000000000000000000000000000000000000000000000000000000000000000000000000000000000000000000000000000000000000000000000000000000000000000000000000000000000000000000000000000000000000000000000000000000000000000000000000000000000000000000000000000000000000000000000000000000000000000000000000000000000000000000100000000000000000000000000000000000000000000000000000000000000200000000000000000000000000000000000000000000000000000000000000020000000000000000000000000c459b032cfad9988e0ef174f7872a2d68f6879be000000000000000000000000000000000000000000000000000000000000002000000000000000000000000044bbe76ba377526ff6f5fa3e2f06455a7ea2f4a0000000000000000000000000000000000000000000000000b8159170038f96fb000000000000000000000000000000000000000000000000000000000000012000000000000000000000000000000000000000000000000000000000000001a00000000000000000000000000000000000000000000000000000000000000000000000000000000000000000000000000000000000000000000000000000000000000000000000000000000000000000000000000000000000000000000000000000000000000000000000000000000000000000000000000000000000000000000000000000000000000000000000000000000000000000000000000000000000000000000000000000000000000000000000000000000000000000000000000000000000000000000000000000000000000000000000000000000000000001000000000000000000000000000000000000000000000000000000000000002000000000000000000000000000000000000000000000000000000000000000200000000000000000000000005adad530492e7b0228b31e4935fb6c3227a4641200000000000000000000000000000000000000000000000000000000000000200000000000000000000000005436fdbe11cca6c70f80c1f160e636859b4d7493",
        "nonce": "0xb4",
        "chainId": "0x66eee"
      },
      "additionalContracts": [],
      "isFixedGasLimit": false
    }
  ],
  "receipts": [
    {
      "status": "0x1",
      "cumulativeGasUsed": "0xf09c4",
      "logs": [
        {
          "address": "0x5b27e1be18523fcf28b2dfdc73cbca267faf5859",
          "topics": [
            "0x7d628c9a1796743d365ab521a8b2a4686e419b3269919dc9145ea2ce853b54ea",
            "0x000000000000000000000000000000000000000000000000de41ba4fc9d91ad9"
          ],
          "data": "0x00000000000000000000000000000000000000000000000000000000000000200000000000000000000000000000000000000000000000000000000000000020000000000000000000000000c459b032cfad9988e0ef174f7872a2d68f6879be",
          "blockHash": "0xfd9098b7b3cc1cb52a2a2d95b7f7c94073535aa0032b61b19d68ff7a51cc960e",
          "blockNumber": "0x874d7fe",
          "transactionHash": "0x53dae81a5d50de3e2e519c97b84a76aa958ecb6f5d5cab9cf5e3d8c0185d2882",
          "transactionIndex": "0xd",
          "logIndex": "0x9",
          "removed": false
        },
        {
          "address": "0x5b27e1be18523fcf28b2dfdc73cbca267faf5859",
          "topics": [
            "0x8d340f17e19058004c20453540862a9c62778504476f6756755cb33bcd6c38c2"
          ],
          "data": "0x000000000000000000000000000000000000000000000000de41ba4fc9d91ad90000000000000000000000000000000000000000000000000000000000000100000000000000000000000000000000000000000000000000000000000000000000000000000000000000000000000000000000000000000000000000000000000000000000000000000000000000000000000000000000000000000000000000000000000000000000000000000000000000000000000000000000000000000000000000000000000000000000000000000000000000000000000000000000000000000000000000000000000000000000000000000000000000000000000000000000000000000000000000000000000000000000000000000000000000002000000000000000000000000044bbe76ba377526ff6f5fa3e2f06455a7ea2f4a0",
          "blockHash": "0xfd9098b7b3cc1cb52a2a2d95b7f7c94073535aa0032b61b19d68ff7a51cc960e",
          "blockNumber": "0x874d7fe",
          "transactionHash": "0x53dae81a5d50de3e2e519c97b84a76aa958ecb6f5d5cab9cf5e3d8c0185d2882",
          "transactionIndex": "0xd",
          "logIndex": "0xa",
          "removed": false
        },
        {
          "address": "0x5b27e1be18523fcf28b2dfdc73cbca267faf5859",
          "topics": [
            "0x7d628c9a1796743d365ab521a8b2a4686e419b3269919dc9145ea2ce853b54ea",
            "0x000000000000000000000000000000000000000000000000b8159170038f96fb"
          ],
          "data": "0x000000000000000000000000000000000000000000000000000000000000002000000000000000000000000000000000000000000000000000000000000000200000000000000000000000005adad530492e7b0228b31e4935fb6c3227a46412",
          "blockHash": "0xfd9098b7b3cc1cb52a2a2d95b7f7c94073535aa0032b61b19d68ff7a51cc960e",
          "blockNumber": "0x874d7fe",
          "transactionHash": "0x53dae81a5d50de3e2e519c97b84a76aa958ecb6f5d5cab9cf5e3d8c0185d2882",
          "transactionIndex": "0xd",
          "logIndex": "0xb",
          "removed": false
        },
        {
          "address": "0x5b27e1be18523fcf28b2dfdc73cbca267faf5859",
          "topics": [
            "0x8d340f17e19058004c20453540862a9c62778504476f6756755cb33bcd6c38c2"
          ],
          "data": "0x000000000000000000000000000000000000000000000000b8159170038f96fb000000000000000000000000000000000000000000000000000000000000010000000000000000000000000000000000000000000000000000000000000000000000000000000000000000000000000000000000000000000000000000000000000000000000000000000000000000000000000000000000000000000000000000000000000000000000000000000000000000000000000000000000000000000000000000000000000000000000000000000000000000000000000000000000000000000000000000000000000000000000000000000000000000000000000000000000000000000000000000000000000000000000000000000000000000200000000000000000000000005436fdbe11cca6c70f80c1f160e636859b4d7493",
          "blockHash": "0xfd9098b7b3cc1cb52a2a2d95b7f7c94073535aa0032b61b19d68ff7a51cc960e",
          "blockNumber": "0x874d7fe",
          "transactionHash": "0x53dae81a5d50de3e2e519c97b84a76aa958ecb6f5d5cab9cf5e3d8c0185d2882",
          "transactionIndex": "0xd",
          "logIndex": "0xc",
          "removed": false
        }
      ],
      "logsBloom": "0x00000000000000400000000000000000800000000000000000000000000000000000000000004000000000000000000000000000000000000004000000000004000000000000000000000000000000004000000000000000200000000000000000000000000000000000000000010000000000000000000000000000000000400000000000000000000000000000000000000020000000020000000200000000000000000000000000000000000000000020000000000000000000000000000000000000000000000000000000000000000000000000000000000000000000000000000000000000000000000000000000000000008000000100000000000000",
      "type": "0x2",
      "transactionHash": "0x53dae81a5d50de3e2e519c97b84a76aa958ecb6f5d5cab9cf5e3d8c0185d2882",
      "transactionIndex": "0xd",
      "blockHash": "0xfd9098b7b3cc1cb52a2a2d95b7f7c94073535aa0032b61b19d68ff7a51cc960e",
      "blockNumber": "0x874d7fe",
      "gasUsed": "0x8c0f5",
      "effectiveGasPrice": "0x5f5e100",
      "from": "0xae1710c414e95b83c247e01e8f30ee117771599b",
      "to": "0x5b27e1be18523fcf28b2dfdc73cbca267faf5859",
      "contractAddress": null,
      "gasUsedForL1": "0x0",
      "l1BlockNumber": "0x7ba807",
      "timeboosted": false
    }
  ],
  "libraries": [],
  "pending": [],
  "returns": {},
  "timestamp": 1744462057,
  "chain": 421614,
  "commit": "c0988c0"
}