{
  "transactions": [
    {
      "hash": "0xe8523f0e348145e9e01372c684df114d8b596a9a34819b88f781d3638b9f3107",
      "transactionType": "CALL",
      "contractName": null,
      "contractAddress": "0xc264805f7ef486471c5d487139928f23e851bc0a",
      "function": "approve(address,uint256)",
      "arguments": [
        "0x0BF3dE8c5D3e8A2B34D2BEeB17ABfCeBaf363A59",
        "10000"
      ],
      "transaction": {
        "from": "0xae1710c414e95b83c247e01e8f30ee117771599b",
        "to": "0xc264805f7ef486471c5d487139928f23e851bc0a",
        "gas": "0xf816",
        "value": "0x0",
        "input": "0x095ea7b30000000000000000000000000bf3de8c5d3e8a2b34d2beeb17abfcebaf363a590000000000000000000000000000000000000000000000000000000000002710",
        "nonce": "0xd4",
        "chainId": "0xaa36a7"
      },
      "additionalContracts": [],
      "isFixedGasLimit": false
    },
    {
      "hash": "0xe00dff58ac3a4fbe8c3270f96bbc619f10922b5123b3db0d74291c58e7390777",
      "transactionType": "CALL",
      "contractName": null,
      "contractAddress": "0x0bf3de8c5d3e8a2b34d2beeb17abfcebaf363a59",
      "function": "ccipSend(uint64,(bytes,bytes,(address,uint256)[],address,bytes))",
      "arguments": [
        "3478487238524512106",
        "(0x000000000000000000000000ae1710c414e95b83c247e01e8f30ee117771599b, 0x, [(0xC264805F7Ef486471C5d487139928f23E851bc0A, 10000)], 0x0000000000000000000000000000000000000000, 0x97a657c90000000000000000000000000000000000000000000000000000000000000000)"
      ],
      "transaction": {
        "from": "0xae1710c414e95b83c247e01e8f30ee117771599b",
        "to": "0x0bf3de8c5d3e8a2b34d2beeb17abfcebaf363a59",
        "gas": "0x449a4",
        "value": "0xaf20165bbd3e",
        "input": "0x96f4e9f9000000000000000000000000000000000000000000000000304611b6affba76a000000000000000000000000000000000000000000000000000000000000004000000000000000000000000000000000000000000000000000000000000000a000000000000000000000000000000000000000000000000000000000000000e00000000000000000000000000000000000000000000000000000000000000100000000000000000000000000000000000000000000000000000000000000000000000000000000000000000000000000000000000000000000000000000001600000000000000000000000000000000000000000000000000000000000000020000000000000000000000000ae1710c414e95b83c247e01e8f30ee117771599b00000000000000000000000000000000000000000000000000000000000000000000000000000000000000000000000000000000000000000000000000000001000000000000000000000000c264805f7ef486471c5d487139928f23e851bc0a0000000000000000000000000000000000000000000000000000000000002710000000000000000000000000000000000000000000000000000000000000002497a657c9000000000000000000000000000000000000000000000000000000000000000000000000000000000000000000000000000000000000000000000000",
        "nonce": "0xd5",
        "chainId": "0xaa36a7"
      },
      "additionalContracts": [],
      "isFixedGasLimit": false
    }
  ],
  "receipts": [
    {
      "status": "0x1",
      "cumulativeGasUsed": "0xe456d5",
      "logs": [
        {
          "address": "0xc264805f7ef486471c5d487139928f23e851bc0a",
          "topics": [
            "0x8c5be1e5ebec7d5bd14f71427d1e84f3dd0314c0f7b2291e5b200ac8c7c3b925",
            "0x000000000000000000000000ae1710c414e95b83c247e01e8f30ee117771599b",
            "0x0000000000000000000000000bf3de8c5d3e8a2b34d2beeb17abfcebaf363a59"
          ],
          "data": "0x0000000000000000000000000000000000000000000000000000000000002710",
          "blockHash": "0x5786035cf0143d55b6e887240c06eb87113c5d8f41daf64625b805b226500124",
          "blockNumber": "0x7a19f1",
          "transactionHash": "0xe8523f0e348145e9e01372c684df114d8b596a9a34819b88f781d3638b9f3107",
          "transactionIndex": "0x97",
          "logIndex": "0xd6",
          "removed": false
        }
      ],
      "logsBloom": "0x00000000000040000000000000000000000010000000000000000000000000000000000000000000000000000000000000000000000000000000000000200000000000000000400000000000000000000000000000000000000000000000000000000000000100000200200000000000000000000000000000000000000000000000000080000000000000000000000000000000000000000000000000000000020000000000080000000000000000000000000000000000000000000000000000000000000000000000000000000000000000000000000000000000000000000010000000000000000000000000000000000000000001000000000000000000",
      "type": "0x2",
      "transactionHash": "0xe8523f0e348145e9e01372c684df114d8b596a9a34819b88f781d3638b9f3107",
      "transactionIndex": "0x97",
      "blockHash": "0x5786035cf0143d55b6e887240c06eb87113c5d8f41daf64625b805b226500124",
      "blockNumber": "0x7a19f1",
      "gasUsed": "0xb39d",
      "effectiveGasPrice": "0x3b2b11",
      "from": "0xae1710c414e95b83c247e01e8f30ee117771599b",
      "to": "0xc264805f7ef486471c5d487139928f23e851bc0a",
      "contractAddress": null
    },
    {
      "status": "0x1",
      "cumulativeGasUsed": "0xe77182",
      "logs": [
        {
          "address": "0x097d90c9d3e0b50ca60e1ae45f6a81010f9fb534",
          "topics": [
            "0xe1fffcc4923d04b559f4d29a8bfc6cda04eb5b0d3c460751c2402c5c5cc9109c",
            "0x0000000000000000000000000bf3de8c5d3e8a2b34d2beeb17abfcebaf363a59"
          ],
          "data": "0x0000000000000000000000000000000000000000000000000000af20165bbd3e",
          "blockHash": "0x5786035cf0143d55b6e887240c06eb87113c5d8f41daf64625b805b226500124",
          "blockNumber": "0x7a19f1",
          "transactionHash": "0xe00dff58ac3a4fbe8c3270f96bbc619f10922b5123b3db0d74291c58e7390777",
          "transactionIndex": "0x98",
          "logIndex": "0xd7",
          "removed": false
        },
        {
          "address": "0x097d90c9d3e0b50ca60e1ae45f6a81010f9fb534",
          "topics": [
            "0xddf252ad1be2c89b69c2b068fc378daa952ba7f163c4a11628f55a4df523b3ef",
            "0x0000000000000000000000000bf3de8c5d3e8a2b34d2beeb17abfcebaf363a59",
            "0x000000000000000000000000bc09627e58989ba8f1eda775e486467d2a00944f"
          ],
          "data": "0x0000000000000000000000000000000000000000000000000000af20165bbd3e",
          "blockHash": "0x5786035cf0143d55b6e887240c06eb87113c5d8f41daf64625b805b226500124",
          "blockNumber": "0x7a19f1",
          "transactionHash": "0xe00dff58ac3a4fbe8c3270f96bbc619f10922b5123b3db0d74291c58e7390777",
          "transactionIndex": "0x98",
          "logIndex": "0xd8",
          "removed": false
        },
        {
          "address": "0xc264805f7ef486471c5d487139928f23e851bc0a",
          "topics": [
            "0x8c5be1e5ebec7d5bd14f71427d1e84f3dd0314c0f7b2291e5b200ac8c7c3b925",
            "0x000000000000000000000000ae1710c414e95b83c247e01e8f30ee117771599b",
            "0x0000000000000000000000000bf3de8c5d3e8a2b34d2beeb17abfcebaf363a59"
          ],
          "data": "0x0000000000000000000000000000000000000000000000000000000000000000",
          "blockHash": "0x5786035cf0143d55b6e887240c06eb87113c5d8f41daf64625b805b226500124",
          "blockNumber": "0x7a19f1",
          "transactionHash": "0xe00dff58ac3a4fbe8c3270f96bbc619f10922b5123b3db0d74291c58e7390777",
          "transactionIndex": "0x98",
          "logIndex": "0xd9",
          "removed": false
        },
        {
          "address": "0xc264805f7ef486471c5d487139928f23e851bc0a",
          "topics": [
            "0xddf252ad1be2c89b69c2b068fc378daa952ba7f163c4a11628f55a4df523b3ef",
            "0x000000000000000000000000ae1710c414e95b83c247e01e8f30ee117771599b",
            "0x0000000000000000000000002be82989f093dac5e9c27857d31201e744bd7b23"
          ],
          "data": "0x0000000000000000000000000000000000000000000000000000000000002710",
          "blockHash": "0x5786035cf0143d55b6e887240c06eb87113c5d8f41daf64625b805b226500124",
          "blockNumber": "0x7a19f1",
          "transactionHash": "0xe00dff58ac3a4fbe8c3270f96bbc619f10922b5123b3db0d74291c58e7390777",
          "transactionIndex": "0x98",
          "logIndex": "0xda",
          "removed": false
        },
        {
          "address": "0x2be82989f093dac5e9c27857d31201e744bd7b23",
          "topics": [
            "0x1871cdf8010e63f2eb8384381a68dfa7416dc571a5517e66e88b2d2d0c0a690a"
          ],
          "data": "0x0000000000000000000000000000000000000000000000000000000000002710",
          "blockHash": "0x5786035cf0143d55b6e887240c06eb87113c5d8f41daf64625b805b226500124",
          "blockNumber": "0x7a19f1",
          "transactionHash": "0xe00dff58ac3a4fbe8c3270f96bbc619f10922b5123b3db0d74291c58e7390777",
          "transactionIndex": "0x98",
          "logIndex": "0xdb",
          "removed": false
        },
        {
          "address": "0xc264805f7ef486471c5d487139928f23e851bc0a",
          "topics": [
            "0xddf252ad1be2c89b69c2b068fc378daa952ba7f163c4a11628f55a4df523b3ef",
            "0x0000000000000000000000002be82989f093dac5e9c27857d31201e744bd7b23",
            "0x0000000000000000000000000000000000000000000000000000000000000000"
          ],
          "data": "0x0000000000000000000000000000000000000000000000000000000000002710",
          "blockHash": "0x5786035cf0143d55b6e887240c06eb87113c5d8f41daf64625b805b226500124",
          "blockNumber": "0x7a19f1",
          "transactionHash": "0xe00dff58ac3a4fbe8c3270f96bbc619f10922b5123b3db0d74291c58e7390777",
          "transactionIndex": "0x98",
          "logIndex": "0xdc",
          "removed": false
        },
        {
          "address": "0x2be82989f093dac5e9c27857d31201e744bd7b23",
          "topics": [
            "0x696de425f79f4a40bc6d2122ca50507f0efbeabbff86a84871b7196ab8ea8df7",
            "0x000000000000000000000000bc09627e58989ba8f1eda775e486467d2a00944f"
          ],
          "data": "0x0000000000000000000000000000000000000000000000000000000000002710",
          "blockHash": "0x5786035cf0143d55b6e887240c06eb87113c5d8f41daf64625b805b226500124",
          "blockNumber": "0x7a19f1",
          "transactionHash": "0xe00dff58ac3a4fbe8c3270f96bbc619f10922b5123b3db0d74291c58e7390777",
          "transactionIndex": "0x98",
          "logIndex": "0xdd",
          "removed": false
        },
        {
          "address": "0xbc09627e58989ba8f1eda775e486467d2a00944f",
          "topics": [
            "0xd0c3c799bf9e2639de44391e7f524d229b2b55f5b1ea94b2bf7da42f7243dddd"
          ],
          "data": "0x0000000000000000000000000000000000000000000000000000000000000020000000000000000000000000000000000000000000000000de41ba4fc9d91ad9000000000000000000000000ae1710c414e95b83c247e01e8f30ee117771599b000000000000000000000000ae1710c414e95b83c247e01e8f30ee117771599b0000000000000000000000000000000000000000000000000000000000000790000000000000000000000000000000000000000000000000000000000000000000000000000000000000000000000000000000000000000000000000000000000000000000000000000000000000000000000000000000000000000000000002000000000000000000000000097d90c9d3e0b50ca60e1ae45f6a81010f9fb5340000000000000000000000000000000000000000000000000000af20165bbd3e00000000000000000000000000000000000000000000000000000000000001a000000000000000000000000000000000000000000000000000000000000001c00000000000000000000000000000000000000000000000000000000000000220b56b50b4036fa44720c5025e44f5150b6ceb5e857c6ccc756dbadcc21e50a8d600000000000000000000000000000000000000000000000000000000000000000000000000000000000000000000000000000000000000000000000000000001000000000000000000000000c264805f7ef486471c5d487139928f23e851bc0a00000000000000000000000000000000000000000000000000000000000027100000000000000000000000000000000000000000000000000000000000000001000000000000000000000000000000000000000000000000000000000000002000000000000000000000000000000000000000000000000000000000000001600000000000000000000000000000000000000000000000000000000000000020000000000000000000000000000000000000000000000000000000000000008000000000000000000000000000000000000000000000000000000000000000c000000000000000000000000000000000000000000000000000000000000001000000000000000000000000000000000000000000000000000000000000015f9000000000000000000000000000000000000000000000000000000000000000200000000000000000000000002be82989f093dac5e9c27857d31201e744bd7b2300000000000000000000000000000000000000000000000000000000000000200000000000000000000000008afc29287a2c676a7d3441209b9c908eafacc97900000000000000000000000000000000000000000000000000000000000000200000000000000000000000000000000000000000000000000000000000000012",
          "blockHash": "0x5786035cf0143d55b6e887240c06eb87113c5d8f41daf64625b805b226500124",
          "blockNumber": "0x7a19f1",
          "transactionHash": "0xe00dff58ac3a4fbe8c3270f96bbc619f10922b5123b3db0d74291c58e7390777",
          "transactionIndex": "0x98",
          "logIndex": "0xde",
          "removed": false
        }
      ],
      "logsBloom": "0x00000000080040000000000000000000000010000000000000000000000000000000000000000000002000000000000000000000000000000000000000200000000100000000420000000008000000000000000000000000004000008000000000020000060100000200204000000802040000000000000000000010000000000020000080000000000000000000000000000001000000000002800000000000020000000000080400400000000000000000000000000000000100001000000000000002000000000000000002000000000000000000000000000000000020000010000040000000000000000000800004000000200001440000000008000000",
      "type": "0x2",
      "transactionHash": "0xe00dff58ac3a4fbe8c3270f96bbc619f10922b5123b3db0d74291c58e7390777",
      "transactionIndex": "0x98",
      "blockHash": "0x5786035cf0143d55b6e887240c06eb87113c5d8f41daf64625b805b226500124",
      "blockNumber": "0x7a19f1",
      "gasUsed": "0x31aad",
      "effectiveGasPrice": "0x3b2b11",
      "from": "0xae1710c414e95b83c247e01e8f30ee117771599b",
      "to": "0x0bf3de8c5d3e8a2b34d2beeb17abfcebaf363a59",
      "contractAddress": null
    }
  ],
  "libraries": [],
  "pending": [],
  "returns": {},
  "timestamp": 1743194366,
  "chain": 11155111,
  "commit": "fee06cf"
}