{
  "transactions": [
    {
      "hash": "0x4f8309f0bdc6b557fd8f83c51f7238ad5dc5f5156520d1527d051eea6d03e3d7",
      "transactionType": "CALL",
      "contractName": null,
      "contractAddress": "0x3dc019c8b47e195d169b0fe2bdbed2548bfcff44",
      "function": "approve(address,uint256)",
      "arguments": [
        "0x0BF3dE8c5D3e8A2B34D2BEeB17ABfCeBaf363A59",
        "1000000000000000000000"
      ],
      "transaction": {
        "from": "0xae1710c414e95b83c247e01e8f30ee117771599b",
        "to": "0x3dc019c8b47e195d169b0fe2bdbed2548bfcff44",
        "gas": "0x9575",
        "value": "0x0",
        "input": "0x095ea7b30000000000000000000000000bf3de8c5d3e8a2b34d2beeb17abfcebaf363a5900000000000000000000000000000000000000000000003635c9adc5dea00000",
        "nonce": "0x182",
        "chainId": "0xaa36a7"
      },
      "additionalContracts": [],
      "isFixedGasLimit": false
    },
    {
      "hash": "0x328bdff9334c4052f97fe6feea9f4797a188e342448d2ac6e8211d9c64e7e555",
      "transactionType": "CALL",
      "contractName": null,
      "contractAddress": "0x779877a7b0d9e8603169ddbd7836e478b4624789",
      "function": "approve(address,uint256)",
      "arguments": [
        "0x0BF3dE8c5D3e8A2B34D2BEeB17ABfCeBaf363A59",
        "20000000000000000000"
      ],
      "transaction": {
        "from": "0xae1710c414e95b83c247e01e8f30ee117771599b",
        "to": "0x779877a7b0d9e8603169ddbd7836e478b4624789",
        "gas": "0x9d2e",
        "value": "0x0",
        "input": "0x095ea7b30000000000000000000000000bf3de8c5d3e8a2b34d2beeb17abfcebaf363a59000000000000000000000000000000000000000000000001158e460913d00000",
        "nonce": "0x183",
        "chainId": "0xaa36a7"
      },
      "additionalContracts": [],
      "isFixedGasLimit": false
    },
    {
      "hash": "0x25c73acc7f5ba1c9d0d794f0ee765881755d9e933134cc5e9b22ff0ecb7af02b",
      "transactionType": "CALL",
      "contractName": null,
      "contractAddress": "0x0bf3de8c5d3e8a2b34d2beeb17abfcebaf363a59",
      "function": "ccipSend(uint64,(bytes,bytes,(address,uint256)[],address,bytes))",
      "arguments": [
        "13264668187771770619",
        "(0x000000000000000000000000ae1710c414e95b83c247e01e8f30ee117771599b, 0x, [(0x3DC019C8b47E195D169B0FE2BdBeD2548bFcfF44, 1000000000000000000000)], 0x779877A7B0D9E8603169DdbD7836e478b4624789, 0x97a657c90000000000000000000000000000000000000000000000000000000000000000)"
      ],
      "transaction": {
        "from": "0xae1710c414e95b83c247e01e8f30ee117771599b",
        "to": "0x0bf3de8c5d3e8a2b34d2beeb17abfcebaf363a59",
        "gas": "0x40f90",
        "value": "0x0",
        "input": "0x96f4e9f9000000000000000000000000000000000000000000000000b8159170038f96fb000000000000000000000000000000000000000000000000000000000000004000000000000000000000000000000000000000000000000000000000000000a000000000000000000000000000000000000000000000000000000000000000e00000000000000000000000000000000000000000000000000000000000000100000000000000000000000000779877a7b0d9e8603169ddbd7836e478b462478900000000000000000000000000000000000000000000000000000000000001600000000000000000000000000000000000000000000000000000000000000020000000000000000000000000ae1710c414e95b83c247e01e8f30ee117771599b000000000000000000000000000000000000000000000000000000000000000000000000000000000000000000000000000000000000000000000000000000010000000000000000000000003dc019c8b47e195d169b0fe2bdbed2548bfcff4400000000000000000000000000000000000000000000003635c9adc5dea00000000000000000000000000000000000000000000000000000000000000000002497a657c9000000000000000000000000000000000000000000000000000000000000000000000000000000000000000000000000000000000000000000000000",
        "nonce": "0x184",
        "chainId": "0xaa36a7"
      },
      "additionalContracts": [],
      "isFixedGasLimit": false
    }
  ],
  "receipts": [
    {
      "status": "0x1",
      "cumulativeGasUsed": "0x1119ffa",
      "logs": [
        {
          "address": "0x3dc019c8b47e195d169b0fe2bdbed2548bfcff44",
          "topics": [
            "0x8c5be1e5ebec7d5bd14f71427d1e84f3dd0314c0f7b2291e5b200ac8c7c3b925",
            "0x000000000000000000000000ae1710c414e95b83c247e01e8f30ee117771599b",
            "0x0000000000000000000000000bf3de8c5d3e8a2b34d2beeb17abfcebaf363a59"
          ],
          "data": "0x00000000000000000000000000000000000000000000003635c9adc5dea00000",
          "blockHash": "0xab4cd512e97fe4bae88fcd7717db6631bbeb92c29443dd13241fcaf32b2b8843",
          "blockNumber": "0x7ba63f",
          "transactionHash": "0x4f8309f0bdc6b557fd8f83c51f7238ad5dc5f5156520d1527d051eea6d03e3d7",
          "transactionIndex": "0x9e",
          "logIndex": "0x112",
          "removed": false
        }
      ],
      "logsBloom": "0x00000000000040800000000000000000000000000000000000000000000000000000000000000000000000000000000000000000000000000000000000200000000000000000000000000000000000000000000000000000000000000000000000000000000100000200200000000400000000000000000000000000000000000000000080000000000000000000000000000000000000000000000000000000020000000000080000000000000000000000000000000000000000000000000000000000000000000000000000000000000000000000000000000000000000000010000000000000000000000000000000000400000000000000000000000000",
      "type": "0x2",
      "transactionHash": "0x4f8309f0bdc6b557fd8f83c51f7238ad5dc5f5156520d1527d051eea6d03e3d7",
      "transactionIndex": "0x9e",
      "blockHash": "0xab4cd512e97fe4bae88fcd7717db6631bbeb92c29443dd13241fcaf32b2b8843",
      "blockNumber": "0x7ba63f",
      "gasUsed": "0x6632",
      "effectiveGasPrice": "0x551779",
      "from": "0xae1710c414e95b83c247e01e8f30ee117771599b",
      "to": "0x3dc019c8b47e195d169b0fe2bdbed2548bfcff44",
      "contractAddress": null
    },
    {
      "status": "0x1",
      "cumulativeGasUsed": "0x11211c7",
      "logs": [
        {
          "address": "0x779877a7b0d9e8603169ddbd7836e478b4624789",
          "topics": [
            "0x8c5be1e5ebec7d5bd14f71427d1e84f3dd0314c0f7b2291e5b200ac8c7c3b925",
            "0x000000000000000000000000ae1710c414e95b83c247e01e8f30ee117771599b",
            "0x0000000000000000000000000bf3de8c5d3e8a2b34d2beeb17abfcebaf363a59"
          ],
          "data": "0x000000000000000000000000000000000000000000000001158e460913d00000",
          "blockHash": "0xab4cd512e97fe4bae88fcd7717db6631bbeb92c29443dd13241fcaf32b2b8843",
          "blockNumber": "0x7ba63f",
          "transactionHash": "0x328bdff9334c4052f97fe6feea9f4797a188e342448d2ac6e8211d9c64e7e555",
          "transactionIndex": "0x9f",
          "logIndex": "0x113",
          "removed": false
        }
      ],
      "logsBloom": "0x00000004000040000000000000000000000000000000000000000000000000000000000000000000000000000000000000000000000000000000000000200000000000000000000000000000000000000000000000000000000000000000000000000000000100000200200000000000000000000000000000000000000000000000000080000000000000000000800000000000000000000000000000000000020000000000080000000000000000000000000000000000000000000000000000000000000000000000000000000000000000000000000100000000000000000010000000000000000000000000000000000000000000000000000000000000",
      "type": "0x2",
      "transactionHash": "0x328bdff9334c4052f97fe6feea9f4797a188e342448d2ac6e8211d9c64e7e555",
      "transactionIndex": "0x9f",
      "blockHash": "0xab4cd512e97fe4bae88fcd7717db6631bbeb92c29443dd13241fcaf32b2b8843",
      "blockNumber": "0x7ba63f",
      "gasUsed": "0x71cd",
      "effectiveGasPrice": "0x551779",
      "from": "0xae1710c414e95b83c247e01e8f30ee117771599b",
      "to": "0x779877a7b0d9e8603169ddbd7836e478b4624789",
      "contractAddress": null
    },
    {
      "status": "0x1",
      "cumulativeGasUsed": "0x1150267",
      "logs": [
        {
          "address": "0x779877a7b0d9e8603169ddbd7836e478b4624789",
          "topics": [
            "0xddf252ad1be2c89b69c2b068fc378daa952ba7f163c4a11628f55a4df523b3ef",
            "0x000000000000000000000000ae1710c414e95b83c247e01e8f30ee117771599b",
            "0x0000000000000000000000007a75b3818412fe0028590fee8270ba9e3fd01dbe"
          ],
          "data": "0x000000000000000000000000000000000000000000000000009ed4b4002d294d",
          "blockHash": "0xab4cd512e97fe4bae88fcd7717db6631bbeb92c29443dd13241fcaf32b2b8843",
          "blockNumber": "0x7ba63f",
          "transactionHash": "0x25c73acc7f5ba1c9d0d794f0ee765881755d9e933134cc5e9b22ff0ecb7af02b",
          "transactionIndex": "0xa0",
          "logIndex": "0x114",
          "removed": false
        },
        {
          "address": "0x779877a7b0d9e8603169ddbd7836e478b4624789",
          "topics": [
            "0x8c5be1e5ebec7d5bd14f71427d1e84f3dd0314c0f7b2291e5b200ac8c7c3b925",
            "0x000000000000000000000000ae1710c414e95b83c247e01e8f30ee117771599b",
            "0x0000000000000000000000000bf3de8c5d3e8a2b34d2beeb17abfcebaf363a59"
          ],
          "data": "0x00000000000000000000000000000000000000000000000114ef715513a2d6b3",
          "blockHash": "0xab4cd512e97fe4bae88fcd7717db6631bbeb92c29443dd13241fcaf32b2b8843",
          "blockNumber": "0x7ba63f",
          "transactionHash": "0x25c73acc7f5ba1c9d0d794f0ee765881755d9e933134cc5e9b22ff0ecb7af02b",
          "transactionIndex": "0xa0",
          "logIndex": "0x115",
          "removed": false
        },
        {
          "address": "0x3dc019c8b47e195d169b0fe2bdbed2548bfcff44",
          "topics": [
            "0xddf252ad1be2c89b69c2b068fc378daa952ba7f163c4a11628f55a4df523b3ef",
            "0x000000000000000000000000ae1710c414e95b83c247e01e8f30ee117771599b",
            "0x00000000000000000000000084e88ba8ab6da648af9eec3ec96d9797e0b6f6d3"
          ],
          "data": "0x00000000000000000000000000000000000000000000003635c9adc5dea00000",
          "blockHash": "0xab4cd512e97fe4bae88fcd7717db6631bbeb92c29443dd13241fcaf32b2b8843",
          "blockNumber": "0x7ba63f",
          "transactionHash": "0x25c73acc7f5ba1c9d0d794f0ee765881755d9e933134cc5e9b22ff0ecb7af02b",
          "transactionIndex": "0xa0",
          "logIndex": "0x116",
          "removed": false
        },
        {
          "address": "0x3dc019c8b47e195d169b0fe2bdbed2548bfcff44",
          "topics": [
            "0x8c5be1e5ebec7d5bd14f71427d1e84f3dd0314c0f7b2291e5b200ac8c7c3b925",
            "0x000000000000000000000000ae1710c414e95b83c247e01e8f30ee117771599b",
            "0x0000000000000000000000000bf3de8c5d3e8a2b34d2beeb17abfcebaf363a59"
          ],
          "data": "0x0000000000000000000000000000000000000000000000000000000000000000",
          "blockHash": "0xab4cd512e97fe4bae88fcd7717db6631bbeb92c29443dd13241fcaf32b2b8843",
          "blockNumber": "0x7ba63f",
          "transactionHash": "0x25c73acc7f5ba1c9d0d794f0ee765881755d9e933134cc5e9b22ff0ecb7af02b",
          "transactionIndex": "0xa0",
          "logIndex": "0x117",
          "removed": false
        },
        {
          "address": "0x3dc019c8b47e195d169b0fe2bdbed2548bfcff44",
          "topics": [
            "0xddf252ad1be2c89b69c2b068fc378daa952ba7f163c4a11628f55a4df523b3ef",
            "0x00000000000000000000000084e88ba8ab6da648af9eec3ec96d9797e0b6f6d3",
            "0x0000000000000000000000000000000000000000000000000000000000000000"
          ],
          "data": "0x00000000000000000000000000000000000000000000003635c9adc5dea00000",
          "blockHash": "0xab4cd512e97fe4bae88fcd7717db6631bbeb92c29443dd13241fcaf32b2b8843",
          "blockNumber": "0x7ba63f",
          "transactionHash": "0x25c73acc7f5ba1c9d0d794f0ee765881755d9e933134cc5e9b22ff0ecb7af02b",
          "transactionIndex": "0xa0",
          "logIndex": "0x118",
          "removed": false
        },
        {
          "address": "0x84e88ba8ab6da648af9eec3ec96d9797e0b6f6d3",
          "topics": [
            "0x696de425f79f4a40bc6d2122ca50507f0efbeabbff86a84871b7196ab8ea8df7",
            "0x0000000000000000000000007a75b3818412fe0028590fee8270ba9e3fd01dbe"
          ],
          "data": "0x00000000000000000000000000000000000000000000003635c9adc5dea00000",
          "blockHash": "0xab4cd512e97fe4bae88fcd7717db6631bbeb92c29443dd13241fcaf32b2b8843",
          "blockNumber": "0x7ba63f",
          "transactionHash": "0x25c73acc7f5ba1c9d0d794f0ee765881755d9e933134cc5e9b22ff0ecb7af02b",
          "transactionIndex": "0xa0",
          "logIndex": "0x119",
          "removed": false
        },
        {
          "address": "0x7a75b3818412fe0028590fee8270ba9e3fd01dbe",
          "topics": [
            "0xd0c3c799bf9e2639de44391e7f524d229b2b55f5b1ea94b2bf7da42f7243dddd"
          ],
          "data": "0x0000000000000000000000000000000000000000000000000000000000000020000000000000000000000000000000000000000000000000de41ba4fc9d91ad9000000000000000000000000ae1710c414e95b83c247e01e8f30ee117771599b000000000000000000000000ae1710c414e95b83c247e01e8f30ee117771599b0000000000000000000000000000000000000000000000000000000000000217000000000000000000000000000000000000000000000000000000000000000000000000000000000000000000000000000000000000000000000000000000000000000000000000000000000000000000000000000000000000000000000002000000000000000000000000779877a7b0d9e8603169ddbd7836e478b4624789000000000000000000000000000000000000000000000000009ed4b4002d294d00000000000000000000000000000000000000000000000000000000000001a000000000000000000000000000000000000000000000000000000000000001c0000000000000000000000000000000000000000000000000000000000000022059ec8532ecd0db8934ccdd199507c1d774e74de88bbd3c02cc893ac906b1ec5a000000000000000000000000000000000000000000000000000000000000000000000000000000000000000000000000000000000000000000000000000000010000000000000000000000003dc019c8b47e195d169b0fe2bdbed2548bfcff4400000000000000000000000000000000000000000000003635c9adc5dea000000000000000000000000000000000000000000000000000000000000000000001000000000000000000000000000000000000000000000000000000000000002000000000000000000000000000000000000000000000000000000000000001600000000000000000000000000000000000000000000000000000000000000020000000000000000000000000000000000000000000000000000000000000008000000000000000000000000000000000000000000000000000000000000000c000000000000000000000000000000000000000000000000000000000000001000000000000000000000000000000000000000000000000000000000000015f90000000000000000000000000000000000000000000000000000000000000002000000000000000000000000084e88ba8ab6da648af9eec3ec96d9797e0b6f6d3000000000000000000000000000000000000000000000000000000000000002000000000000000000000000006a280f346baf8a62365e5d60c6211d1d96bbc4900000000000000000000000000000000000000000000000000000000000000200000000000000000000000000000000000000000000000000000000000000012",
          "blockHash": "0xab4cd512e97fe4bae88fcd7717db6631bbeb92c29443dd13241fcaf32b2b8843",
          "blockNumber": "0x7ba63f",
          "transactionHash": "0x25c73acc7f5ba1c9d0d794f0ee765881755d9e933134cc5e9b22ff0ecb7af02b",
          "transactionIndex": "0xa0",
          "logIndex": "0x11a",
          "removed": false
        }
      ],
      "logsBloom": "0x00000004000040800000000000000000000000000000000000000000000000000000000000000000002000000000000000400000000000000000000000220000000000080000000000000008000000000000000000000000000020000000000000000000060100040200200000000c02000000000000000000000010000000000000000080000000080000000000800000020000000000000000000000000000020020000000080400010000000000000000000000000000000180000000000000000002000000000000000000000000000000080000000100000000000020000010000200000000000000000000000004000400000000000000000000000000",
      "type": "0x2",
      "transactionHash": "0x25c73acc7f5ba1c9d0d794f0ee765881755d9e933134cc5e9b22ff0ecb7af02b",
      "transactionIndex": "0xa0",
      "blockHash": "0xab4cd512e97fe4bae88fcd7717db6631bbeb92c29443dd13241fcaf32b2b8843",
      "blockNumber": "0x7ba63f",
      "gasUsed": "0x2f0a0",
      "effectiveGasPrice": "0x551779",
      "from": "0xae1710c414e95b83c247e01e8f30ee117771599b",
      "to": "0x0bf3de8c5d3e8a2b34d2beeb17abfcebaf363a59",
      "contractAddress": null
    }
  ],
  "libraries": [],
  "pending": [],
  "returns": {},
  "timestamp": 1744456000,
  "chain": 11155111,
  "commit": "c0988c0"
}