{
  "transactions": [
    {
      "hash": "0x3523e4f819f15d66ae50ed2028876615c737bc6c7c840e3efd53ec1e13b3c10c",
      "transactionType": "CALL",
      "contractName": null,
      "contractAddress": "0x555a860bd3213f7a865cbaa299a1ec6c89fb1e4c",
      "function": "approve(address,uint256)",
      "arguments": [
        "0x0BF3dE8c5D3e8A2B34D2BEeB17ABfCeBaf363A59",
        "117619320000000000000000000000"
      ],
      "transaction": {
        "from": "0xae1710c414e95b83c247e01e8f30ee117771599b",
        "to": "0x555a860bd3213f7a865cbaa299a1ec6c89fb1e4c",
        "gas": "0xf8bd",
        "value": "0x0",
        "input": "0x095ea7b30000000000000000000000000bf3de8c5d3e8a2b34d2beeb17abfcebaf363a5900000000000000000000000000000000000000017c0c6bd1836d55c09b000000",
        "nonce": "0x16f",
        "chainId": "0xaa36a7"
      },
      "additionalContracts": [],
      "isFixedGasLimit": false
    },
    {
      "hash": "0x4033149ac56b145891b9e8adb0ddd39c2bc7f0cf32a0f6955e3b18f04a9a66f9",
      "transactionType": "CALL",
      "contractName": null,
      "contractAddress": "0x779877a7b0d9e8603169ddbd7836e478b4624789",
      "function": "approve(address,uint256)",
      "arguments": [
        "0x0BF3dE8c5D3e8A2B34D2BEeB17ABfCeBaf363A59",
        "20000000000000000000"
      ],
      "transaction": {
        "from": "0xae1710c414e95b83c247e01e8f30ee117771599b",
        "to": "0x779877a7b0d9e8603169ddbd7836e478b4624789",
        "gas": "0x9d2e",
        "value": "0x0",
        "input": "0x095ea7b30000000000000000000000000bf3de8c5d3e8a2b34d2beeb17abfcebaf363a59000000000000000000000000000000000000000000000001158e460913d00000",
        "nonce": "0x170",
        "chainId": "0xaa36a7"
      },
      "additionalContracts": [],
      "isFixedGasLimit": false
    },
    {
      "hash": "0xfe456e57788e030b0b36e3cae768dfb9ae80c50ce1b658b0218f01cf90511285",
      "transactionType": "CALL",
      "contractName": null,
      "contractAddress": "0x0bf3de8c5d3e8a2b34d2beeb17abfcebaf363a59",
      "function": "ccipSend(uint64,(bytes,bytes,(address,uint256)[],address,bytes))",
      "arguments": [
        "13264668187771770619",
        "(0x000000000000000000000000ae1710c414e95b83c247e01e8f30ee117771599b, 0x, [(0x555A860bD3213f7A865cBAA299a1ec6C89Fb1E4c, 117619320000000000000000000000)], 0x779877A7B0D9E8603169DdbD7836e478b4624789, 0x97a657c90000000000000000000000000000000000000000000000000000000000000000)"
      ],
      "transaction": {
        "from": "0xae1710c414e95b83c247e01e8f30ee117771599b",
        "to": "0x0bf3de8c5d3e8a2b34d2beeb17abfcebaf363a59",
        "gas": "0x45873",
        "value": "0x0",
        "input": "0x96f4e9f9000000000000000000000000000000000000000000000000b8159170038f96fb000000000000000000000000000000000000000000000000000000000000004000000000000000000000000000000000000000000000000000000000000000a000000000000000000000000000000000000000000000000000000000000000e00000000000000000000000000000000000000000000000000000000000000100000000000000000000000000779877a7b0d9e8603169ddbd7836e478b462478900000000000000000000000000000000000000000000000000000000000001600000000000000000000000000000000000000000000000000000000000000020000000000000000000000000ae1710c414e95b83c247e01e8f30ee117771599b00000000000000000000000000000000000000000000000000000000000000000000000000000000000000000000000000000000000000000000000000000001000000000000000000000000555a860bd3213f7a865cbaa299a1ec6c89fb1e4c00000000000000000000000000000000000000017c0c6bd1836d55c09b000000000000000000000000000000000000000000000000000000000000000000002497a657c9000000000000000000000000000000000000000000000000000000000000000000000000000000000000000000000000000000000000000000000000",
        "nonce": "0x171",
        "chainId": "0xaa36a7"
      },
      "additionalContracts": [],
      "isFixedGasLimit": false
    }
  ],
  "receipts": [
    {
      "status": "0x1",
      "cumulativeGasUsed": "0x66ddc0",
      "logs": [
        {
          "address": "0x555a860bd3213f7a865cbaa299a1ec6c89fb1e4c",
          "topics": [
            "0x8c5be1e5ebec7d5bd14f71427d1e84f3dd0314c0f7b2291e5b200ac8c7c3b925",
            "0x000000000000000000000000ae1710c414e95b83c247e01e8f30ee117771599b",
            "0x0000000000000000000000000bf3de8c5d3e8a2b34d2beeb17abfcebaf363a59"
          ],
          "data": "0x00000000000000000000000000000000000000017c0c6bd1836d55c09b000000",
          "blockHash": "0xe5ccbaf32ef3f318576111b9a77e93ad7156b2105ec89765e3a8148eef853866",
          "blockNumber": "0x7b6352",
          "transactionHash": "0x3523e4f819f15d66ae50ed2028876615c737bc6c7c840e3efd53ec1e13b3c10c",
          "transactionIndex": "0x37",
          "logIndex": "0x4f",
          "removed": false
        }
      ],
      "logsBloom": "0x00000000000040000000000000000000000000000000000000000000000000000000000000000000000000000000000000000000000000000000000000200000000000000000000000000000000000000000000000000000000000000000000000000000000100000200300000000000000000000000000000000000000000000000000080000000000000000000000000100000000000000000000000000000020000000000080000000000000000000000000000000000000000000000000000000000000000000000000000000000000000000000000000000000000000000010000000800000000000000000000000000000000000000000000000000000",
      "type": "0x2",
      "transactionHash": "0x3523e4f819f15d66ae50ed2028876615c737bc6c7c840e3efd53ec1e13b3c10c",
      "transactionIndex": "0x37",
      "blockHash": "0xe5ccbaf32ef3f318576111b9a77e93ad7156b2105ec89765e3a8148eef853866",
      "blockNumber": "0x7b6352",
      "gasUsed": "0xb416",
      "effectiveGasPrice": "0xf424d",
      "from": "0xae1710c414e95b83c247e01e8f30ee117771599b",
      "to": "0x555a860bd3213f7a865cbaa299a1ec6c89fb1e4c",
      "contractAddress": null
    },
    {
      "status": "0x1",
      "cumulativeGasUsed": "0x674f8d",
      "logs": [
        {
          "address": "0x779877a7b0d9e8603169ddbd7836e478b4624789",
          "topics": [
            "0x8c5be1e5ebec7d5bd14f71427d1e84f3dd0314c0f7b2291e5b200ac8c7c3b925",
            "0x000000000000000000000000ae1710c414e95b83c247e01e8f30ee117771599b",
            "0x0000000000000000000000000bf3de8c5d3e8a2b34d2beeb17abfcebaf363a59"
          ],
          "data": "0x000000000000000000000000000000000000000000000001158e460913d00000",
          "blockHash": "0xe5ccbaf32ef3f318576111b9a77e93ad7156b2105ec89765e3a8148eef853866",
          "blockNumber": "0x7b6352",
          "transactionHash": "0x4033149ac56b145891b9e8adb0ddd39c2bc7f0cf32a0f6955e3b18f04a9a66f9",
          "transactionIndex": "0x38",
          "logIndex": "0x50",
          "removed": false
        }
      ],
      "logsBloom": "0x00000004000040000000000000000000000000000000000000000000000000000000000000000000000000000000000000000000000000000000000000200000000000000000000000000000000000000000000000000000000000000000000000000000000100000200200000000000000000000000000000000000000000000000000080000000000000000000800000000000000000000000000000000000020000000000080000000000000000000000000000000000000000000000000000000000000000000000000000000000000000000000000100000000000000000010000000000000000000000000000000000000000000000000000000000000",
      "type": "0x2",
      "transactionHash": "0x4033149ac56b145891b9e8adb0ddd39c2bc7f0cf32a0f6955e3b18f04a9a66f9",
      "transactionIndex": "0x38",
      "blockHash": "0xe5ccbaf32ef3f318576111b9a77e93ad7156b2105ec89765e3a8148eef853866",
      "blockNumber": "0x7b6352",
      "gasUsed": "0x71cd",
      "effectiveGasPrice": "0xf424d",
      "from": "0xae1710c414e95b83c247e01e8f30ee117771599b",
      "to": "0x779877a7b0d9e8603169ddbd7836e478b4624789",
      "contractAddress": null
    },
    {
      "status": "0x1",
      "cumulativeGasUsed": "0x6a74f2",
      "logs": [
        {
          "address": "0x779877a7b0d9e8603169ddbd7836e478b4624789",
          "topics": [
            "0xddf252ad1be2c89b69c2b068fc378daa952ba7f163c4a11628f55a4df523b3ef",
            "0x000000000000000000000000ae1710c414e95b83c247e01e8f30ee117771599b",
            "0x0000000000000000000000007a75b3818412fe0028590fee8270ba9e3fd01dbe"
          ],
          "data": "0x00000000000000000000000000000000000000000000000000a9f3b36c3e7b82",
          "blockHash": "0xe5ccbaf32ef3f318576111b9a77e93ad7156b2105ec89765e3a8148eef853866",
          "blockNumber": "0x7b6352",
          "transactionHash": "0xfe456e57788e030b0b36e3cae768dfb9ae80c50ce1b658b0218f01cf90511285",
          "transactionIndex": "0x39",
          "logIndex": "0x51",
          "removed": false
        },
        {
          "address": "0x779877a7b0d9e8603169ddbd7836e478b4624789",
          "topics": [
            "0x8c5be1e5ebec7d5bd14f71427d1e84f3dd0314c0f7b2291e5b200ac8c7c3b925",
            "0x000000000000000000000000ae1710c414e95b83c247e01e8f30ee117771599b",
            "0x0000000000000000000000000bf3de8c5d3e8a2b34d2beeb17abfcebaf363a59"
          ],
          "data": "0x00000000000000000000000000000000000000000000000114e45255a791847e",
          "blockHash": "0xe5ccbaf32ef3f318576111b9a77e93ad7156b2105ec89765e3a8148eef853866",
          "blockNumber": "0x7b6352",
          "transactionHash": "0xfe456e57788e030b0b36e3cae768dfb9ae80c50ce1b658b0218f01cf90511285",
          "transactionIndex": "0x39",
          "logIndex": "0x52",
          "removed": false
        },
        {
          "address": "0x555a860bd3213f7a865cbaa299a1ec6c89fb1e4c",
          "topics": [
            "0xddf252ad1be2c89b69c2b068fc378daa952ba7f163c4a11628f55a4df523b3ef",
            "0x000000000000000000000000ae1710c414e95b83c247e01e8f30ee117771599b",
            "0x00000000000000000000000072145021ad0d3fa57493b9e9fb6f497baeb3f26b"
          ],
          "data": "0x00000000000000000000000000000000000000017c0c6bd1836d55c09b000000",
          "blockHash": "0xe5ccbaf32ef3f318576111b9a77e93ad7156b2105ec89765e3a8148eef853866",
          "blockNumber": "0x7b6352",
          "transactionHash": "0xfe456e57788e030b0b36e3cae768dfb9ae80c50ce1b658b0218f01cf90511285",
          "transactionIndex": "0x39",
          "logIndex": "0x53",
          "removed": false
        },
        {
          "address": "0x555a860bd3213f7a865cbaa299a1ec6c89fb1e4c",
          "topics": [
            "0x8c5be1e5ebec7d5bd14f71427d1e84f3dd0314c0f7b2291e5b200ac8c7c3b925",
            "0x000000000000000000000000ae1710c414e95b83c247e01e8f30ee117771599b",
            "0x0000000000000000000000000bf3de8c5d3e8a2b34d2beeb17abfcebaf363a59"
          ],
          "data": "0x0000000000000000000000000000000000000000000000000000000000000000",
          "blockHash": "0xe5ccbaf32ef3f318576111b9a77e93ad7156b2105ec89765e3a8148eef853866",
          "blockNumber": "0x7b6352",
          "transactionHash": "0xfe456e57788e030b0b36e3cae768dfb9ae80c50ce1b658b0218f01cf90511285",
          "transactionIndex": "0x39",
          "logIndex": "0x54",
          "removed": false
        },
        {
          "address": "0x555a860bd3213f7a865cbaa299a1ec6c89fb1e4c",
          "topics": [
            "0xddf252ad1be2c89b69c2b068fc378daa952ba7f163c4a11628f55a4df523b3ef",
            "0x00000000000000000000000072145021ad0d3fa57493b9e9fb6f497baeb3f26b",
            "0x0000000000000000000000000000000000000000000000000000000000000000"
          ],
          "data": "0x00000000000000000000000000000000000000017c0c6bd1836d55c09b000000",
          "blockHash": "0xe5ccbaf32ef3f318576111b9a77e93ad7156b2105ec89765e3a8148eef853866",
          "blockNumber": "0x7b6352",
          "transactionHash": "0xfe456e57788e030b0b36e3cae768dfb9ae80c50ce1b658b0218f01cf90511285",
          "transactionIndex": "0x39",
          "logIndex": "0x55",
          "removed": false
        },
        {
          "address": "0x72145021ad0d3fa57493b9e9fb6f497baeb3f26b",
          "topics": [
            "0x696de425f79f4a40bc6d2122ca50507f0efbeabbff86a84871b7196ab8ea8df7",
            "0x0000000000000000000000007a75b3818412fe0028590fee8270ba9e3fd01dbe"
          ],
          "data": "0x00000000000000000000000000000000000000017c0c6bd1836d55c09b000000",
          "blockHash": "0xe5ccbaf32ef3f318576111b9a77e93ad7156b2105ec89765e3a8148eef853866",
          "blockNumber": "0x7b6352",
          "transactionHash": "0xfe456e57788e030b0b36e3cae768dfb9ae80c50ce1b658b0218f01cf90511285",
          "transactionIndex": "0x39",
          "logIndex": "0x56",
          "removed": false
        },
        {
          "address": "0x7a75b3818412fe0028590fee8270ba9e3fd01dbe",
          "topics": [
            "0xd0c3c799bf9e2639de44391e7f524d229b2b55f5b1ea94b2bf7da42f7243dddd"
          ],
          "data": "0x0000000000000000000000000000000000000000000000000000000000000020000000000000000000000000000000000000000000000000de41ba4fc9d91ad9000000000000000000000000ae1710c414e95b83c247e01e8f30ee117771599b000000000000000000000000ae1710c414e95b83c247e01e8f30ee117771599b0000000000000000000000000000000000000000000000000000000000000215000000000000000000000000000000000000000000000000000000000000000000000000000000000000000000000000000000000000000000000000000000000000000000000000000000000000000000000000000000000000000000000001000000000000000000000000779877a7b0d9e8603169ddbd7836e478b462478900000000000000000000000000000000000000000000000000a9f3b36c3e7b8200000000000000000000000000000000000000000000000000000000000001a000000000000000000000000000000000000000000000000000000000000001c0000000000000000000000000000000000000000000000000000000000000022091328f8c4c018cfb5fea6fbf45c583fe880058536c4605043e64b0d9ef3df1b800000000000000000000000000000000000000000000000000000000000000000000000000000000000000000000000000000000000000000000000000000001000000000000000000000000555a860bd3213f7a865cbaa299a1ec6c89fb1e4c00000000000000000000000000000000000000017c0c6bd1836d55c09b0000000000000000000000000000000000000000000000000000000000000000000001000000000000000000000000000000000000000000000000000000000000002000000000000000000000000000000000000000000000000000000000000001600000000000000000000000000000000000000000000000000000000000000020000000000000000000000000000000000000000000000000000000000000008000000000000000000000000000000000000000000000000000000000000000c000000000000000000000000000000000000000000000000000000000000001000000000000000000000000000000000000000000000000000000000000015f90000000000000000000000000000000000000000000000000000000000000002000000000000000000000000072145021ad0d3fa57493b9e9fb6f497baeb3f26b0000000000000000000000000000000000000000000000000000000000000020000000000000000000000000c1757d836ad469066a5f7d8ec710b5f2c3930a1700000000000000000000000000000000000000000000000000000000000000200000000000000000000000000000000000000000000000000000000000000012",
          "blockHash": "0xe5ccbaf32ef3f318576111b9a77e93ad7156b2105ec89765e3a8148eef853866",
          "blockNumber": "0x7b6352",
          "transactionHash": "0xfe456e57788e030b0b36e3cae768dfb9ae80c50ce1b658b0218f01cf90511285",
          "transactionIndex": "0x39",
          "logIndex": "0x57",
          "removed": false
        }
      ],
      "logsBloom": "0x00000004000040000000000000000000000000000000000000000000000000000000000000000000002000000000000000400000000000000000000000200000000000000000000000000008000000000000000010000000000000000000000000000000060180040200300000000802000000000000000000000050000000008000000080000000000000000000800000100000000000000000000000000000020000000000480400010000000000000000000000000000000180000000000000000002000000000000000000000000000000080000000100000000000020000010000200800000000000000000000004000000000000000000000000000000",
      "type": "0x2",
      "transactionHash": "0xfe456e57788e030b0b36e3cae768dfb9ae80c50ce1b658b0218f01cf90511285",
      "transactionIndex": "0x39",
      "blockHash": "0xe5ccbaf32ef3f318576111b9a77e93ad7156b2105ec89765e3a8148eef853866",
      "blockNumber": "0x7b6352",
      "gasUsed": "0x32565",
      "effectiveGasPrice": "0xf424d",
      "from": "0xae1710c414e95b83c247e01e8f30ee117771599b",
      "to": "0x0bf3de8c5d3e8a2b34d2beeb17abfcebaf363a59",
      "contractAddress": null
    }
  ],
  "libraries": [],
  "pending": [],
  "returns": {},
  "timestamp": 1744231659,
  "chain": 11155111,
  "commit": "c0988c0"
}