{
  "transactions": [
    {
      "hash": "0xcc89ca1b817e863c499de2848eb6d0eb5af4da94ac9b62cebed062c6b416a766",
      "transactionType": "CALL",
      "contractName": null,
      "contractAddress": "0xc264805f7ef486471c5d487139928f23e851bc0a",
      "function": "approve(address,uint256)",
      "arguments": [
        "0x0BF3dE8c5D3e8A2B34D2BEeB17ABfCeBaf363A59",
        "1000"
      ],
      "transaction": {
        "from": "0xae1710c414e95b83c247e01e8f30ee117771599b",
        "to": "0xc264805f7ef486471c5d487139928f23e851bc0a",
        "gas": "0xf816",
        "value": "0x0",
        "input": "0x095ea7b30000000000000000000000000bf3de8c5d3e8a2b34d2beeb17abfcebaf363a5900000000000000000000000000000000000000000000000000000000000003e8",
        "nonce": "0xd1",
        "chainId": "0xaa36a7"
      },
      "additionalContracts": [],
      "isFixedGasLimit": false
    },
    {
      "hash": "0xaf2c0f921ad5fb768d1dcd7d49286b3868193eeb80e3bf8dbc518d3c50df40c4",
      "transactionType": "CALL",
      "contractName": null,
      "contractAddress": "0x779877a7b0d9e8603169ddbd7836e478b4624789",
      "function": "approve(address,uint256)",
      "arguments": [
        "0x0BF3dE8c5D3e8A2B34D2BEeB17ABfCeBaf363A59",
        "20000000000000000000"
      ],
      "transaction": {
        "from": "0xae1710c414e95b83c247e01e8f30ee117771599b",
        "to": "0x779877a7b0d9e8603169ddbd7836e478b4624789",
        "gas": "0x1081f",
        "value": "0x0",
        "input": "0x095ea7b30000000000000000000000000bf3de8c5d3e8a2b34d2beeb17abfcebaf363a59000000000000000000000000000000000000000000000001158e460913d00000",
        "nonce": "0xd2",
        "chainId": "0xaa36a7"
      },
      "additionalContracts": [],
      "isFixedGasLimit": false
    },
    {
      "hash": "0x88c4248f34cf81f30241b677602d614ebc879cab6cdd77e986a2d389333ce1c0",
      "transactionType": "CALL",
      "contractName": null,
      "contractAddress": "0x0bf3de8c5d3e8a2b34d2beeb17abfcebaf363a59",
      "function": "ccipSend(uint64,(bytes,bytes,(address,uint256)[],address,bytes))",
      "arguments": [
        "3478487238524512106",
        "(0x000000000000000000000000ae1710c414e95b83c247e01e8f30ee117771599b, 0x, [(0xC264805F7Ef486471C5d487139928f23E851bc0A, 1000)], 0x779877A7B0D9E8603169DdbD7836e478b4624789, 0x97a657c90000000000000000000000000000000000000000000000000000000000000000)"
      ],
      "transaction": {
        "from": "0xae1710c414e95b83c247e01e8f30ee117771599b",
        "to": "0x0bf3de8c5d3e8a2b34d2beeb17abfcebaf363a59",
        "gas": "0x4acdf",
        "value": "0x0",
        "input": "0x96f4e9f9000000000000000000000000000000000000000000000000304611b6affba76a000000000000000000000000000000000000000000000000000000000000004000000000000000000000000000000000000000000000000000000000000000a000000000000000000000000000000000000000000000000000000000000000e00000000000000000000000000000000000000000000000000000000000000100000000000000000000000000779877a7b0d9e8603169ddbd7836e478b462478900000000000000000000000000000000000000000000000000000000000001600000000000000000000000000000000000000000000000000000000000000020000000000000000000000000ae1710c414e95b83c247e01e8f30ee117771599b00000000000000000000000000000000000000000000000000000000000000000000000000000000000000000000000000000000000000000000000000000001000000000000000000000000c264805f7ef486471c5d487139928f23e851bc0a00000000000000000000000000000000000000000000000000000000000003e8000000000000000000000000000000000000000000000000000000000000002497a657c9000000000000000000000000000000000000000000000000000000000000000000000000000000000000000000000000000000000000000000000000",
        "nonce": "0xd3",
        "chainId": "0xaa36a7"
      },
      "additionalContracts": [],
      "isFixedGasLimit": false
    }
  ],
  "receipts": [
    {
      "status": "0x1",
      "cumulativeGasUsed": "0xe15225",
      "logs": [
        {
          "address": "0xc264805f7ef486471c5d487139928f23e851bc0a",
          "topics": [
            "0x8c5be1e5ebec7d5bd14f71427d1e84f3dd0314c0f7b2291e5b200ac8c7c3b925",
            "0x000000000000000000000000ae1710c414e95b83c247e01e8f30ee117771599b",
            "0x0000000000000000000000000bf3de8c5d3e8a2b34d2beeb17abfcebaf363a59"
          ],
          "data": "0x00000000000000000000000000000000000000000000000000000000000003e8",
          "blockHash": "0xe2ee4223a14bc6a96134ba1537f03ace7cf10ac0523949f99ab83e4b5181bde2",
          "blockNumber": "0x7a19dc",
          "transactionHash": "0xcc89ca1b817e863c499de2848eb6d0eb5af4da94ac9b62cebed062c6b416a766",
          "transactionIndex": "0x59",
          "logIndex": "0x7d",
          "removed": false
        }
      ],
      "logsBloom": "0x00000000000040000000000000000000000010000000000000000000000000000000000000000000000000000000000000000000000000000000000000200000000000000000400000000000000000000000000000000000000000000000000000000000000100000200200000000000000000000000000000000000000000000000000080000000000000000000000000000000000000000000000000000000020000000000080000000000000000000000000000000000000000000000000000000000000000000000000000000000000000000000000000000000000000000010000000000000000000000000000000000000000001000000000000000000",
      "type": "0x2",
      "transactionHash": "0xcc89ca1b817e863c499de2848eb6d0eb5af4da94ac9b62cebed062c6b416a766",
      "transactionIndex": "0x59",
      "blockHash": "0xe2ee4223a14bc6a96134ba1537f03ace7cf10ac0523949f99ab83e4b5181bde2",
      "blockNumber": "0x7a19dc",
      "gasUsed": "0xb39d",
      "effectiveGasPrice": "0x3b2345",
      "from": "0xae1710c414e95b83c247e01e8f30ee117771599b",
      "to": "0xc264805f7ef486471c5d487139928f23e851bc0a",
      "contractAddress": null
    },
    {
      "status": "0x1",
      "cumulativeGasUsed": "0xe206be",
      "logs": [
        {
          "address": "0x779877a7b0d9e8603169ddbd7836e478b4624789",
          "topics": [
            "0x8c5be1e5ebec7d5bd14f71427d1e84f3dd0314c0f7b2291e5b200ac8c7c3b925",
            "0x000000000000000000000000ae1710c414e95b83c247e01e8f30ee117771599b",
            "0x0000000000000000000000000bf3de8c5d3e8a2b34d2beeb17abfcebaf363a59"
          ],
          "data": "0x000000000000000000000000000000000000000000000001158e460913d00000",
          "blockHash": "0xe2ee4223a14bc6a96134ba1537f03ace7cf10ac0523949f99ab83e4b5181bde2",
          "blockNumber": "0x7a19dc",
          "transactionHash": "0xaf2c0f921ad5fb768d1dcd7d49286b3868193eeb80e3bf8dbc518d3c50df40c4",
          "transactionIndex": "0x5a",
          "logIndex": "0x7e",
          "removed": false
        }
      ],
      "logsBloom": "0x00000004000040000000000000000000000000000000000000000000000000000000000000000000000000000000000000000000000000000000000000200000000000000000000000000000000000000000000000000000000000000000000000000000000100000200200000000000000000000000000000000000000000000000000080000000000000000000800000000000000000000000000000000000020000000000080000000000000000000000000000000000000000000000000000000000000000000000000000000000000000000000000100000000000000000010000000000000000000000000000000000000000000000000000000000000",
      "type": "0x2",
      "transactionHash": "0xaf2c0f921ad5fb768d1dcd7d49286b3868193eeb80e3bf8dbc518d3c50df40c4",
      "transactionIndex": "0x5a",
      "blockHash": "0xe2ee4223a14bc6a96134ba1537f03ace7cf10ac0523949f99ab83e4b5181bde2",
      "blockNumber": "0x7a19dc",
      "gasUsed": "0xb499",
      "effectiveGasPrice": "0x3b2345",
      "from": "0xae1710c414e95b83c247e01e8f30ee117771599b",
      "to": "0x779877a7b0d9e8603169ddbd7836e478b4624789",
      "contractAddress": null
    },
    {
      "status": "0x1",
      "cumulativeGasUsed": "0xe56942",
      "logs": [
        {
          "address": "0x779877a7b0d9e8603169ddbd7836e478b4624789",
          "topics": [
            "0xddf252ad1be2c89b69c2b068fc378daa952ba7f163c4a11628f55a4df523b3ef",
            "0x000000000000000000000000ae1710c414e95b83c247e01e8f30ee117771599b",
            "0x000000000000000000000000bc09627e58989ba8f1eda775e486467d2a00944f"
          ],
          "data": "0x0000000000000000000000000000000000000000000000000054bd94f2b7aaa4",
          "blockHash": "0xe2ee4223a14bc6a96134ba1537f03ace7cf10ac0523949f99ab83e4b5181bde2",
          "blockNumber": "0x7a19dc",
          "transactionHash": "0x88c4248f34cf81f30241b677602d614ebc879cab6cdd77e986a2d389333ce1c0",
          "transactionIndex": "0x5b",
          "logIndex": "0x7f",
          "removed": false
        },
        {
          "address": "0x779877a7b0d9e8603169ddbd7836e478b4624789",
          "topics": [
            "0x8c5be1e5ebec7d5bd14f71427d1e84f3dd0314c0f7b2291e5b200ac8c7c3b925",
            "0x000000000000000000000000ae1710c414e95b83c247e01e8f30ee117771599b",
            "0x0000000000000000000000000bf3de8c5d3e8a2b34d2beeb17abfcebaf363a59"
          ],
          "data": "0x000000000000000000000000000000000000000000000001153988742118555c",
          "blockHash": "0xe2ee4223a14bc6a96134ba1537f03ace7cf10ac0523949f99ab83e4b5181bde2",
          "blockNumber": "0x7a19dc",
          "transactionHash": "0x88c4248f34cf81f30241b677602d614ebc879cab6cdd77e986a2d389333ce1c0",
          "transactionIndex": "0x5b",
          "logIndex": "0x80",
          "removed": false
        },
        {
          "address": "0xc264805f7ef486471c5d487139928f23e851bc0a",
          "topics": [
            "0x8c5be1e5ebec7d5bd14f71427d1e84f3dd0314c0f7b2291e5b200ac8c7c3b925",
            "0x000000000000000000000000ae1710c414e95b83c247e01e8f30ee117771599b",
            "0x0000000000000000000000000bf3de8c5d3e8a2b34d2beeb17abfcebaf363a59"
          ],
          "data": "0x0000000000000000000000000000000000000000000000000000000000000000",
          "blockHash": "0xe2ee4223a14bc6a96134ba1537f03ace7cf10ac0523949f99ab83e4b5181bde2",
          "blockNumber": "0x7a19dc",
          "transactionHash": "0x88c4248f34cf81f30241b677602d614ebc879cab6cdd77e986a2d389333ce1c0",
          "transactionIndex": "0x5b",
          "logIndex": "0x81",
          "removed": false
        },
        {
          "address": "0xc264805f7ef486471c5d487139928f23e851bc0a",
          "topics": [
            "0xddf252ad1be2c89b69c2b068fc378daa952ba7f163c4a11628f55a4df523b3ef",
            "0x000000000000000000000000ae1710c414e95b83c247e01e8f30ee117771599b",
            "0x0000000000000000000000002be82989f093dac5e9c27857d31201e744bd7b23"
          ],
          "data": "0x00000000000000000000000000000000000000000000000000000000000003e8",
          "blockHash": "0xe2ee4223a14bc6a96134ba1537f03ace7cf10ac0523949f99ab83e4b5181bde2",
          "blockNumber": "0x7a19dc",
          "transactionHash": "0x88c4248f34cf81f30241b677602d614ebc879cab6cdd77e986a2d389333ce1c0",
          "transactionIndex": "0x5b",
          "logIndex": "0x82",
          "removed": false
        },
        {
          "address": "0x2be82989f093dac5e9c27857d31201e744bd7b23",
          "topics": [
            "0x1871cdf8010e63f2eb8384381a68dfa7416dc571a5517e66e88b2d2d0c0a690a"
          ],
          "data": "0x00000000000000000000000000000000000000000000000000000000000003e8",
          "blockHash": "0xe2ee4223a14bc6a96134ba1537f03ace7cf10ac0523949f99ab83e4b5181bde2",
          "blockNumber": "0x7a19dc",
          "transactionHash": "0x88c4248f34cf81f30241b677602d614ebc879cab6cdd77e986a2d389333ce1c0",
          "transactionIndex": "0x5b",
          "logIndex": "0x83",
          "removed": false
        },
        {
          "address": "0xc264805f7ef486471c5d487139928f23e851bc0a",
          "topics": [
            "0xddf252ad1be2c89b69c2b068fc378daa952ba7f163c4a11628f55a4df523b3ef",
            "0x0000000000000000000000002be82989f093dac5e9c27857d31201e744bd7b23",
            "0x0000000000000000000000000000000000000000000000000000000000000000"
          ],
          "data": "0x00000000000000000000000000000000000000000000000000000000000003e8",
          "blockHash": "0xe2ee4223a14bc6a96134ba1537f03ace7cf10ac0523949f99ab83e4b5181bde2",
          "blockNumber": "0x7a19dc",
          "transactionHash": "0x88c4248f34cf81f30241b677602d614ebc879cab6cdd77e986a2d389333ce1c0",
          "transactionIndex": "0x5b",
          "logIndex": "0x84",
          "removed": false
        },
        {
          "address": "0x2be82989f093dac5e9c27857d31201e744bd7b23",
          "topics": [
            "0x696de425f79f4a40bc6d2122ca50507f0efbeabbff86a84871b7196ab8ea8df7",
            "0x000000000000000000000000bc09627e58989ba8f1eda775e486467d2a00944f"
          ],
          "data": "0x00000000000000000000000000000000000000000000000000000000000003e8",
          "blockHash": "0xe2ee4223a14bc6a96134ba1537f03ace7cf10ac0523949f99ab83e4b5181bde2",
          "blockNumber": "0x7a19dc",
          "transactionHash": "0x88c4248f34cf81f30241b677602d614ebc879cab6cdd77e986a2d389333ce1c0",
          "transactionIndex": "0x5b",
          "logIndex": "0x85",
          "removed": false
        },
        {
          "address": "0xbc09627e58989ba8f1eda775e486467d2a00944f",
          "topics": [
            "0xd0c3c799bf9e2639de44391e7f524d229b2b55f5b1ea94b2bf7da42f7243dddd"
          ],
          "data": "0x0000000000000000000000000000000000000000000000000000000000000020000000000000000000000000000000000000000000000000de41ba4fc9d91ad9000000000000000000000000ae1710c414e95b83c247e01e8f30ee117771599b000000000000000000000000ae1710c414e95b83c247e01e8f30ee117771599b000000000000000000000000000000000000000000000000000000000000078f000000000000000000000000000000000000000000000000000000000000000000000000000000000000000000000000000000000000000000000000000000000000000000000000000000000000000000000000000000000000000000000001000000000000000000000000779877a7b0d9e8603169ddbd7836e478b46247890000000000000000000000000000000000000000000000000054bd94f2b7aaa400000000000000000000000000000000000000000000000000000000000001a000000000000000000000000000000000000000000000000000000000000001c000000000000000000000000000000000000000000000000000000000000002202703240152df4ff953a7bdca29bd294628b93805450c39c656da760e1c13af5700000000000000000000000000000000000000000000000000000000000000000000000000000000000000000000000000000000000000000000000000000001000000000000000000000000c264805f7ef486471c5d487139928f23e851bc0a00000000000000000000000000000000000000000000000000000000000003e80000000000000000000000000000000000000000000000000000000000000001000000000000000000000000000000000000000000000000000000000000002000000000000000000000000000000000000000000000000000000000000001600000000000000000000000000000000000000000000000000000000000000020000000000000000000000000000000000000000000000000000000000000008000000000000000000000000000000000000000000000000000000000000000c000000000000000000000000000000000000000000000000000000000000001000000000000000000000000000000000000000000000000000000000000015f9000000000000000000000000000000000000000000000000000000000000000200000000000000000000000002be82989f093dac5e9c27857d31201e744bd7b2300000000000000000000000000000000000000000000000000000000000000200000000000000000000000008afc29287a2c676a7d3441209b9c908eafacc97900000000000000000000000000000000000000000000000000000000000000200000000000000000000000000000000000000000000000000000000000000012",
          "blockHash": "0xe2ee4223a14bc6a96134ba1537f03ace7cf10ac0523949f99ab83e4b5181bde2",
          "blockNumber": "0x7a19dc",
          "transactionHash": "0x88c4248f34cf81f30241b677602d614ebc879cab6cdd77e986a2d389333ce1c0",
          "transactionIndex": "0x5b",
          "logIndex": "0x86",
          "removed": false
        }
      ],
      "logsBloom": "0x00000004080040000000000000000000000010000000000000000000000000000000000000000000002000000000000000000000000000000000000000200000000100000000420000000008000000000000000000000000004000000000000000020000060100000200204000000802040000000000000000000010000000000020000080000000000000000000800000000000000000000002000000000000020000000000080400400000000000000000000000000000000100000000000000000002000000000000000002000000000000000000000100000000000020000010000000000000000000000000800004000000200001040000000008000000",
      "type": "0x2",
      "transactionHash": "0x88c4248f34cf81f30241b677602d614ebc879cab6cdd77e986a2d389333ce1c0",
      "transactionIndex": "0x5b",
      "blockHash": "0xe2ee4223a14bc6a96134ba1537f03ace7cf10ac0523949f99ab83e4b5181bde2",
      "blockNumber": "0x7a19dc",
      "gasUsed": "0x36284",
      "effectiveGasPrice": "0x3b2345",
      "from": "0xae1710c414e95b83c247e01e8f30ee117771599b",
      "to": "0x0bf3de8c5d3e8a2b34d2beeb17abfcebaf363a59",
      "contractAddress": null
    }
  ],
  "libraries": [],
  "pending": [],
  "returns": {},
  "timestamp": 1743194113,
  "chain": 11155111,
  "commit": "fee06cf"
}