{
  "transactions": [
    {
      "hash": "0x4bf2d9f663982a5a4c2224629cd10ee690925303f2e12ac5c96cfabe01b9a9af",
      "transactionType": "CALL",
      "contractName": null,
      "contractAddress": "0x84e88ba8ab6da648af9eec3ec96d9797e0b6f6d3",
      "function": "applyChainUpdates(uint64[],(uint64,bytes[],bytes,(bool,uint128,uint128),(bool,uint128,uint128))[])",
      "arguments": [
        "[]",
        "[(3478487238524512106, [0x0000000000000000000000003c686ebe9387e0eae133828dc487035faf202229], 0x00000000000000000000000055124f045e07adbd3a3d46806db332651ea358a4, (false, 0, 0), (false, 0, 0)), (13264668187771770619, [0x00000000000000000000000055124f045e07adbd3a3d46806db332651ea358a4], 0x00000000000000000000000006a280f346baf8a62365e5d60c6211d1d96bbc49, (false, 0, 0), (false, 0, 0))]"
      ],
      "transaction": {
        "from": "0xae1710c414e95b83c247e01e8f30ee117771599b",
        "to": "0x84e88ba8ab6da648af9eec3ec96d9797e0b6f6d3",
        "gas": "0xc1752",
        "value": "0x0",
        "input": "0xe8a1da17000000000000000000000000000000000000000000000000000000000000004000000000000000000000000000000000000000000000000000000000000000600000000000000000000000000000000000000000000000000000000000000000000000000000000000000000000000000000000000000000000000000000000200000000000000000000000000000000000000000000000000000000000000400000000000000000000000000000000000000000000000000000000000000220000000000000000000000000000000000000000000000000304611b6affba76a000000000000000000000000000000000000000000000000000000000000012000000000000000000000000000000000000000000000000000000000000001a00000000000000000000000000000000000000000000000000000000000000000000000000000000000000000000000000000000000000000000000000000000000000000000000000000000000000000000000000000000000000000000000000000000000000000000000000000000000000000000000000000000000000000000000000000000000000000000000000000000000000000000000000000000000000000000000000000000000000000000000000000000000000000000000000000000000000000000000000000000000000000000000000000000000000001000000000000000000000000000000000000000000000000000000000000002000000000000000000000000000000000000000000000000000000000000000200000000000000000000000003c686ebe9387e0eae133828dc487035faf202229000000000000000000000000000000000000000000000000000000000000002000000000000000000000000055124f045e07adbd3a3d46806db332651ea358a4000000000000000000000000000000000000000000000000b8159170038f96fb000000000000000000000000000000000000000000000000000000000000012000000000000000000000000000000000000000000000000000000000000001a000000000000000000000000000000000000000000000000000000000000000000000000000000000000000000000000000000000000000000000000000000000000000000000000000000000000000000000000000000000000000000000000000000000000000000000000000000000000000000000000000000000000000000000000000000000000000000000000000000000000000000000000000000000000000000000000000000000000000000000000000000000000000000000000000000000000000000000000000000000000000000000000000000000000000010000000000000000000000000000000000000000000000000000000000000020000000000000000000000000000000000000000000000000000000000000002000000000000000000000000055124f045e07adbd3a3d46806db332651ea358a4000000000000000000000000000000000000000000000000000000000000002000000000000000000000000006a280f346baf8a62365e5d60c6211d1d96bbc49",
        "nonce": "0x17e",
        "chainId": "0xaa36a7"
      },
      "additionalContracts": [],
      "isFixedGasLimit": false
    }
  ],
  "receipts": [
    {
      "status": "0x1",
      "cumulativeGasUsed": "0xb36a98",
      "logs": [
        {
          "address": "0x84e88ba8ab6da648af9eec3ec96d9797e0b6f6d3",
          "topics": [
            "0x7d628c9a1796743d365ab521a8b2a4686e419b3269919dc9145ea2ce853b54ea",
            "0x000000000000000000000000000000000000000000000000304611b6affba76a"
          ],
          "data": "0x000000000000000000000000000000000000000000000000000000000000002000000000000000000000000000000000000000000000000000000000000000200000000000000000000000003c686ebe9387e0eae133828dc487035faf202229",
          "blockHash": "0xb397d2c0c97a9a4e0104776cd5e4e0f7f6d55d10e728f39eb3805da27b065bcf",
          "blockNumber": "0x7ba5e0",
          "transactionHash": "0x4bf2d9f663982a5a4c2224629cd10ee690925303f2e12ac5c96cfabe01b9a9af",
          "transactionIndex": "0x5c",
          "logIndex": "0xe7",
          "removed": false
        },
        {
          "address": "0x84e88ba8ab6da648af9eec3ec96d9797e0b6f6d3",
          "topics": [
            "0x8d340f17e19058004c20453540862a9c62778504476f6756755cb33bcd6c38c2"
          ],
          "data": "0x000000000000000000000000000000000000000000000000304611b6affba76a0000000000000000000000000000000000000000000000000000000000000100000000000000000000000000000000000000000000000000000000000000000000000000000000000000000000000000000000000000000000000000000000000000000000000000000000000000000000000000000000000000000000000000000000000000000000000000000000000000000000000000000000000000000000000000000000000000000000000000000000000000000000000000000000000000000000000000000000000000000000000000000000000000000000000000000000000000000000000000000000000000000000000000000000000000002000000000000000000000000055124f045e07adbd3a3d46806db332651ea358a4",
          "blockHash": "0xb397d2c0c97a9a4e0104776cd5e4e0f7f6d55d10e728f39eb3805da27b065bcf",
          "blockNumber": "0x7ba5e0",
          "transactionHash": "0x4bf2d9f663982a5a4c2224629cd10ee690925303f2e12ac5c96cfabe01b9a9af",
          "transactionIndex": "0x5c",
          "logIndex": "0xe8",
          "removed": false
        },
        {
          "address": "0x84e88ba8ab6da648af9eec3ec96d9797e0b6f6d3",
          "topics": [
            "0x7d628c9a1796743d365ab521a8b2a4686e419b3269919dc9145ea2ce853b54ea",
            "0x000000000000000000000000000000000000000000000000b8159170038f96fb"
          ],
          "data": "0x0000000000000000000000000000000000000000000000000000000000000020000000000000000000000000000000000000000000000000000000000000002000000000000000000000000055124f045e07adbd3a3d46806db332651ea358a4",
          "blockHash": "0xb397d2c0c97a9a4e0104776cd5e4e0f7f6d55d10e728f39eb3805da27b065bcf",
          "blockNumber": "0x7ba5e0",
          "transactionHash": "0x4bf2d9f663982a5a4c2224629cd10ee690925303f2e12ac5c96cfabe01b9a9af",
          "transactionIndex": "0x5c",
          "logIndex": "0xe9",
          "removed": false
        },
        {
          "address": "0x84e88ba8ab6da648af9eec3ec96d9797e0b6f6d3",
          "topics": [
            "0x8d340f17e19058004c20453540862a9c62778504476f6756755cb33bcd6c38c2"
          ],
          "data": "0x000000000000000000000000000000000000000000000000b8159170038f96fb0000000000000000000000000000000000000000000000000000000000000100000000000000000000000000000000000000000000000000000000000000000000000000000000000000000000000000000000000000000000000000000000000000000000000000000000000000000000000000000000000000000000000000000000000000000000000000000000000000000000000000000000000000000000000000000000000000000000000000000000000000000000000000000000000000000000000000000000000000000000000000000000000000000000000000000000000000000000000000000000000000000000000000000000000000002000000000000000000000000006a280f346baf8a62365e5d60c6211d1d96bbc49",
          "blockHash": "0xb397d2c0c97a9a4e0104776cd5e4e0f7f6d55d10e728f39eb3805da27b065bcf",
          "blockNumber": "0x7ba5e0",
          "transactionHash": "0x4bf2d9f663982a5a4c2224629cd10ee690925303f2e12ac5c96cfabe01b9a9af",
          "transactionIndex": "0x5c",
          "logIndex": "0xea",
          "removed": false
        }
      ],
      "logsBloom": "0x00000000000000400000000000000000000000000000000000000000000000000000000000000000000000000000000000000000080000000004000000020004000000000000000000000000000000004000000000000000000020000000000000000000000000000000000000000000000000000000000000000000000000400000000000000000000000000000000000020000000000000000000200000000000000000000000000000000000000000020000000000000000000000000000000000000000000000000000000000000000000000000000000000000080000000000000000000000000000000000000000000000008000000100000000200000",
      "type": "0x2",
      "transactionHash": "0x4bf2d9f663982a5a4c2224629cd10ee690925303f2e12ac5c96cfabe01b9a9af",
      "transactionIndex": "0x5c",
      "blockHash": "0xb397d2c0c97a9a4e0104776cd5e4e0f7f6d55d10e728f39eb3805da27b065bcf",
      "blockNumber": "0x7ba5e0",
      "gasUsed": "0x8c0f5",
      "effectiveGasPrice": "0x22832ac",
      "from": "0xae1710c414e95b83c247e01e8f30ee117771599b",
      "to": "0x84e88ba8ab6da648af9eec3ec96d9797e0b6f6d3",
      "contractAddress": null
    }
  ],
  "libraries": [],
  "pending": [],
  "returns": {},
  "timestamp": 1744454773,
  "chain": 11155111,
  "commit": "c0988c0"
}