{
  "transactions": [
    {
      "hash": "0xd2081ce816f1432d4a920e8601c310ee945cda12fbf7e4bd07e511df17b4761c",
      "transactionType": "CALL",
      "contractName": null,
      "contractAddress": "0x7f82767cb665661c3040ec19cc0a963482d969f6",
      "function": "applyChainUpdates(uint64[],(uint64,bytes[],bytes,(bool,uint128,uint128),(bool,uint128,uint128))[])",
      "arguments": [
        "[]",
        "[(3478487238524512106, [0x000000000000000000000000d14e942ed5faa4a760f70d1ab43ecb836c827012], 0x00000000000000000000000027284f231245df71d174eb143c89dcd79b98a920, (false, 0, 0), (false, 0, 0)), (13264668187771770619, [0x000000000000000000000000f628798084146ca57d9ce0f298d1b73cb2334744], 0x0000000000000000000000002a16a94262cb2243266a13af07c4f69bf5087786, (false, 0, 0), (false, 0, 0))]"
      ],
      "transaction": {
        "from": "0xae1710c414e95b83c247e01e8f30ee117771599b",
        "to": "0x7f82767cb665661c3040ec19cc0a963482d969f6",
        "gas": "0xc1752",
        "value": "0x0",
        "input": "0xe8a1da17000000000000000000000000000000000000000000000000000000000000004000000000000000000000000000000000000000000000000000000000000000600000000000000000000000000000000000000000000000000000000000000000000000000000000000000000000000000000000000000000000000000000000200000000000000000000000000000000000000000000000000000000000000400000000000000000000000000000000000000000000000000000000000000220000000000000000000000000000000000000000000000000304611b6affba76a000000000000000000000000000000000000000000000000000000000000012000000000000000000000000000000000000000000000000000000000000001a0000000000000000000000000000000000000000000000000000000000000000000000000000000000000000000000000000000000000000000000000000000000000000000000000000000000000000000000000000000000000000000000000000000000000000000000000000000000000000000000000000000000000000000000000000000000000000000000000000000000000000000000000000000000000000000000000000000000000000000000000000000000000000000000000000000000000000000000000000000000000000000000000000000000000000100000000000000000000000000000000000000000000000000000000000000200000000000000000000000000000000000000000000000000000000000000020000000000000000000000000d14e942ed5faa4a760f70d1ab43ecb836c827012000000000000000000000000000000000000000000000000000000000000002000000000000000000000000027284f231245df71d174eb143c89dcd79b98a920000000000000000000000000000000000000000000000000b8159170038f96fb000000000000000000000000000000000000000000000000000000000000012000000000000000000000000000000000000000000000000000000000000001a0000000000000000000000000000000000000000000000000000000000000000000000000000000000000000000000000000000000000000000000000000000000000000000000000000000000000000000000000000000000000000000000000000000000000000000000000000000000000000000000000000000000000000000000000000000000000000000000000000000000000000000000000000000000000000000000000000000000000000000000000000000000000000000000000000000000000000000000000000000000000000000000000000000000000000100000000000000000000000000000000000000000000000000000000000000200000000000000000000000000000000000000000000000000000000000000020000000000000000000000000f628798084146ca57d9ce0f298d1b73cb233474400000000000000000000000000000000000000000000000000000000000000200000000000000000000000002a16a94262cb2243266a13af07c4f69bf5087786",
        "nonce": "0x154",
        "chainId": "0xaa36a7"
      },
      "additionalContracts": [],
      "isFixedGasLimit": false
    }
  ],
  "receipts": [
    {
      "status": "0x1",
      "cumulativeGasUsed": "0xd568aa",
      "logs": [
        {
          "address": "0x7f82767cb665661c3040ec19cc0a963482d969f6",
          "topics": [
            "0x7d628c9a1796743d365ab521a8b2a4686e419b3269919dc9145ea2ce853b54ea",
            "0x000000000000000000000000000000000000000000000000304611b6affba76a"
          ],
          "data": "0x00000000000000000000000000000000000000000000000000000000000000200000000000000000000000000000000000000000000000000000000000000020000000000000000000000000d14e942ed5faa4a760f70d1ab43ecb836c827012",
          "blockHash": "0x1f6c04851f33760a8d4c9f56255fe113185621ea71afa9ade5f5102afe331d46",
          "blockNumber": "0x7b239b",
          "transactionHash": "0xd2081ce816f1432d4a920e8601c310ee945cda12fbf7e4bd07e511df17b4761c",
          "transactionIndex": "0x50",
          "logIndex": "0x90",
          "removed": false
        },
        {
          "address": "0x7f82767cb665661c3040ec19cc0a963482d969f6",
          "topics": [
            "0x8d340f17e19058004c20453540862a9c62778504476f6756755cb33bcd6c38c2"
          ],
          "data": "0x000000000000000000000000000000000000000000000000304611b6affba76a0000000000000000000000000000000000000000000000000000000000000100000000000000000000000000000000000000000000000000000000000000000000000000000000000000000000000000000000000000000000000000000000000000000000000000000000000000000000000000000000000000000000000000000000000000000000000000000000000000000000000000000000000000000000000000000000000000000000000000000000000000000000000000000000000000000000000000000000000000000000000000000000000000000000000000000000000000000000000000000000000000000000000000000000000000002000000000000000000000000027284f231245df71d174eb143c89dcd79b98a920",
          "blockHash": "0x1f6c04851f33760a8d4c9f56255fe113185621ea71afa9ade5f5102afe331d46",
          "blockNumber": "0x7b239b",
          "transactionHash": "0xd2081ce816f1432d4a920e8601c310ee945cda12fbf7e4bd07e511df17b4761c",
          "transactionIndex": "0x50",
          "logIndex": "0x91",
          "removed": false
        },
        {
          "address": "0x7f82767cb665661c3040ec19cc0a963482d969f6",
          "topics": [
            "0x7d628c9a1796743d365ab521a8b2a4686e419b3269919dc9145ea2ce853b54ea",
            "0x000000000000000000000000000000000000000000000000b8159170038f96fb"
          ],
          "data": "0x00000000000000000000000000000000000000000000000000000000000000200000000000000000000000000000000000000000000000000000000000000020000000000000000000000000f628798084146ca57d9ce0f298d1b73cb2334744",
          "blockHash": "0x1f6c04851f33760a8d4c9f56255fe113185621ea71afa9ade5f5102afe331d46",
          "blockNumber": "0x7b239b",
          "transactionHash": "0xd2081ce816f1432d4a920e8601c310ee945cda12fbf7e4bd07e511df17b4761c",
          "transactionIndex": "0x50",
          "logIndex": "0x92",
          "removed": false
        },
        {
          "address": "0x7f82767cb665661c3040ec19cc0a963482d969f6",
          "topics": [
            "0x8d340f17e19058004c20453540862a9c62778504476f6756755cb33bcd6c38c2"
          ],
          "data": "0x000000000000000000000000000000000000000000000000b8159170038f96fb000000000000000000000000000000000000000000000000000000000000010000000000000000000000000000000000000000000000000000000000000000000000000000000000000000000000000000000000000000000000000000000000000000000000000000000000000000000000000000000000000000000000000000000000000000000000000000000000000000000000000000000000000000000000000000000000000000000000000000000000000000000000000000000000000000000000000000000000000000000000000000000000000000000000000000000000000000000000000000000000000000000000000000000000000000200000000000000000000000002a16a94262cb2243266a13af07c4f69bf5087786",
          "blockHash": "0x1f6c04851f33760a8d4c9f56255fe113185621ea71afa9ade5f5102afe331d46",
          "blockNumber": "0x7b239b",
          "transactionHash": "0xd2081ce816f1432d4a920e8601c310ee945cda12fbf7e4bd07e511df17b4761c",
          "transactionIndex": "0x50",
          "logIndex": "0x93",
          "removed": false
        }
      ],
      "logsBloom": "0x00000000000000400000000000000000000000000000000000000000000000000000000000000000000000000000000000000000080000000004000000000004000000000000000000000000000000004000000000000000004000000000000000000000000000000000000000000000000000000000000000000000000000400000000000000000000000000000000000000000000000000000000200000000000000000000000000000000000000000020000000000000000000000000000000000000000000000000000000000000000000000000000000000000080000000000000000000000002000000000000000040000008000000100000000200000",
      "type": "0x2",
      "transactionHash": "0xd2081ce816f1432d4a920e8601c310ee945cda12fbf7e4bd07e511df17b4761c",
      "transactionIndex": "0x50",
      "blockHash": "0x1f6c04851f33760a8d4c9f56255fe113185621ea71afa9ade5f5102afe331d46",
      "blockNumber": "0x7b239b",
      "gasUsed": "0x8c0f5",
      "effectiveGasPrice": "0x83a7d28c",
      "from": "0xae1710c414e95b83c247e01e8f30ee117771599b",
      "to": "0x7f82767cb665661c3040ec19cc0a963482d969f6",
      "contractAddress": null
    }
  ],
  "libraries": [],
  "pending": [],
  "returns": {},
  "timestamp": 1744028126,
  "chain": 11155111,
  "commit": "fee06cf"
}