{
  "transactions": [
    {
      "hash": "0x4c69b15675f4a6310bf87ca69649b2c3978739a4376f6419d228fea167f52491",
      "transactionType": "CALL",
      "contractName": null,
      "contractAddress": "0xa044045b799478110a32f539e881e681881a30f5",
      "function": "applyChainUpdates(uint64[],(uint64,bytes[],bytes,(bool,uint128,uint128),(bool,uint128,uint128))[])",
      "arguments": [
        "[]",
        "[(3478487238524512106, [0x000000000000000000000000ab0f46d41771d323faff408073e4199640a7b625], 0x000000000000000000000000620b2394db7158b3e59f1140a94019963e18eb71, (true, 100000, 167), (true, 100000, 167)), (13264668187771770619, [0x00000000000000000000000025f5426b4cece20dcfb01dd979f1bc646d0ecac9], 0x000000000000000000000000b454a9e8c1ff790ee55aae7c74448ddcd75b5725, (true, 100000, 167), (true, 100000, 167))]"
      ],
      "transaction": {
        "from": "0xae1710c414e95b83c247e01e8f30ee117771599b",
        "to": "0xa044045b799478110a32f539e881e681881a30f5",
        "gas": "0xdc623",
        "value": "0x0",
        "input": "0xe8a1da17000000000000000000000000000000000000000000000000000000000000004000000000000000000000000000000000000000000000000000000000000000600000000000000000000000000000000000000000000000000000000000000000000000000000000000000000000000000000000000000000000000000000000200000000000000000000000000000000000000000000000000000000000000400000000000000000000000000000000000000000000000000000000000000220000000000000000000000000000000000000000000000000304611b6affba76a000000000000000000000000000000000000000000000000000000000000012000000000000000000000000000000000000000000000000000000000000001a0000000000000000000000000000000000000000000000000000000000000000100000000000000000000000000000000000000000000000000000000000186a000000000000000000000000000000000000000000000000000000000000000a7000000000000000000000000000000000000000000000000000000000000000100000000000000000000000000000000000000000000000000000000000186a000000000000000000000000000000000000000000000000000000000000000a7000000000000000000000000000000000000000000000000000000000000000100000000000000000000000000000000000000000000000000000000000000200000000000000000000000000000000000000000000000000000000000000020000000000000000000000000ab0f46d41771d323faff408073e4199640a7b6250000000000000000000000000000000000000000000000000000000000000020000000000000000000000000620b2394db7158b3e59f1140a94019963e18eb71000000000000000000000000000000000000000000000000b8159170038f96fb000000000000000000000000000000000000000000000000000000000000012000000000000000000000000000000000000000000000000000000000000001a0000000000000000000000000000000000000000000000000000000000000000100000000000000000000000000000000000000000000000000000000000186a000000000000000000000000000000000000000000000000000000000000000a7000000000000000000000000000000000000000000000000000000000000000100000000000000000000000000000000000000000000000000000000000186a000000000000000000000000000000000000000000000000000000000000000a700000000000000000000000000000000000000000000000000000000000000010000000000000000000000000000000000000000000000000000000000000020000000000000000000000000000000000000000000000000000000000000002000000000000000000000000025f5426b4cece20dcfb01dd979f1bc646d0ecac90000000000000000000000000000000000000000000000000000000000000020000000000000000000000000b454a9e8c1ff790ee55aae7c74448ddcd75b5725",
        "nonce": "0x10d",
        "chainId": "0xaa36a7"
      },
      "additionalContracts": [],
      "isFixedGasLimit": false
    }
  ],
  "receipts": [
    {
      "status": "0x1",
      "cumulativeGasUsed": "0x9ea66e",
      "logs": [
        {
          "address": "0xa044045b799478110a32f539e881e681881a30f5",
          "topics": [
            "0x7d628c9a1796743d365ab521a8b2a4686e419b3269919dc9145ea2ce853b54ea",
            "0x000000000000000000000000000000000000000000000000304611b6affba76a"
          ],
          "data": "0x00000000000000000000000000000000000000000000000000000000000000200000000000000000000000000000000000000000000000000000000000000020000000000000000000000000ab0f46d41771d323faff408073e4199640a7b625",
          "blockHash": "0xa08e6b8bc63e2a0528f4b13b6b7c6c27323e6d2e35234848ee13cc3460eb0668",
          "blockNumber": "0x7ae7ef",
          "transactionHash": "0x4c69b15675f4a6310bf87ca69649b2c3978739a4376f6419d228fea167f52491",
          "transactionIndex": "0x57",
          "logIndex": "0x78",
          "removed": false
        },
        {
          "address": "0xa044045b799478110a32f539e881e681881a30f5",
          "topics": [
            "0x8d340f17e19058004c20453540862a9c62778504476f6756755cb33bcd6c38c2"
          ],
          "data": "0x000000000000000000000000000000000000000000000000304611b6affba76a0000000000000000000000000000000000000000000000000000000000000100000000000000000000000000000000000000000000000000000000000000000100000000000000000000000000000000000000000000000000000000000186a000000000000000000000000000000000000000000000000000000000000000a7000000000000000000000000000000000000000000000000000000000000000100000000000000000000000000000000000000000000000000000000000186a000000000000000000000000000000000000000000000000000000000000000a70000000000000000000000000000000000000000000000000000000000000020000000000000000000000000620b2394db7158b3e59f1140a94019963e18eb71",
          "blockHash": "0xa08e6b8bc63e2a0528f4b13b6b7c6c27323e6d2e35234848ee13cc3460eb0668",
          "blockNumber": "0x7ae7ef",
          "transactionHash": "0x4c69b15675f4a6310bf87ca69649b2c3978739a4376f6419d228fea167f52491",
          "transactionIndex": "0x57",
          "logIndex": "0x79",
          "removed": false
        },
        {
          "address": "0xa044045b799478110a32f539e881e681881a30f5",
          "topics": [
            "0x7d628c9a1796743d365ab521a8b2a4686e419b3269919dc9145ea2ce853b54ea",
            "0x000000000000000000000000000000000000000000000000b8159170038f96fb"
          ],
          "data": "0x0000000000000000000000000000000000000000000000000000000000000020000000000000000000000000000000000000000000000000000000000000002000000000000000000000000025f5426b4cece20dcfb01dd979f1bc646d0ecac9",
          "blockHash": "0xa08e6b8bc63e2a0528f4b13b6b7c6c27323e6d2e35234848ee13cc3460eb0668",
          "blockNumber": "0x7ae7ef",
          "transactionHash": "0x4c69b15675f4a6310bf87ca69649b2c3978739a4376f6419d228fea167f52491",
          "transactionIndex": "0x57",
          "logIndex": "0x7a",
          "removed": false
        },
        {
          "address": "0xa044045b799478110a32f539e881e681881a30f5",
          "topics": [
            "0x8d340f17e19058004c20453540862a9c62778504476f6756755cb33bcd6c38c2"
          ],
          "data": "0x000000000000000000000000000000000000000000000000b8159170038f96fb0000000000000000000000000000000000000000000000000000000000000100000000000000000000000000000000000000000000000000000000000000000100000000000000000000000000000000000000000000000000000000000186a000000000000000000000000000000000000000000000000000000000000000a7000000000000000000000000000000000000000000000000000000000000000100000000000000000000000000000000000000000000000000000000000186a000000000000000000000000000000000000000000000000000000000000000a70000000000000000000000000000000000000000000000000000000000000020000000000000000000000000b454a9e8c1ff790ee55aae7c74448ddcd75b5725",
          "blockHash": "0xa08e6b8bc63e2a0528f4b13b6b7c6c27323e6d2e35234848ee13cc3460eb0668",
          "blockNumber": "0x7ae7ef",
          "transactionHash": "0x4c69b15675f4a6310bf87ca69649b2c3978739a4376f6419d228fea167f52491",
          "transactionIndex": "0x57",
          "logIndex": "0x7b",
          "removed": false
        }
      ],
      "logsBloom": "0x00000000000000400000000000000000002000000000000000000000000000000000000400000000000000000000000000000000080000000004000000000004000000000000000000000000000000004000000000000000000000000000000000000000000000000000000000000000000000000000000000000000000000400000000000000000000000000000000010000000000000000000000200000000000000000000000000000000000000000020000000000000000000000000000000000000000000000000000000000000000000000000000000000000080000000000000000000000000000000000000000000000008000000100000000200000",
      "type": "0x2",
      "transactionHash": "0x4c69b15675f4a6310bf87ca69649b2c3978739a4376f6419d228fea167f52491",
      "transactionIndex": "0x57",
      "blockHash": "0xa08e6b8bc63e2a0528f4b13b6b7c6c27323e6d2e35234848ee13cc3460eb0668",
      "blockNumber": "0x7ae7ef",
      "gasUsed": "0x9f8dd",
      "effectiveGasPrice": "0x1cbbac",
      "from": "0xae1710c414e95b83c247e01e8f30ee117771599b",
      "to": "0xa044045b799478110a32f539e881e681881a30f5",
      "contractAddress": null
    }
  ],
  "libraries": [],
  "pending": [],
  "returns": {},
  "timestamp": 1743839461,
  "chain": 11155111,
  "commit": "fee06cf"
}