{
  "transactions": [
    {
      "hash": "0xd593a1a8fde86dd67861d6dd70cdeaa9271ccc8124111f0254ea0ff510479fa7",
      "transactionType": "CALL",
      "contractName": null,
      "contractAddress": "0x2be82989f093dac5e9c27857d31201e744bd7b23",
      "function": "applyChainUpdates(uint64[],(uint64,bytes[],bytes,(bool,uint128,uint128),(bool,uint128,uint128))[])",
      "arguments": [
        "[]",
        "[(3478487238524512106, [0x000000000000000000000000c17fe900e901bc36ef21c9f757b8427ba35ade19], 0x0000000000000000000000008afc29287a2c676a7d3441209b9c908eafacc979, (true, 100000, 167), (true, 100000, 167))]"
      ],
      "transaction": {
        "from": "0xae1710c414e95b83c247e01e8f30ee117771599b",
        "to": "0x2be82989f093dac5e9c27857d31201e744bd7b23",
        "gas": "0x761ac",
        "value": "0x0",
        "input": "0xe8a1da1700000000000000000000000000000000000000000000000000000000000000400000000000000000000000000000000000000000000000000000000000000060000000000000000000000000000000000000000000000000000000000000000000000000000000000000000000000000000000000000000000000000000000010000000000000000000000000000000000000000000000000000000000000020000000000000000000000000000000000000000000000000304611b6affba76a000000000000000000000000000000000000000000000000000000000000012000000000000000000000000000000000000000000000000000000000000001a0000000000000000000000000000000000000000000000000000000000000000100000000000000000000000000000000000000000000000000000000000186a000000000000000000000000000000000000000000000000000000000000000a7000000000000000000000000000000000000000000000000000000000000000100000000000000000000000000000000000000000000000000000000000186a000000000000000000000000000000000000000000000000000000000000000a7000000000000000000000000000000000000000000000000000000000000000100000000000000000000000000000000000000000000000000000000000000200000000000000000000000000000000000000000000000000000000000000020000000000000000000000000c17fe900e901bc36ef21c9f757b8427ba35ade1900000000000000000000000000000000000000000000000000000000000000200000000000000000000000008afc29287a2c676a7d3441209b9c908eafacc979",
        "nonce": "0xcf",
        "chainId": "0xaa36a7"
      },
      "additionalContracts": [],
      "isFixedGasLimit": false
    }
  ],
  "receipts": [
    {
      "status": "0x1",
      "cumulativeGasUsed": "0xdb3adc",
      "logs": [
        {
          "address": "0x2be82989f093dac5e9c27857d31201e744bd7b23",
          "topics": [
            "0x7d628c9a1796743d365ab521a8b2a4686e419b3269919dc9145ea2ce853b54ea",
            "0x000000000000000000000000000000000000000000000000304611b6affba76a"
          ],
          "data": "0x00000000000000000000000000000000000000000000000000000000000000200000000000000000000000000000000000000000000000000000000000000020000000000000000000000000c17fe900e901bc36ef21c9f757b8427ba35ade19",
          "blockHash": "0x31224d7950557b0cf6e209544ccb4653bcbbe5f68b3ab1ed900d2136d543dafe",
          "blockNumber": "0x7a19ab",
          "transactionHash": "0xd593a1a8fde86dd67861d6dd70cdeaa9271ccc8124111f0254ea0ff510479fa7",
          "transactionIndex": "0x82",
          "logIndex": "0xaa",
          "removed": false
        },
        {
          "address": "0x2be82989f093dac5e9c27857d31201e744bd7b23",
          "topics": [
            "0x8d340f17e19058004c20453540862a9c62778504476f6756755cb33bcd6c38c2"
          ],
          "data": "0x000000000000000000000000000000000000000000000000304611b6affba76a0000000000000000000000000000000000000000000000000000000000000100000000000000000000000000000000000000000000000000000000000000000100000000000000000000000000000000000000000000000000000000000186a000000000000000000000000000000000000000000000000000000000000000a7000000000000000000000000000000000000000000000000000000000000000100000000000000000000000000000000000000000000000000000000000186a000000000000000000000000000000000000000000000000000000000000000a700000000000000000000000000000000000000000000000000000000000000200000000000000000000000008afc29287a2c676a7d3441209b9c908eafacc979",
          "blockHash": "0x31224d7950557b0cf6e209544ccb4653bcbbe5f68b3ab1ed900d2136d543dafe",
          "blockNumber": "0x7a19ab",
          "transactionHash": "0xd593a1a8fde86dd67861d6dd70cdeaa9271ccc8124111f0254ea0ff510479fa7",
          "transactionIndex": "0x82",
          "logIndex": "0xab",
          "removed": false
        }
      ],
      "logsBloom": "0x00000000000000400000000000000000000000000000000000000000000000000000000000000000000000000000000000000000080000000004000000000004000000000000000000000000000000000000000000000000000000000000000000000000000000000000000000000000000000000000000000000000000000400020000000000000000000000000000000000000000000000000000000000000000000000000000000000000000000000000000000000000000000000000000000000000000000000000000000000000000000000000000000000000080000000000000000000000000000000000000000000000208000000100000008200000",
      "type": "0x2",
      "transactionHash": "0xd593a1a8fde86dd67861d6dd70cdeaa9271ccc8124111f0254ea0ff510479fa7",
      "transactionIndex": "0x82",
      "blockHash": "0x31224d7950557b0cf6e209544ccb4653bcbbe5f68b3ab1ed900d2136d543dafe",
      "blockNumber": "0x7a19ab",
      "gasUsed": "0x55817",
      "effectiveGasPrice": "0x3f7658",
      "from": "0xae1710c414e95b83c247e01e8f30ee117771599b",
      "to": "0x2be82989f093dac5e9c27857d31201e744bd7b23",
      "contractAddress": null
    }
  ],
  "libraries": [],
  "pending": [],
  "returns": {},
  "timestamp": 1743193527,
  "chain": 11155111,
  "commit": "fee06cf"
}