{
  "transactions": [
    {
      "hash": "0x33478783f92801a00ed222ee3ecdeba690866079f472d2ceeee1139b1256533b",
      "transactionType": "CALL",
      "contractName": null,
      "contractAddress": "0xc459b032cfad9988e0ef174f7872a2d68f6879be",
      "function": "applyChainUpdates(uint64[],(uint64,bytes[],bytes,(bool,uint128,uint128),(bool,uint128,uint128))[])",
      "arguments": [
        "[]",
        "[(3478487238524512106, [0x0000000000000000000000005b27e1be18523fcf28b2dfdc73cbca267faf5859], 0x00000000000000000000000000a65efa887a2e6b822dd613d8272788f3b40f5d, (false, 0, 0), (false, 0, 0)), (13264668187771770619, [0x0000000000000000000000005adad530492e7b0228b31e4935fb6c3227a46412], 0x0000000000000000000000005436fdbe11cca6c70f80c1f160e636859b4d7493, (false, 0, 0), (false, 0, 0))]"
      ],
      "transaction": {
        "from": "0xae1710c414e95b83c247e01e8f30ee117771599b",
        "to": "0xc459b032cfad9988e0ef174f7872a2d68f6879be",
        "gas": "0xccd54",
        "value": "0x0",
        "input": "0xe8a1da17000000000000000000000000000000000000000000000000000000000000004000000000000000000000000000000000000000000000000000000000000000600000000000000000000000000000000000000000000000000000000000000000000000000000000000000000000000000000000000000000000000000000000200000000000000000000000000000000000000000000000000000000000000400000000000000000000000000000000000000000000000000000000000000220000000000000000000000000000000000000000000000000304611b6affba76a000000000000000000000000000000000000000000000000000000000000012000000000000000000000000000000000000000000000000000000000000001a00000000000000000000000000000000000000000000000000000000000000000000000000000000000000000000000000000000000000000000000000000000000000000000000000000000000000000000000000000000000000000000000000000000000000000000000000000000000000000000000000000000000000000000000000000000000000000000000000000000000000000000000000000000000000000000000000000000000000000000000000000000000000000000000000000000000000000000000000000000000000000000000000000000000000001000000000000000000000000000000000000000000000000000000000000002000000000000000000000000000000000000000000000000000000000000000200000000000000000000000005b27e1be18523fcf28b2dfdc73cbca267faf5859000000000000000000000000000000000000000000000000000000000000002000000000000000000000000000a65efa887a2e6b822dd613d8272788f3b40f5d000000000000000000000000000000000000000000000000b8159170038f96fb000000000000000000000000000000000000000000000000000000000000012000000000000000000000000000000000000000000000000000000000000001a00000000000000000000000000000000000000000000000000000000000000000000000000000000000000000000000000000000000000000000000000000000000000000000000000000000000000000000000000000000000000000000000000000000000000000000000000000000000000000000000000000000000000000000000000000000000000000000000000000000000000000000000000000000000000000000000000000000000000000000000000000000000000000000000000000000000000000000000000000000000000000000000000000000000000001000000000000000000000000000000000000000000000000000000000000002000000000000000000000000000000000000000000000000000000000000000200000000000000000000000005adad530492e7b0228b31e4935fb6c3227a4641200000000000000000000000000000000000000000000000000000000000000200000000000000000000000005436fdbe11cca6c70f80c1f160e636859b4d7493",
        "nonce": "0x19d",
        "chainId": "0xaa36a7"
      },
      "additionalContracts": [],
      "isFixedGasLimit": false
    }
  ],
  "receipts": [
    {
      "status": "0x1",
      "cumulativeGasUsed": "0xaa7cc3",
      "logs": [
        {
          "address": "0xc459b032cfad9988e0ef174f7872a2d68f6879be",
          "topics": [
            "0x7d628c9a1796743d365ab521a8b2a4686e419b3269919dc9145ea2ce853b54ea",
            "0x000000000000000000000000000000000000000000000000304611b6affba76a"
          ],
          "data": "0x000000000000000000000000000000000000000000000000000000000000002000000000000000000000000000000000000000000000000000000000000000200000000000000000000000005b27e1be18523fcf28b2dfdc73cbca267faf5859",
          "blockHash": "0xdeba7c84312caf188ed474a1f98d7c7058737b8f461241b057fca14962de6bf9",
          "blockNumber": "0x7ba800",
          "transactionHash": "0x33478783f92801a00ed222ee3ecdeba690866079f472d2ceeee1139b1256533b",
          "transactionIndex": "0x6b",
          "logIndex": "0x98",
          "removed": false
        },
        {
          "address": "0xc459b032cfad9988e0ef174f7872a2d68f6879be",
          "topics": [
            "0x8d340f17e19058004c20453540862a9c62778504476f6756755cb33bcd6c38c2"
          ],
          "data": "0x000000000000000000000000000000000000000000000000304611b6affba76a0000000000000000000000000000000000000000000000000000000000000100000000000000000000000000000000000000000000000000000000000000000000000000000000000000000000000000000000000000000000000000000000000000000000000000000000000000000000000000000000000000000000000000000000000000000000000000000000000000000000000000000000000000000000000000000000000000000000000000000000000000000000000000000000000000000000000000000000000000000000000000000000000000000000000000000000000000000000000000000000000000000000000000000000000000002000000000000000000000000000a65efa887a2e6b822dd613d8272788f3b40f5d",
          "blockHash": "0xdeba7c84312caf188ed474a1f98d7c7058737b8f461241b057fca14962de6bf9",
          "blockNumber": "0x7ba800",
          "transactionHash": "0x33478783f92801a00ed222ee3ecdeba690866079f472d2ceeee1139b1256533b",
          "transactionIndex": "0x6b",
          "logIndex": "0x99",
          "removed": false
        },
        {
          "address": "0xc459b032cfad9988e0ef174f7872a2d68f6879be",
          "topics": [
            "0x7d628c9a1796743d365ab521a8b2a4686e419b3269919dc9145ea2ce853b54ea",
            "0x000000000000000000000000000000000000000000000000b8159170038f96fb"
          ],
          "data": "0x000000000000000000000000000000000000000000000000000000000000002000000000000000000000000000000000000000000000000000000000000000200000000000000000000000005adad530492e7b0228b31e4935fb6c3227a46412",
          "blockHash": "0xdeba7c84312caf188ed474a1f98d7c7058737b8f461241b057fca14962de6bf9",
          "blockNumber": "0x7ba800",
          "transactionHash": "0x33478783f92801a00ed222ee3ecdeba690866079f472d2ceeee1139b1256533b",
          "transactionIndex": "0x6b",
          "logIndex": "0x9a",
          "removed": false
        },
        {
          "address": "0xc459b032cfad9988e0ef174f7872a2d68f6879be",
          "topics": [
            "0x8d340f17e19058004c20453540862a9c62778504476f6756755cb33bcd6c38c2"
          ],
          "data": "0x000000000000000000000000000000000000000000000000b8159170038f96fb000000000000000000000000000000000000000000000000000000000000010000000000000000000000000000000000000000000000000000000000000000000000000000000000000000000000000000000000000000000000000000000000000000000000000000000000000000000000000000000000000000000000000000000000000000000000000000000000000000000000000000000000000000000000000000000000000000000000000000000000000000000000000000000000000000000000000000000000000000000000000000000000000000000000000000000000000000000000000000000000000000000000000000000000000000200000000000000000000000005436fdbe11cca6c70f80c1f160e636859b4d7493",
          "blockHash": "0xdeba7c84312caf188ed474a1f98d7c7058737b8f461241b057fca14962de6bf9",
          "blockNumber": "0x7ba800",
          "transactionHash": "0x33478783f92801a00ed222ee3ecdeba690866079f472d2ceeee1139b1256533b",
          "transactionIndex": "0x6b",
          "logIndex": "0x9b",
          "removed": false
        }
      ],
      "logsBloom": "0x00000000000000400000000000000000000000000000000000000000000000000000000000000000000000000000000000000000080000000004000000000004000000002000000000000000000000004000000000000000000000000000000000000000000000000000000000000000000000000000000000000000000000400000000000000000000000000000000000000000000000000000000200000000000000000000000000000000000000000020000000000000000000000004000000000000000000000000000000000000200000000000000000000000080000000000000000000000000000000000000000000000008000000100000000200000",
      "type": "0x2",
      "transactionHash": "0x33478783f92801a00ed222ee3ecdeba690866079f472d2ceeee1139b1256533b",
      "transactionIndex": "0x6b",
      "blockHash": "0xdeba7c84312caf188ed474a1f98d7c7058737b8f461241b057fca14962de6bf9",
      "blockNumber": "0x7ba800",
      "gasUsed": "0x8c0e9",
      "effectiveGasPrice": "0x1c23df",
      "from": "0xae1710c414e95b83c247e01e8f30ee117771599b",
      "to": "0xc459b032cfad9988e0ef174f7872a2d68f6879be",
      "contractAddress": null
    }
  ],
  "libraries": [],
  "pending": [],
  "returns": {},
  "timestamp": 1744461950,
  "chain": 11155111,
  "commit": "c0988c0"
}