{
  "transactions": [
    {
      "hash": "0x3ecdf384291d14cc2a54cbd36ab6f51a89656998e1fb13e1cd2ce5ad984e8cb3",
      "transactionType": "CALL",
      "contractName": null,
      "contractAddress": "0x72145021ad0d3fa57493b9e9fb6f497baeb3f26b",
      "function": "applyChainUpdates(uint64[],(uint64,bytes[],bytes,(bool,uint128,uint128),(bool,uint128,uint128))[])",
      "arguments": [
        "[]",
        "[(3478487238524512106, [0x000000000000000000000000119f8b2ed721256378811d170317289dddb0692c], 0x0000000000000000000000003bbbe45540521b404663757c2e846df9fe97c018, (false, 0, 0), (false, 0, 0)), (13264668187771770619, [0x0000000000000000000000007f7a6190fe17135e6d949cab43fb0e5c2c39e5f9], 0x000000000000000000000000c1757d836ad469066a5f7d8ec710b5f2c3930a17, (false, 0, 0), (false, 0, 0))]"
      ],
      "transaction": {
        "from": "0xae1710c414e95b83c247e01e8f30ee117771599b",
        "to": "0x72145021ad0d3fa57493b9e9fb6f497baeb3f26b",
        "gas": "0xc1752",
        "value": "0x0",
        "input": "0xe8a1da17000000000000000000000000000000000000000000000000000000000000004000000000000000000000000000000000000000000000000000000000000000600000000000000000000000000000000000000000000000000000000000000000000000000000000000000000000000000000000000000000000000000000000200000000000000000000000000000000000000000000000000000000000000400000000000000000000000000000000000000000000000000000000000000220000000000000000000000000000000000000000000000000304611b6affba76a000000000000000000000000000000000000000000000000000000000000012000000000000000000000000000000000000000000000000000000000000001a0000000000000000000000000000000000000000000000000000000000000000000000000000000000000000000000000000000000000000000000000000000000000000000000000000000000000000000000000000000000000000000000000000000000000000000000000000000000000000000000000000000000000000000000000000000000000000000000000000000000000000000000000000000000000000000000000000000000000000000000000000000000000000000000000000000000000000000000000000000000000000000000000000000000000000100000000000000000000000000000000000000000000000000000000000000200000000000000000000000000000000000000000000000000000000000000020000000000000000000000000119f8b2ed721256378811d170317289dddb0692c00000000000000000000000000000000000000000000000000000000000000200000000000000000000000003bbbe45540521b404663757c2e846df9fe97c018000000000000000000000000000000000000000000000000b8159170038f96fb000000000000000000000000000000000000000000000000000000000000012000000000000000000000000000000000000000000000000000000000000001a00000000000000000000000000000000000000000000000000000000000000000000000000000000000000000000000000000000000000000000000000000000000000000000000000000000000000000000000000000000000000000000000000000000000000000000000000000000000000000000000000000000000000000000000000000000000000000000000000000000000000000000000000000000000000000000000000000000000000000000000000000000000000000000000000000000000000000000000000000000000000000000000000000000000000001000000000000000000000000000000000000000000000000000000000000002000000000000000000000000000000000000000000000000000000000000000200000000000000000000000007f7a6190fe17135e6d949cab43fb0e5c2c39e5f90000000000000000000000000000000000000000000000000000000000000020000000000000000000000000c1757d836ad469066a5f7d8ec710b5f2c3930a17",
        "nonce": "0x16e",
        "chainId": "0xaa36a7"
      },
      "additionalContracts": [],
      "isFixedGasLimit": false
    }
  ],
  "receipts": [
    {
      "status": "0x1",
      "cumulativeGasUsed": "0x786a80",
      "logs": [
        {
          "address": "0x72145021ad0d3fa57493b9e9fb6f497baeb3f26b",
          "topics": [
            "0x7d628c9a1796743d365ab521a8b2a4686e419b3269919dc9145ea2ce853b54ea",
            "0x000000000000000000000000000000000000000000000000304611b6affba76a"
          ],
          "data": "0x00000000000000000000000000000000000000000000000000000000000000200000000000000000000000000000000000000000000000000000000000000020000000000000000000000000119f8b2ed721256378811d170317289dddb0692c",
          "blockHash": "0x8c4feeaaa6736a028e9e72a43df861fac5b279bb6d0fbc9312b38b7ed733e5a7",
          "blockNumber": "0x7b6283",
          "transactionHash": "0x3ecdf384291d14cc2a54cbd36ab6f51a89656998e1fb13e1cd2ce5ad984e8cb3",
          "transactionIndex": "0x3b",
          "logIndex": "0xd2",
          "removed": false
        },
        {
          "address": "0x72145021ad0d3fa57493b9e9fb6f497baeb3f26b",
          "topics": [
            "0x8d340f17e19058004c20453540862a9c62778504476f6756755cb33bcd6c38c2"
          ],
          "data": "0x000000000000000000000000000000000000000000000000304611b6affba76a000000000000000000000000000000000000000000000000000000000000010000000000000000000000000000000000000000000000000000000000000000000000000000000000000000000000000000000000000000000000000000000000000000000000000000000000000000000000000000000000000000000000000000000000000000000000000000000000000000000000000000000000000000000000000000000000000000000000000000000000000000000000000000000000000000000000000000000000000000000000000000000000000000000000000000000000000000000000000000000000000000000000000000000000000000200000000000000000000000003bbbe45540521b404663757c2e846df9fe97c018",
          "blockHash": "0x8c4feeaaa6736a028e9e72a43df861fac5b279bb6d0fbc9312b38b7ed733e5a7",
          "blockNumber": "0x7b6283",
          "transactionHash": "0x3ecdf384291d14cc2a54cbd36ab6f51a89656998e1fb13e1cd2ce5ad984e8cb3",
          "transactionIndex": "0x3b",
          "logIndex": "0xd3",
          "removed": false
        },
        {
          "address": "0x72145021ad0d3fa57493b9e9fb6f497baeb3f26b",
          "topics": [
            "0x7d628c9a1796743d365ab521a8b2a4686e419b3269919dc9145ea2ce853b54ea",
            "0x000000000000000000000000000000000000000000000000b8159170038f96fb"
          ],
          "data": "0x000000000000000000000000000000000000000000000000000000000000002000000000000000000000000000000000000000000000000000000000000000200000000000000000000000007f7a6190fe17135e6d949cab43fb0e5c2c39e5f9",
          "blockHash": "0x8c4feeaaa6736a028e9e72a43df861fac5b279bb6d0fbc9312b38b7ed733e5a7",
          "blockNumber": "0x7b6283",
          "transactionHash": "0x3ecdf384291d14cc2a54cbd36ab6f51a89656998e1fb13e1cd2ce5ad984e8cb3",
          "transactionIndex": "0x3b",
          "logIndex": "0xd4",
          "removed": false
        },
        {
          "address": "0x72145021ad0d3fa57493b9e9fb6f497baeb3f26b",
          "topics": [
            "0x8d340f17e19058004c20453540862a9c62778504476f6756755cb33bcd6c38c2"
          ],
          "data": "0x000000000000000000000000000000000000000000000000b8159170038f96fb00000000000000000000000000000000000000000000000000000000000001000000000000000000000000000000000000000000000000000000000000000000000000000000000000000000000000000000000000000000000000000000000000000000000000000000000000000000000000000000000000000000000000000000000000000000000000000000000000000000000000000000000000000000000000000000000000000000000000000000000000000000000000000000000000000000000000000000000000000000000000000000000000000000000000000000000000000000000000000000000000000000000000000000000000000020000000000000000000000000c1757d836ad469066a5f7d8ec710b5f2c3930a17",
          "blockHash": "0x8c4feeaaa6736a028e9e72a43df861fac5b279bb6d0fbc9312b38b7ed733e5a7",
          "blockNumber": "0x7b6283",
          "transactionHash": "0x3ecdf384291d14cc2a54cbd36ab6f51a89656998e1fb13e1cd2ce5ad984e8cb3",
          "transactionIndex": "0x3b",
          "logIndex": "0xd5",
          "removed": false
        }
      ],
      "logsBloom": "0x00000000000000400000000000000000000000000000000000000000000000000000000000000000000000000000000000000000080000000004000000000004000000000000000000000000000000004000000010000000000000000000000000000000000000000000000000000000000000000000000000000040000000400000000000000000000000000000000000000000000000000000000200000000000000000000400000000000000000000020000000000000000000000000000000000000000000000000000000000000000000000000000000000000080000000000000000000000000000000000000000000000008000000100000000200000",
      "type": "0x2",
      "transactionHash": "0x3ecdf384291d14cc2a54cbd36ab6f51a89656998e1fb13e1cd2ce5ad984e8cb3",
      "transactionIndex": "0x3b",
      "blockHash": "0x8c4feeaaa6736a028e9e72a43df861fac5b279bb6d0fbc9312b38b7ed733e5a7",
      "blockNumber": "0x7b6283",
      "gasUsed": "0x8c0f5",
      "effectiveGasPrice": "0x1005af",
      "from": "0xae1710c414e95b83c247e01e8f30ee117771599b",
      "to": "0x72145021ad0d3fa57493b9e9fb6f497baeb3f26b",
      "contractAddress": null
    }
  ],
  "libraries": [],
  "pending": [],
  "returns": {},
  "timestamp": 1744229017,
  "chain": 11155111,
  "commit": "c0988c0"
}