{
  "transactions": [
    {
      "hash": "0xa5421b4ca9b9df686474f7fcaa318668bb1509256c92016410458fba27c4db64",
      "transactionType": "CALL",
      "contractName": null,
      "contractAddress": "0x7f7a6190fe17135e6d949cab43fb0e5c2c39e5f9",
      "function": "applyChainUpdates(uint64[],(uint64,bytes[],bytes,(bool,uint128,uint128),(bool,uint128,uint128))[])",
      "arguments": [
        "[]",
        "[(16015286601757825753, [0x00000000000000000000000072145021ad0d3fa57493b9e9fb6f497baeb3f26b], 0x000000000000000000000000555a860bd3213f7a865cbaa299a1ec6c89fb1e4c, (false, 0, 0), (false, 0, 0)), (3478487238524512106, [0x000000000000000000000000119f8b2ed721256378811d170317289dddb0692c], 0x0000000000000000000000003bbbe45540521b404663757c2e846df9fe97c018, (false, 0, 0), (false, 0, 0))]"
      ],
      "transaction": {
        "from": "0xae1710c414e95b83c247e01e8f30ee117771599b",
        "to": "0x7f7a6190fe17135e6d949cab43fb0e5c2c39e5f9",
        "gas": "0xc1752",
        "value": "0x0",
        "input": "0xe8a1da17000000000000000000000000000000000000000000000000000000000000004000000000000000000000000000000000000000000000000000000000000000600000000000000000000000000000000000000000000000000000000000000000000000000000000000000000000000000000000000000000000000000000000200000000000000000000000000000000000000000000000000000000000000400000000000000000000000000000000000000000000000000000000000000220000000000000000000000000000000000000000000000000de41ba4fc9d91ad9000000000000000000000000000000000000000000000000000000000000012000000000000000000000000000000000000000000000000000000000000001a000000000000000000000000000000000000000000000000000000000000000000000000000000000000000000000000000000000000000000000000000000000000000000000000000000000000000000000000000000000000000000000000000000000000000000000000000000000000000000000000000000000000000000000000000000000000000000000000000000000000000000000000000000000000000000000000000000000000000000000000000000000000000000000000000000000000000000000000000000000000000000000000000000000000000010000000000000000000000000000000000000000000000000000000000000020000000000000000000000000000000000000000000000000000000000000002000000000000000000000000072145021ad0d3fa57493b9e9fb6f497baeb3f26b0000000000000000000000000000000000000000000000000000000000000020000000000000000000000000555a860bd3213f7a865cbaa299a1ec6c89fb1e4c000000000000000000000000000000000000000000000000304611b6affba76a000000000000000000000000000000000000000000000000000000000000012000000000000000000000000000000000000000000000000000000000000001a0000000000000000000000000000000000000000000000000000000000000000000000000000000000000000000000000000000000000000000000000000000000000000000000000000000000000000000000000000000000000000000000000000000000000000000000000000000000000000000000000000000000000000000000000000000000000000000000000000000000000000000000000000000000000000000000000000000000000000000000000000000000000000000000000000000000000000000000000000000000000000000000000000000000000000100000000000000000000000000000000000000000000000000000000000000200000000000000000000000000000000000000000000000000000000000000020000000000000000000000000119f8b2ed721256378811d170317289dddb0692c00000000000000000000000000000000000000000000000000000000000000200000000000000000000000003bbbe45540521b404663757c2e846df9fe97c018",
        "nonce": "0x75",
        "chainId": "0x61"
      },
      "additionalContracts": [],
      "isFixedGasLimit": false
    }
  ],
  "receipts": [
    {
      "status": "0x1",
      "cumulativeGasUsed": "0x8c0f5",
      "logs": [
        {
          "address": "0x7f7a6190fe17135e6d949cab43fb0e5c2c39e5f9",
          "topics": [
            "0x7d628c9a1796743d365ab521a8b2a4686e419b3269919dc9145ea2ce853b54ea",
            "0x000000000000000000000000000000000000000000000000de41ba4fc9d91ad9"
          ],
          "data": "0x0000000000000000000000000000000000000000000000000000000000000020000000000000000000000000000000000000000000000000000000000000002000000000000000000000000072145021ad0d3fa57493b9e9fb6f497baeb3f26b",
          "blockHash": "0xc94fcc0cafd331f3263d6112d1cd112754e8dd186d29102508ef9a8884d30adc",
          "blockNumber": "0x2f917c7",
          "transactionHash": "0xa5421b4ca9b9df686474f7fcaa318668bb1509256c92016410458fba27c4db64",
          "transactionIndex": "0x0",
          "logIndex": "0x0",
          "removed": false
        },
        {
          "address": "0x7f7a6190fe17135e6d949cab43fb0e5c2c39e5f9",
          "topics": [
            "0x8d340f17e19058004c20453540862a9c62778504476f6756755cb33bcd6c38c2"
          ],
          "data": "0x000000000000000000000000000000000000000000000000de41ba4fc9d91ad900000000000000000000000000000000000000000000000000000000000001000000000000000000000000000000000000000000000000000000000000000000000000000000000000000000000000000000000000000000000000000000000000000000000000000000000000000000000000000000000000000000000000000000000000000000000000000000000000000000000000000000000000000000000000000000000000000000000000000000000000000000000000000000000000000000000000000000000000000000000000000000000000000000000000000000000000000000000000000000000000000000000000000000000000000020000000000000000000000000555a860bd3213f7a865cbaa299a1ec6c89fb1e4c",
          "blockHash": "0xc94fcc0cafd331f3263d6112d1cd112754e8dd186d29102508ef9a8884d30adc",
          "blockNumber": "0x2f917c7",
          "transactionHash": "0xa5421b4ca9b9df686474f7fcaa318668bb1509256c92016410458fba27c4db64",
          "transactionIndex": "0x0",
          "logIndex": "0x1",
          "removed": false
        },
        {
          "address": "0x7f7a6190fe17135e6d949cab43fb0e5c2c39e5f9",
          "topics": [
            "0x7d628c9a1796743d365ab521a8b2a4686e419b3269919dc9145ea2ce853b54ea",
            "0x000000000000000000000000000000000000000000000000304611b6affba76a"
          ],
          "data": "0x00000000000000000000000000000000000000000000000000000000000000200000000000000000000000000000000000000000000000000000000000000020000000000000000000000000119f8b2ed721256378811d170317289dddb0692c",
          "blockHash": "0xc94fcc0cafd331f3263d6112d1cd112754e8dd186d29102508ef9a8884d30adc",
          "blockNumber": "0x2f917c7",
          "transactionHash": "0xa5421b4ca9b9df686474f7fcaa318668bb1509256c92016410458fba27c4db64",
          "transactionIndex": "0x0",
          "logIndex": "0x2",
          "removed": false
        },
        {
          "address": "0x7f7a6190fe17135e6d949cab43fb0e5c2c39e5f9",
          "topics": [
            "0x8d340f17e19058004c20453540862a9c62778504476f6756755cb33bcd6c38c2"
          ],
          "data": "0x000000000000000000000000000000000000000000000000304611b6affba76a000000000000000000000000000000000000000000000000000000000000010000000000000000000000000000000000000000000000000000000000000000000000000000000000000000000000000000000000000000000000000000000000000000000000000000000000000000000000000000000000000000000000000000000000000000000000000000000000000000000000000000000000000000000000000000000000000000000000000000000000000000000000000000000000000000000000000000000000000000000000000000000000000000000000000000000000000000000000000000000000000000000000000000000000000000200000000000000000000000003bbbe45540521b404663757c2e846df9fe97c018",
          "blockHash": "0xc94fcc0cafd331f3263d6112d1cd112754e8dd186d29102508ef9a8884d30adc",
          "blockNumber": "0x2f917c7",
          "transactionHash": "0xa5421b4ca9b9df686474f7fcaa318668bb1509256c92016410458fba27c4db64",
          "transactionIndex": "0x0",
          "logIndex": "0x3",
          "removed": false
        }
      ],
      "logsBloom": "0x00000000000000400000000000000000000000000000000000000000000000000000000000004000001000000000000000000000080000000004000000000004000000000000000000000000000000000000000000000000000000000000000000000000000000000000000000010000000000000000000000000000000000400000000000000000000000000000000000000020000000000008000000000000000000000000000000000000000000000000000000000000000000000000000000000000000000000000000000000000000000000000000000000000080000000000000000000008000000000000000000000000008000000100000000200000",
      "type": "0x0",
      "transactionHash": "0xa5421b4ca9b9df686474f7fcaa318668bb1509256c92016410458fba27c4db64",
      "transactionIndex": "0x0",
      "blockHash": "0xc94fcc0cafd331f3263d6112d1cd112754e8dd186d29102508ef9a8884d30adc",
      "blockNumber": "0x2f917c7",
      "gasUsed": "0x8c0f5",
      "effectiveGasPrice": "0x77359400",
      "from": "0xae1710c414e95b83c247e01e8f30ee117771599b",
      "to": "0x7f7a6190fe17135e6d949cab43fb0e5c2c39e5f9",
      "contractAddress": null
    }
  ],
  "libraries": [],
  "pending": [],
  "returns": {},
  "timestamp": 1744229220,
  "chain": 97,
  "commit": "c0988c0"
}