{
  "transactions": [
    {
      "hash": "0xd607e68c95479af0cada7f9d447e6f3bcf3c66013830e1fa5d4c0d74ac346a54",
      "transactionType": "CALL",
      "contractName": null,
      "contractAddress": "0x5adad530492e7b0228b31e4935fb6c3227a46412",
      "function": "applyChainUpdates(uint64[],(uint64,bytes[],bytes,(bool,uint128,uint128),(bool,uint128,uint128))[])",
      "arguments": [
        "[]",
        "[(16015286601757825753, [0x000000000000000000000000c459b032cfad9988e0ef174f7872a2d68f6879be], 0x00000000000000000000000044bbe76ba377526ff6f5fa3e2f06455a7ea2f4a0, (false, 0, 0), (false, 0, 0)), (3478487238524512106, [0x0000000000000000000000005b27e1be18523fcf28b2dfdc73cbca267faf5859], 0x00000000000000000000000000a65efa887a2e6b822dd613d8272788f3b40f5d, (false, 0, 0), (false, 0, 0))]"
      ],
      "transaction": {
        "from": "0xae1710c414e95b83c247e01e8f30ee117771599b",
        "to": "0x5adad530492e7b0228b31e4935fb6c3227a46412",
        "gas": "0xccd54",
        "value": "0x0",
        "input": "0xe8a1da17000000000000000000000000000000000000000000000000000000000000004000000000000000000000000000000000000000000000000000000000000000600000000000000000000000000000000000000000000000000000000000000000000000000000000000000000000000000000000000000000000000000000000200000000000000000000000000000000000000000000000000000000000000400000000000000000000000000000000000000000000000000000000000000220000000000000000000000000000000000000000000000000de41ba4fc9d91ad9000000000000000000000000000000000000000000000000000000000000012000000000000000000000000000000000000000000000000000000000000001a0000000000000000000000000000000000000000000000000000000000000000000000000000000000000000000000000000000000000000000000000000000000000000000000000000000000000000000000000000000000000000000000000000000000000000000000000000000000000000000000000000000000000000000000000000000000000000000000000000000000000000000000000000000000000000000000000000000000000000000000000000000000000000000000000000000000000000000000000000000000000000000000000000000000000000100000000000000000000000000000000000000000000000000000000000000200000000000000000000000000000000000000000000000000000000000000020000000000000000000000000c459b032cfad9988e0ef174f7872a2d68f6879be000000000000000000000000000000000000000000000000000000000000002000000000000000000000000044bbe76ba377526ff6f5fa3e2f06455a7ea2f4a0000000000000000000000000000000000000000000000000304611b6affba76a000000000000000000000000000000000000000000000000000000000000012000000000000000000000000000000000000000000000000000000000000001a00000000000000000000000000000000000000000000000000000000000000000000000000000000000000000000000000000000000000000000000000000000000000000000000000000000000000000000000000000000000000000000000000000000000000000000000000000000000000000000000000000000000000000000000000000000000000000000000000000000000000000000000000000000000000000000000000000000000000000000000000000000000000000000000000000000000000000000000000000000000000000000000000000000000000001000000000000000000000000000000000000000000000000000000000000002000000000000000000000000000000000000000000000000000000000000000200000000000000000000000005b27e1be18523fcf28b2dfdc73cbca267faf5859000000000000000000000000000000000000000000000000000000000000002000000000000000000000000000a65efa887a2e6b822dd613d8272788f3b40f5d",
        "nonce": "0xec",
        "chainId": "0x61"
      },
      "additionalContracts": [],
      "isFixedGasLimit": false
    }
  ],
  "receipts": [
    {
      "status": "0x1",
      "cumulativeGasUsed": "0xc5121",
      "logs": [
        {
          "address": "0x5adad530492e7b0228b31e4935fb6c3227a46412",
          "topics": [
            "0x7d628c9a1796743d365ab521a8b2a4686e419b3269919dc9145ea2ce853b54ea",
            "0x000000000000000000000000000000000000000000000000de41ba4fc9d91ad9"
          ],
          "data": "0x00000000000000000000000000000000000000000000000000000000000000200000000000000000000000000000000000000000000000000000000000000020000000000000000000000000c459b032cfad9988e0ef174f7872a2d68f6879be",
          "blockHash": "0x0592358bddb39b771747a25aa695be652016edabeac35fecd7f426a7468e3a9e",
          "blockNumber": "0x2fb758d",
          "transactionHash": "0xd607e68c95479af0cada7f9d447e6f3bcf3c66013830e1fa5d4c0d74ac346a54",
          "transactionIndex": "0x1",
          "logIndex": "0xa",
          "removed": false
        },
        {
          "address": "0x5adad530492e7b0228b31e4935fb6c3227a46412",
          "topics": [
            "0x8d340f17e19058004c20453540862a9c62778504476f6756755cb33bcd6c38c2"
          ],
          "data": "0x000000000000000000000000000000000000000000000000de41ba4fc9d91ad90000000000000000000000000000000000000000000000000000000000000100000000000000000000000000000000000000000000000000000000000000000000000000000000000000000000000000000000000000000000000000000000000000000000000000000000000000000000000000000000000000000000000000000000000000000000000000000000000000000000000000000000000000000000000000000000000000000000000000000000000000000000000000000000000000000000000000000000000000000000000000000000000000000000000000000000000000000000000000000000000000000000000000000000000000002000000000000000000000000044bbe76ba377526ff6f5fa3e2f06455a7ea2f4a0",
          "blockHash": "0x0592358bddb39b771747a25aa695be652016edabeac35fecd7f426a7468e3a9e",
          "blockNumber": "0x2fb758d",
          "transactionHash": "0xd607e68c95479af0cada7f9d447e6f3bcf3c66013830e1fa5d4c0d74ac346a54",
          "transactionIndex": "0x1",
          "logIndex": "0xb",
          "removed": false
        },
        {
          "address": "0x5adad530492e7b0228b31e4935fb6c3227a46412",
          "topics": [
            "0x7d628c9a1796743d365ab521a8b2a4686e419b3269919dc9145ea2ce853b54ea",
            "0x000000000000000000000000000000000000000000000000304611b6affba76a"
          ],
          "data": "0x000000000000000000000000000000000000000000000000000000000000002000000000000000000000000000000000000000000000000000000000000000200000000000000000000000005b27e1be18523fcf28b2dfdc73cbca267faf5859",
          "blockHash": "0x0592358bddb39b771747a25aa695be652016edabeac35fecd7f426a7468e3a9e",
          "blockNumber": "0x2fb758d",
          "transactionHash": "0xd607e68c95479af0cada7f9d447e6f3bcf3c66013830e1fa5d4c0d74ac346a54",
          "transactionIndex": "0x1",
          "logIndex": "0xc",
          "removed": false
        },
        {
          "address": "0x5adad530492e7b0228b31e4935fb6c3227a46412",
          "topics": [
            "0x8d340f17e19058004c20453540862a9c62778504476f6756755cb33bcd6c38c2"
          ],
          "data": "0x000000000000000000000000000000000000000000000000304611b6affba76a0000000000000000000000000000000000000000000000000000000000000100000000000000000000000000000000000000000000000000000000000000000000000000000000000000000000000000000000000000000000000000000000000000000000000000000000000000000000000000000000000000000000000000000000000000000000000000000000000000000000000000000000000000000000000000000000000000000000000000000000000000000000000000000000000000000000000000000000000000000000000000000000000000000000000000000000000000000000000000000000000000000000000000000000000000002000000000000000000000000000a65efa887a2e6b822dd613d8272788f3b40f5d",
          "blockHash": "0x0592358bddb39b771747a25aa695be652016edabeac35fecd7f426a7468e3a9e",
          "blockNumber": "0x2fb758d",
          "transactionHash": "0xd607e68c95479af0cada7f9d447e6f3bcf3c66013830e1fa5d4c0d74ac346a54",
          "transactionIndex": "0x1",
          "logIndex": "0xd",
          "removed": false
        }
      ],
      "logsBloom": "0x00000000000000400000000000000000000000000000000000000000000000000000000000004000000000000000000000000000080000000004000000000004000000000000000000000000000000000000000000000000000000000000000000000000000000000000000000010000000000000000000000000000000000400000000000000000000000000000040000000020000000200000000000000000000000000000000000000000000000000000000000000000000000000000000000000000000000000000000000000000000000000000000000000000080000000000000000000000000000000000000000000000008000100100000000200000",
      "type": "0x0",
      "transactionHash": "0xd607e68c95479af0cada7f9d447e6f3bcf3c66013830e1fa5d4c0d74ac346a54",
      "transactionIndex": "0x1",
      "blockHash": "0x0592358bddb39b771747a25aa695be652016edabeac35fecd7f426a7468e3a9e",
      "blockNumber": "0x2fb758d",
      "gasUsed": "0x8c0e9",
      "effectiveGasPrice": "0xb2d05e00",
      "from": "0xae1710c414e95b83c247e01e8f30ee117771599b",
      "to": "0x5adad530492e7b0228b31e4935fb6c3227a46412",
      "contractAddress": null
    }
  ],
  "libraries": [],
  "pending": [],
  "returns": {},
  "timestamp": 1744462125,
  "chain": 97,
  "commit": "c0988c0"
}