{
  "transactions": [
    {
      "hash": "0xd993c66d9e47a13aa54146b43dd77ca3b64eb110eab26bc71ea1a6d20a94ede3",
      "transactionType": "CALL",
      "contractName": null,
      "contractAddress": "0x55124f045e07adbd3a3d46806db332651ea358a4",
      "function": "applyChainUpdates(uint64[],(uint64,bytes[],bytes,(bool,uint128,uint128),(bool,uint128,uint128))[])",
      "arguments": [
        "[]",
        "[(16015286601757825753, [0x00000000000000000000000084e88ba8ab6da648af9eec3ec96d9797e0b6f6d3], 0x0000000000000000000000003dc019c8b47e195d169b0fe2bdbed2548bfcff44, (false, 0, 0), (false, 0, 0)), (3478487238524512106, [0x0000000000000000000000003c686ebe9387e0eae133828dc487035faf202229], 0x00000000000000000000000055124f045e07adbd3a3d46806db332651ea358a4, (false, 0, 0), (false, 0, 0))]"
      ],
      "transaction": {
        "from": "0xae1710c414e95b83c247e01e8f30ee117771599b",
        "to": "0x55124f045e07adbd3a3d46806db332651ea358a4",
        "gas": "0xc1752",
        "value": "0x0",
        "input": "0xe8a1da17000000000000000000000000000000000000000000000000000000000000004000000000000000000000000000000000000000000000000000000000000000600000000000000000000000000000000000000000000000000000000000000000000000000000000000000000000000000000000000000000000000000000000200000000000000000000000000000000000000000000000000000000000000400000000000000000000000000000000000000000000000000000000000000220000000000000000000000000000000000000000000000000de41ba4fc9d91ad9000000000000000000000000000000000000000000000000000000000000012000000000000000000000000000000000000000000000000000000000000001a000000000000000000000000000000000000000000000000000000000000000000000000000000000000000000000000000000000000000000000000000000000000000000000000000000000000000000000000000000000000000000000000000000000000000000000000000000000000000000000000000000000000000000000000000000000000000000000000000000000000000000000000000000000000000000000000000000000000000000000000000000000000000000000000000000000000000000000000000000000000000000000000000000000000000010000000000000000000000000000000000000000000000000000000000000020000000000000000000000000000000000000000000000000000000000000002000000000000000000000000084e88ba8ab6da648af9eec3ec96d9797e0b6f6d300000000000000000000000000000000000000000000000000000000000000200000000000000000000000003dc019c8b47e195d169b0fe2bdbed2548bfcff44000000000000000000000000000000000000000000000000304611b6affba76a000000000000000000000000000000000000000000000000000000000000012000000000000000000000000000000000000000000000000000000000000001a00000000000000000000000000000000000000000000000000000000000000000000000000000000000000000000000000000000000000000000000000000000000000000000000000000000000000000000000000000000000000000000000000000000000000000000000000000000000000000000000000000000000000000000000000000000000000000000000000000000000000000000000000000000000000000000000000000000000000000000000000000000000000000000000000000000000000000000000000000000000000000000000000000000000000001000000000000000000000000000000000000000000000000000000000000002000000000000000000000000000000000000000000000000000000000000000200000000000000000000000003c686ebe9387e0eae133828dc487035faf202229000000000000000000000000000000000000000000000000000000000000002000000000000000000000000055124f045e07adbd3a3d46806db332651ea358a4",
        "nonce": "0x97",
        "chainId": "0x61"
      },
      "additionalContracts": [],
      "isFixedGasLimit": false
    }
  ],
  "receipts": [
    {
      "status": "0x1",
      "cumulativeGasUsed": "0x8c0f5",
      "logs": [
        {
          "address": "0x55124f045e07adbd3a3d46806db332651ea358a4",
          "topics": [
            "0x7d628c9a1796743d365ab521a8b2a4686e419b3269919dc9145ea2ce853b54ea",
            "0x000000000000000000000000000000000000000000000000de41ba4fc9d91ad9"
          ],
          "data": "0x0000000000000000000000000000000000000000000000000000000000000020000000000000000000000000000000000000000000000000000000000000002000000000000000000000000084e88ba8ab6da648af9eec3ec96d9797e0b6f6d3",
          "blockHash": "0x2bf6b02018eb45963a1f2aaee80ffdeae5041a66c1b30ecb5eeef5926e1fd71d",
          "blockNumber": "0x2fb62e6",
          "transactionHash": "0xd993c66d9e47a13aa54146b43dd77ca3b64eb110eab26bc71ea1a6d20a94ede3",
          "transactionIndex": "0x0",
          "logIndex": "0x0",
          "removed": false
        },
        {
          "address": "0x55124f045e07adbd3a3d46806db332651ea358a4",
          "topics": [
            "0x8d340f17e19058004c20453540862a9c62778504476f6756755cb33bcd6c38c2"
          ],
          "data": "0x000000000000000000000000000000000000000000000000de41ba4fc9d91ad9000000000000000000000000000000000000000000000000000000000000010000000000000000000000000000000000000000000000000000000000000000000000000000000000000000000000000000000000000000000000000000000000000000000000000000000000000000000000000000000000000000000000000000000000000000000000000000000000000000000000000000000000000000000000000000000000000000000000000000000000000000000000000000000000000000000000000000000000000000000000000000000000000000000000000000000000000000000000000000000000000000000000000000000000000000200000000000000000000000003dc019c8b47e195d169b0fe2bdbed2548bfcff44",
          "blockHash": "0x2bf6b02018eb45963a1f2aaee80ffdeae5041a66c1b30ecb5eeef5926e1fd71d",
          "blockNumber": "0x2fb62e6",
          "transactionHash": "0xd993c66d9e47a13aa54146b43dd77ca3b64eb110eab26bc71ea1a6d20a94ede3",
          "transactionIndex": "0x0",
          "logIndex": "0x1",
          "removed": false
        },
        {
          "address": "0x55124f045e07adbd3a3d46806db332651ea358a4",
          "topics": [
            "0x7d628c9a1796743d365ab521a8b2a4686e419b3269919dc9145ea2ce853b54ea",
            "0x000000000000000000000000000000000000000000000000304611b6affba76a"
          ],
          "data": "0x000000000000000000000000000000000000000000000000000000000000002000000000000000000000000000000000000000000000000000000000000000200000000000000000000000003c686ebe9387e0eae133828dc487035faf202229",
          "blockHash": "0x2bf6b02018eb45963a1f2aaee80ffdeae5041a66c1b30ecb5eeef5926e1fd71d",
          "blockNumber": "0x2fb62e6",
          "transactionHash": "0xd993c66d9e47a13aa54146b43dd77ca3b64eb110eab26bc71ea1a6d20a94ede3",
          "transactionIndex": "0x0",
          "logIndex": "0x2",
          "removed": false
        },
        {
          "address": "0x55124f045e07adbd3a3d46806db332651ea358a4",
          "topics": [
            "0x8d340f17e19058004c20453540862a9c62778504476f6756755cb33bcd6c38c2"
          ],
          "data": "0x000000000000000000000000000000000000000000000000304611b6affba76a0000000000000000000000000000000000000000000000000000000000000100000000000000000000000000000000000000000000000000000000000000000000000000000000000000000000000000000000000000000000000000000000000000000000000000000000000000000000000000000000000000000000000000000000000000000000000000000000000000000000000000000000000000000000000000000000000000000000000000000000000000000000000000000000000000000000000000000000000000000000000000000000000000000000000000000000000000000000000000000000000000000000000000000000000000002000000000000000000000000055124f045e07adbd3a3d46806db332651ea358a4",
          "blockHash": "0x2bf6b02018eb45963a1f2aaee80ffdeae5041a66c1b30ecb5eeef5926e1fd71d",
          "blockNumber": "0x2fb62e6",
          "transactionHash": "0xd993c66d9e47a13aa54146b43dd77ca3b64eb110eab26bc71ea1a6d20a94ede3",
          "transactionIndex": "0x0",
          "logIndex": "0x3",
          "removed": false
        }
      ],
      "logsBloom": "0x00000000000000400000000000000000000000000000000000000000000000000000000000004000000000000000000000000000080000000004000000000004000000000000000000000000000000000000000000000000000000000000000000000000000000000000000000010000000000000000000000200000000100400000000000000000000000000000000000000020000000000000000000000000000000000000000000000000000000000000000000000000000000000000000000000000000000000000000000000000000000000000000000400000080000000000000000000000000000000000000000000000008000000100000000200000",
      "type": "0x0",
      "transactionHash": "0xd993c66d9e47a13aa54146b43dd77ca3b64eb110eab26bc71ea1a6d20a94ede3",
      "transactionIndex": "0x0",
      "blockHash": "0x2bf6b02018eb45963a1f2aaee80ffdeae5041a66c1b30ecb5eeef5926e1fd71d",
      "blockNumber": "0x2fb62e6",
      "gasUsed": "0x8c0f5",
      "effectiveGasPrice": "0x12a05f200",
      "from": "0xae1710c414e95b83c247e01e8f30ee117771599b",
      "to": "0x55124f045e07adbd3a3d46806db332651ea358a4",
      "contractAddress": null
    }
  ],
  "libraries": [],
  "pending": [],
  "returns": {},
  "timestamp": 1744454945,
  "chain": 97,
  "commit": "c0988c0"
}