{
  "transactions": [
    {
      "hash": "0x7be408de31fd69cc5407e063c528d2b6c7db1e45df3e702a97b77f40ecdb8f4c",
      "transactionType": "CALL",
      "contractName": null,
      "contractAddress": "0xf628798084146ca57d9ce0f298d1b73cb2334744",
      "function": "applyChainUpdates(uint64[],(uint64,bytes[],bytes,(bool,uint128,uint128),(bool,uint128,uint128))[])",
      "arguments": [
        "[]",
        "[(16015286601757825753, [0x0000000000000000000000007f82767cb665661c3040ec19cc0a963482d969f6], 0x000000000000000000000000b8a39e17c49777407ab9db7e663bb02324e5c642, (false, 0, 0), (false, 0, 0)), (3478487238524512106, [0x000000000000000000000000d14e942ed5faa4a760f70d1ab43ecb836c827012], 0x00000000000000000000000027284f231245df71d174eb143c89dcd79b98a920, (false, 0, 0), (false, 0, 0))]"
      ],
      "transaction": {
        "from": "0xae1710c414e95b83c247e01e8f30ee117771599b",
        "to": "0xf628798084146ca57d9ce0f298d1b73cb2334744",
        "gas": "0xc1752",
        "value": "0x0",
        "input": "0xe8a1da17000000000000000000000000000000000000000000000000000000000000004000000000000000000000000000000000000000000000000000000000000000600000000000000000000000000000000000000000000000000000000000000000000000000000000000000000000000000000000000000000000000000000000200000000000000000000000000000000000000000000000000000000000000400000000000000000000000000000000000000000000000000000000000000220000000000000000000000000000000000000000000000000de41ba4fc9d91ad9000000000000000000000000000000000000000000000000000000000000012000000000000000000000000000000000000000000000000000000000000001a00000000000000000000000000000000000000000000000000000000000000000000000000000000000000000000000000000000000000000000000000000000000000000000000000000000000000000000000000000000000000000000000000000000000000000000000000000000000000000000000000000000000000000000000000000000000000000000000000000000000000000000000000000000000000000000000000000000000000000000000000000000000000000000000000000000000000000000000000000000000000000000000000000000000000001000000000000000000000000000000000000000000000000000000000000002000000000000000000000000000000000000000000000000000000000000000200000000000000000000000007f82767cb665661c3040ec19cc0a963482d969f60000000000000000000000000000000000000000000000000000000000000020000000000000000000000000b8a39e17c49777407ab9db7e663bb02324e5c642000000000000000000000000000000000000000000000000304611b6affba76a000000000000000000000000000000000000000000000000000000000000012000000000000000000000000000000000000000000000000000000000000001a0000000000000000000000000000000000000000000000000000000000000000000000000000000000000000000000000000000000000000000000000000000000000000000000000000000000000000000000000000000000000000000000000000000000000000000000000000000000000000000000000000000000000000000000000000000000000000000000000000000000000000000000000000000000000000000000000000000000000000000000000000000000000000000000000000000000000000000000000000000000000000000000000000000000000000100000000000000000000000000000000000000000000000000000000000000200000000000000000000000000000000000000000000000000000000000000020000000000000000000000000d14e942ed5faa4a760f70d1ab43ecb836c827012000000000000000000000000000000000000000000000000000000000000002000000000000000000000000027284f231245df71d174eb143c89dcd79b98a920",
        "nonce": "0x56",
        "chainId": "0x61"
      },
      "additionalContracts": [],
      "isFixedGasLimit": false
    }
  ],
  "receipts": [
    {
      "status": "0x1",
      "cumulativeGasUsed": "0x8c0f5",
      "logs": [
        {
          "address": "0xf628798084146ca57d9ce0f298d1b73cb2334744",
          "topics": [
            "0x7d628c9a1796743d365ab521a8b2a4686e419b3269919dc9145ea2ce853b54ea",
            "0x000000000000000000000000000000000000000000000000de41ba4fc9d91ad9"
          ],
          "data": "0x000000000000000000000000000000000000000000000000000000000000002000000000000000000000000000000000000000000000000000000000000000200000000000000000000000007f82767cb665661c3040ec19cc0a963482d969f6",
          "blockHash": "0xbd685e0385a4b092099eb90ac6de1fd178780e85b55cde6bdd8879c43311789a",
          "blockNumber": "0x2f76754",
          "transactionHash": "0x7be408de31fd69cc5407e063c528d2b6c7db1e45df3e702a97b77f40ecdb8f4c",
          "transactionIndex": "0x0",
          "logIndex": "0x0",
          "removed": false
        },
        {
          "address": "0xf628798084146ca57d9ce0f298d1b73cb2334744",
          "topics": [
            "0x8d340f17e19058004c20453540862a9c62778504476f6756755cb33bcd6c38c2"
          ],
          "data": "0x000000000000000000000000000000000000000000000000de41ba4fc9d91ad900000000000000000000000000000000000000000000000000000000000001000000000000000000000000000000000000000000000000000000000000000000000000000000000000000000000000000000000000000000000000000000000000000000000000000000000000000000000000000000000000000000000000000000000000000000000000000000000000000000000000000000000000000000000000000000000000000000000000000000000000000000000000000000000000000000000000000000000000000000000000000000000000000000000000000000000000000000000000000000000000000000000000000000000000000020000000000000000000000000b8a39e17c49777407ab9db7e663bb02324e5c642",
          "blockHash": "0xbd685e0385a4b092099eb90ac6de1fd178780e85b55cde6bdd8879c43311789a",
          "blockNumber": "0x2f76754",
          "transactionHash": "0x7be408de31fd69cc5407e063c528d2b6c7db1e45df3e702a97b77f40ecdb8f4c",
          "transactionIndex": "0x0",
          "logIndex": "0x1",
          "removed": false
        },
        {
          "address": "0xf628798084146ca57d9ce0f298d1b73cb2334744",
          "topics": [
            "0x7d628c9a1796743d365ab521a8b2a4686e419b3269919dc9145ea2ce853b54ea",
            "0x000000000000000000000000000000000000000000000000304611b6affba76a"
          ],
          "data": "0x00000000000000000000000000000000000000000000000000000000000000200000000000000000000000000000000000000000000000000000000000000020000000000000000000000000d14e942ed5faa4a760f70d1ab43ecb836c827012",
          "blockHash": "0xbd685e0385a4b092099eb90ac6de1fd178780e85b55cde6bdd8879c43311789a",
          "blockNumber": "0x2f76754",
          "transactionHash": "0x7be408de31fd69cc5407e063c528d2b6c7db1e45df3e702a97b77f40ecdb8f4c",
          "transactionIndex": "0x0",
          "logIndex": "0x2",
          "removed": false
        },
        {
          "address": "0xf628798084146ca57d9ce0f298d1b73cb2334744",
          "topics": [
            "0x8d340f17e19058004c20453540862a9c62778504476f6756755cb33bcd6c38c2"
          ],
          "data": "0x000000000000000000000000000000000000000000000000304611b6affba76a0000000000000000000000000000000000000000000000000000000000000100000000000000000000000000000000000000000000000000000000000000000000000000000000000000000000000000000000000000000000000000000000000000000000000000000000000000000000000000000000000000000000000000000000000000000000000000000000000000000000000000000000000000000000000000000000000000000000000000000000000000000000000000000000000000000000000000000000000000000000000000000000000000000000000000000000000000000000000000000000000000000000000000000000000000002000000000000000000000000027284f231245df71d174eb143c89dcd79b98a920",
          "blockHash": "0xbd685e0385a4b092099eb90ac6de1fd178780e85b55cde6bdd8879c43311789a",
          "blockNumber": "0x2f76754",
          "transactionHash": "0x7be408de31fd69cc5407e063c528d2b6c7db1e45df3e702a97b77f40ecdb8f4c",
          "transactionIndex": "0x0",
          "logIndex": "0x3",
          "removed": false
        }
      ],
      "logsBloom": "0x00000000000000400000000000000000000000000000000000000000000200000000000000004000000000000000000000000000080000000004000000000004000000000000000000000000000000000000000000000000000000000000000000000000000000000000000000010000000000000000000000000000000000400000000000000000000000000000000000000020000000000000000000000000000000040000000000000000000000000000000000000000000000000000000000000000000000000000008000000000000000000000000000000000080000000000000000000000000000000000000000000000008000000100000000200000",
      "type": "0x0",
      "transactionHash": "0x7be408de31fd69cc5407e063c528d2b6c7db1e45df3e702a97b77f40ecdb8f4c",
      "transactionIndex": "0x0",
      "blockHash": "0xbd685e0385a4b092099eb90ac6de1fd178780e85b55cde6bdd8879c43311789a",
      "blockNumber": "0x2f76754",
      "gasUsed": "0x8c0f5",
      "effectiveGasPrice": "0x1b19fb0c0",
      "from": "0xae1710c414e95b83c247e01e8f30ee117771599b",
      "to": "0xf628798084146ca57d9ce0f298d1b73cb2334744",
      "contractAddress": null
    }
  ],
  "libraries": [],
  "pending": [],
  "returns": {},
  "timestamp": 1744028303,
  "chain": 97,
  "commit": "fee06cf"
}