{
  "transactions": [
    {
      "hash": "0xf9f8e4dec36a63a48015fc2ba315061527075ecf1dda62ca2659e90683c33402",
      "transactionType": "CALL",
      "contractName": null,
      "contractAddress": "0x25f5426b4cece20dcfb01dd979f1bc646d0ecac9",
      "function": "applyChainUpdates(uint64[],(uint64,bytes[],bytes,(bool,uint128,uint128),(bool,uint128,uint128))[])",
      "arguments": [
        "[]",
        "[(16015286601757825753, [0x000000000000000000000000a044045b799478110a32f539e881e681881a30f5], 0x000000000000000000000000211f5c262159340a350b0f2185645b1f8e538cf3, (true, 100000, 167), (true, 100000, 167)), (3478487238524512106, [0x000000000000000000000000ab0f46d41771d323faff408073e4199640a7b625], 0x000000000000000000000000620b2394db7158b3e59f1140a94019963e18eb71, (true, 100000, 167), (true, 100000, 167))]"
      ],
      "transaction": {
        "from": "0xae1710c414e95b83c247e01e8f30ee117771599b",
        "to": "0x25f5426b4cece20dcfb01dd979f1bc646d0ecac9",
        "gas": "0xdc623",
        "value": "0x0",
        "input": "0xe8a1da17000000000000000000000000000000000000000000000000000000000000004000000000000000000000000000000000000000000000000000000000000000600000000000000000000000000000000000000000000000000000000000000000000000000000000000000000000000000000000000000000000000000000000200000000000000000000000000000000000000000000000000000000000000400000000000000000000000000000000000000000000000000000000000000220000000000000000000000000000000000000000000000000de41ba4fc9d91ad9000000000000000000000000000000000000000000000000000000000000012000000000000000000000000000000000000000000000000000000000000001a0000000000000000000000000000000000000000000000000000000000000000100000000000000000000000000000000000000000000000000000000000186a000000000000000000000000000000000000000000000000000000000000000a7000000000000000000000000000000000000000000000000000000000000000100000000000000000000000000000000000000000000000000000000000186a000000000000000000000000000000000000000000000000000000000000000a7000000000000000000000000000000000000000000000000000000000000000100000000000000000000000000000000000000000000000000000000000000200000000000000000000000000000000000000000000000000000000000000020000000000000000000000000a044045b799478110a32f539e881e681881a30f50000000000000000000000000000000000000000000000000000000000000020000000000000000000000000211f5c262159340a350b0f2185645b1f8e538cf3000000000000000000000000000000000000000000000000304611b6affba76a000000000000000000000000000000000000000000000000000000000000012000000000000000000000000000000000000000000000000000000000000001a0000000000000000000000000000000000000000000000000000000000000000100000000000000000000000000000000000000000000000000000000000186a000000000000000000000000000000000000000000000000000000000000000a7000000000000000000000000000000000000000000000000000000000000000100000000000000000000000000000000000000000000000000000000000186a000000000000000000000000000000000000000000000000000000000000000a7000000000000000000000000000000000000000000000000000000000000000100000000000000000000000000000000000000000000000000000000000000200000000000000000000000000000000000000000000000000000000000000020000000000000000000000000ab0f46d41771d323faff408073e4199640a7b6250000000000000000000000000000000000000000000000000000000000000020000000000000000000000000620b2394db7158b3e59f1140a94019963e18eb71",
        "nonce": "0x21",
        "chainId": "0x61"
      },
      "additionalContracts": [],
      "isFixedGasLimit": false
    }
  ],
  "receipts": [
    {
      "status": "0x1",
      "cumulativeGasUsed": "0xab42b",
      "logs": [
        {
          "address": "0x25f5426b4cece20dcfb01dd979f1bc646d0ecac9",
          "topics": [
            "0x7d628c9a1796743d365ab521a8b2a4686e419b3269919dc9145ea2ce853b54ea",
            "0x000000000000000000000000000000000000000000000000de41ba4fc9d91ad9"
          ],
          "data": "0x00000000000000000000000000000000000000000000000000000000000000200000000000000000000000000000000000000000000000000000000000000020000000000000000000000000a044045b799478110a32f539e881e681881a30f5",
          "blockHash": "0x7a06115e5c7dcac36c14cef6fa31c6ccc859d5a2bf726fdc37193b2124ddcac2",
          "blockNumber": "0x2f671f4",
          "transactionHash": "0xf9f8e4dec36a63a48015fc2ba315061527075ecf1dda62ca2659e90683c33402",
          "transactionIndex": "0x1",
          "logIndex": "0x0",
          "removed": false
        },
        {
          "address": "0x25f5426b4cece20dcfb01dd979f1bc646d0ecac9",
          "topics": [
            "0x8d340f17e19058004c20453540862a9c62778504476f6756755cb33bcd6c38c2"
          ],
          "data": "0x000000000000000000000000000000000000000000000000de41ba4fc9d91ad90000000000000000000000000000000000000000000000000000000000000100000000000000000000000000000000000000000000000000000000000000000100000000000000000000000000000000000000000000000000000000000186a000000000000000000000000000000000000000000000000000000000000000a7000000000000000000000000000000000000000000000000000000000000000100000000000000000000000000000000000000000000000000000000000186a000000000000000000000000000000000000000000000000000000000000000a70000000000000000000000000000000000000000000000000000000000000020000000000000000000000000211f5c262159340a350b0f2185645b1f8e538cf3",
          "blockHash": "0x7a06115e5c7dcac36c14cef6fa31c6ccc859d5a2bf726fdc37193b2124ddcac2",
          "blockNumber": "0x2f671f4",
          "transactionHash": "0xf9f8e4dec36a63a48015fc2ba315061527075ecf1dda62ca2659e90683c33402",
          "transactionIndex": "0x1",
          "logIndex": "0x1",
          "removed": false
        },
        {
          "address": "0x25f5426b4cece20dcfb01dd979f1bc646d0ecac9",
          "topics": [
            "0x7d628c9a1796743d365ab521a8b2a4686e419b3269919dc9145ea2ce853b54ea",
            "0x000000000000000000000000000000000000000000000000304611b6affba76a"
          ],
          "data": "0x00000000000000000000000000000000000000000000000000000000000000200000000000000000000000000000000000000000000000000000000000000020000000000000000000000000ab0f46d41771d323faff408073e4199640a7b625",
          "blockHash": "0x7a06115e5c7dcac36c14cef6fa31c6ccc859d5a2bf726fdc37193b2124ddcac2",
          "blockNumber": "0x2f671f4",
          "transactionHash": "0xf9f8e4dec36a63a48015fc2ba315061527075ecf1dda62ca2659e90683c33402",
          "transactionIndex": "0x1",
          "logIndex": "0x2",
          "removed": false
        },
        {
          "address": "0x25f5426b4cece20dcfb01dd979f1bc646d0ecac9",
          "topics": [
            "0x8d340f17e19058004c20453540862a9c62778504476f6756755cb33bcd6c38c2"
          ],
          "data": "0x000000000000000000000000000000000000000000000000304611b6affba76a0000000000000000000000000000000000000000000000000000000000000100000000000000000000000000000000000000000000000000000000000000000100000000000000000000000000000000000000000000000000000000000186a000000000000000000000000000000000000000000000000000000000000000a7000000000000000000000000000000000000000000000000000000000000000100000000000000000000000000000000000000000000000000000000000186a000000000000000000000000000000000000000000000000000000000000000a70000000000000000000000000000000000000000000000000000000000000020000000000000000000000000620b2394db7158b3e59f1140a94019963e18eb71",
          "blockHash": "0x7a06115e5c7dcac36c14cef6fa31c6ccc859d5a2bf726fdc37193b2124ddcac2",
          "blockNumber": "0x2f671f4",
          "transactionHash": "0xf9f8e4dec36a63a48015fc2ba315061527075ecf1dda62ca2659e90683c33402",
          "transactionIndex": "0x1",
          "logIndex": "0x3",
          "removed": false
        }
      ],
      "logsBloom": "0x00000000000000400000000000000000000000000000000000000000000000000000000000004000000000000000000000000000080000000004000000000004040000000000000000000000000000000000000000000000000000000000000000000000000000000000000000010000000000000000000000000000000000400000000000010000000000000000000000000020000000000000000000000000000000000000000000000000000000000000000000000000000000000000000000000000000000000000000000000000000000000000000000000000080000000000000000000000000000000010000000000000008000000100000000200000",
      "type": "0x0",
      "transactionHash": "0xf9f8e4dec36a63a48015fc2ba315061527075ecf1dda62ca2659e90683c33402",
      "transactionIndex": "0x1",
      "blockHash": "0x7a06115e5c7dcac36c14cef6fa31c6ccc859d5a2bf726fdc37193b2124ddcac2",
      "blockNumber": "0x2f671f4",
      "gasUsed": "0x9f8dd",
      "effectiveGasPrice": "0xb2d05e00",
      "from": "0xae1710c414e95b83c247e01e8f30ee117771599b",
      "to": "0x25f5426b4cece20dcfb01dd979f1bc646d0ecac9",
      "contractAddress": null
    }
  ],
  "libraries": [],
  "pending": [],
  "returns": {},
  "timestamp": 1743839854,
  "chain": 97,
  "commit": "fee06cf"
}